S01D00004F6273746163616C2061766F6964696E67206361722E7372656317
S11300000C9446000C947B060C94A2060C94C9062E
S11300100C9463000C94DA090C9463000C94630050
S11300200C9463000C9420070C9463000C94F00669
S11300300C9463000C9463000C9463000C946300B0
S11300400C9463000C9463000C9463000C946300A0
S11300500C946300F90704080F081F091A081F0904
S1130060250830083B0846085C086708720821091F
S11300707D082109880893089E08A908BF08CA08B2
S1130080D508E008EB08F60801090C0911241FBE85
S1130090CFE5D8E0DEBFCDBF10E0A0E6B0E0E6E0FB
S11300A0F7E102C005900D92A43BB107D9F720E017
S11300B0A4EBB0E001C01D92AE3DB207E1F70E948F
S11300C0BE040C94810B0C9400008091B8008F5FE7
S11300D08093B80008958091B6009091B70002967D
S11300E09093B7008093B60080FF0E94B90280917C
S11300F0B4009091B500009769F481E890E0909382
S113010077008093760081E090E09093B50080932F
S1130110B4000895019751F486E890E09093770035
S1130120809376001092B5001092B40008950E9456
S11301308F040E94DE0187E690E00E94050363E0DD
S113014080E00E94400180E690E00E94BF0387E0C7
S113015094E00E94B8048BE194E00E94BB048BE617
S113016090E00E9456018FEF8ABB089580E690E0EC
S11301700E94DF030E9461018091B8008BBB0E9442
S1130180B902809160000E94F1030E945E0108950B
S113019084ED90E00E9442038091D4008E34F1F00B
S11301A0813319F0823361F016C01092750060E05B
S11301B081E00E94D0028091D4000E943F020EC0D0
S11301C081E08093750060E00E94D0028091D400A9
S11301D00E943F0203C082E0809375008091750005
S11301E0811120C00E94AD046093D5007093D600A5
S11301F08093D7009093D8008FE295E70197F1F7A9
S113020000C000008091B900811109C00E94B902A8
S11302101092BB001092BA0081E08093B9000E9452
S1130220B60008958130B1F48091BA00811109C0FB
S11302300E94B9021092BB0081E08093BA00109230
S1130240B90060E080E00E94D0028CE890E00E9457
S1130250E80208958091BB00811109C00E94B9028F
S113026081E08093BB001092BA001092B90060E064
S113027080E00E94D0028AE990E00E94E80208959A
S1130280CF93DF93C82FD62F40E062E083E00E9433
S1130290C30440E062E083E00E94FD046D2F8C2FD4
S11302A00E94E30581E0DF91CF910895009721F04A
S11302B00E94660681E0089580E008950E94700619
S11302C008950E94740608950F931F93CF93DF93AC
S11302D0182F40E060E083E00E94FD04C82F40E056
S11302E067E082E00E94FD04C82B012F02950F7085
S11302F0D0E015C0ED2FF0E0402F50E00D2E02C0ED
S1130300559547950A94E2F74170EE0FFF1FE858A0
S1130310FF4F618180810E94FD04C82BDF5FD430D0
S113032048F341E061E083E00E94FD04C82B89EFBB
S113033090E00197F1F700C0000040E061E083E045
S11303400E94FD04C82B92E49A95F1F700C01F7037
S1130350D0E015C0ED2FF0E0412F50E00D2E02C08B
S1130360559547950A94E2F74170EE0FFF1FE85840
S1130370FF4F618180810E94FD04C82BDF5FD43070
S113038048F341E061E083E00E94FD04C82BE9EFFB
S1130390F0E03197F1F700C0000040E061E083E055
S11303A00E94FD048C2BE3EFF1E03197F1F700C0DC
S11303B00000DF91CF911F910F910895CF93DF93A8
S11303C0D0E0C0E00DC0ED2FF0E0EE0FFF1FE858C5
S11303D0FF4F41E0618180810E94C304C82BDF5F2D
S11303E0D43088F341E067E082E00E94C304C82B64
S11303F041E060E083E00E94C304C82B41E061E077
S113040083E00E94C304C82B8FE097E20197F1F7C1
S113041000C0000082E00E946401C82BE9EFF0E014
S11304203197F1F700C0000088E20E946401C82BF4
S113043089EF90E00197F1F700C0000081E00E948D
S11304406401C82BE7EEF3E03197F1F700C0000038
S113045086E00E946401C82B89EF90E00197F1F7D0
S113046000C000008CE00E9464018C2BE9EFF0E0F6
S11304703197F1F700C00000DF91CF9108950F93F9
S11304801F93CF93DF93182F40E060E083E00E9436
S1130490FD04C82F41E067E082E00E94FD04C82B00
S11304A0012F02950F70D0E015C0ED2FF0E0402F22
S11304B050E00D2E02C0559547950A94E2F741701D
S11304C0EE0FFF1FE858FF4F618180810E94FD04F9
S11304D0C82BDF5FD43048F341E061E083E00E9441
S11304E0FD04C82B89EF90E00197F1F700C00000EC
S11304F040E061E083E00E94FD04C82B92E49A95F9
S1130500F1F700C01F70D0E015C0ED2FF0E0412FCF
S113051050E00D2E02C0559547950A94E2F74170BC
S1130520EE0FFF1FE858FF4F618180810E94FD0498
S1130530C82BDF5FD43048F341E061E083E00E94E0
S1130540FD04C82BE9EFF0E03197F1F700C000009B
S113055040E061E083E00E94FD048C2BE3EFF1E0D6
S11305603197F1F700C00000DF91CF911F910F91F7
S11305700895CF9381E00E946401C82F87EE93E031
S11305800197F1F700C0000082E00E9464018C2B07
S1130590E7EEF3E03197F1F700C00000CF91089542
S11305A0811108C0603130F4862F8F7080680E94FA
S11305B064010895813041F4603140F4862F8F70D6
S11305C0806C0E946401089585E0089585E0089593
S11305D0EF92FF921F93CF93DF937C01FC01808104
S11305E0C0E0D0E010E008C00E943F02182B219622
S11305F0F701EC0FFD1F80818111F6CF812FDF9170
S1130600CF911F91FF90EF900895CF93DF930097C0
S1130610A9F1EC01698140E088810E94C3046B81E7
S113062040E08A810E94C3046D8140E08C810E9475
S1130630C304698141E088810E94FD046B8141E02B
S11306408A810E94FD046D8141E08C810E94FD0439
S11306506F8141E08E810E94C304698541E08885F1
S11306600E94C3046B8541E08A850E94C3046D85A2
S113067041E08C850E94C30480E001C087E0DF91E3
S1130680CF910895DF92EF92FF920F931F93CF9330
S1130690DF931F92CDB7DEB77C0107E610E0F801C7
S11306A0678141E086810E94FD04F801618541E093
S11306B080850E94FD04F801638541E082850E94E3
S11306C0FD04F801658541E084850E94FD0400E095
S11306D0D12C42C0E7E6F0E06781600F40E08681FC
S11306E00E94FD0410E02DC0E7E6F0E06181610F97
S11306F0AE014F5F5F4F80810E947805898181112F
S11307001FC00AC0E7E6F0E06181610FAE014F5FF0
S11307105F4F80810E9478058981882399F3802F17
S113072090E0FC01EE0FFF1FE80FF91FE855FF4FA3
S1130730E10FF11D8081F7018083DD24D39403C090
S11307401F5F133088F2E7E6F0E06781600F41E055
S113075086810E94FD040F5F043008F4BBCFF1E0F2
S1130760DF1619F08EE4F701808380E00F90DF91AB
S1130770CF911F910F91FF90EF90DF9008951F93F9
S1130780CF93DF93009791F0FC012081233080F414
S113079021812A3078F4EC010E945007182F6881D7
S11307A08D819E810E945209812B05C083E003C084
S11307B083E001C083E0DF91CF911F9108950097FA
S11307C051F0FC012081233040F421812A3038F497
S11307D00E94D907089583E0089583E0089583E093
S11307E00895833018F40E942509089583E008953C
S11307F041E063E081E00E94FD048AE18A95F1F71B
S113080000C040E063E081E00E94FD04089580910F
S1130810C1009091C200A091C300B091C4000196A0
S1130820A11DB11D8093C1009093C200A093C30089
S1130830B093C40008958091C000811114C00E9437
S1130840D20962E082E00E94E30581E08093C00067
S11308501092C1001092C2001092C3001092C40002
S11308600E94BA0908958091C000813009F056C0F1
S11308700E94C4090E94D4098093D9008091C100C8
S11308809091C200A091C300B091C4008093DA009B
S11308909093DB00A093DC00B093DD002091D9009D
S11308A08091DA009091DB00A091DC00B091DD0032
S11308B0BA2FA92F982F8827BC01CD01620F711D73
S11308C0811D911D0E94ED0A2DEC3CE349E654E4A0
S11308D00E947B0A20E030E040E050E40E940E0ACF
S11308E06093BC007093BD008093BE009093BF00E2
S11308F01092DA001092DB001092DC001092DD00FE
S11309001092C1001092C2001092C3001092C40051
S11309101092C00063E082E00E94E305089541E084
S113092063E081E00E94C30440E062E081E00E9451
S1130930C30440E062E081E00E94FD0463E082E0E1
S11309400E94E30580E00E946F0981E00E949E09F5
S11309500E94B2090E94D60908950E94F80360918A
S1130960BC007091BD008091BE009091BF000895BD
S11309700E94CB0908950E946B0608950E94970077
S11309800E94C800FDCF6830A0F581110BC08AB366
S113099050E002C0440F551F6A95E2F7482B4ABB4A
S11309A080E00895813059F487B350E002C0440FC9
S11309B0551F6A95E2F7482B47BB80E008958230C3
S11309C059F484B350E002C0440F551F6A95E2F70E
S11309D0482B44BB80E00895833069F481B350E030
S11309E002C0440F551F6A95E2F7482B41BB80E0D3
S11309F0089581E0089582E00895683008F074C095
S1130A0081111BC0413061F42BB381E090E002C03E
S1130A10880F991F6A95E2F7822B8BBB80E00895BB
S1130A202BB381E090E002C0880F991F6A95E2F72A
S1130A30809582238BBB80E008958130D9F44130C6
S1130A4061F428B381E090E002C0880F991F6A9591
S1130A50E2F7822B88BB80E0089528B381E090E020
S1130A6002C0880F991F6A95E2F78095822388BB9C
S1130A7080E008958230D9F4413061F425B381E0F7
S1130A8090E002C0880F991F6A95E2F7822B85BB1C
S1130A9080E0089525B381E090E002C0880F991F9B
S1130AA06A95E2F78095822385BB80E008958330C0
S1130AB0E9F4413061F422B381E090E002C0880F90
S1130AC0991F6A95E2F7822B82BB80E0089522B3D6
S1130AD081E090E002C0880F991F6A95E2F7809543
S1130AE0822382BB80E0089581E0089582E0089526
S1130AF0683008F064C0811117C079B381E090E0D8
S1130B009C01062E02C0220F331F0A94E2F7872F9E
S1130B1090E08223932302C0969587956A95E2F725
S1130B20FA01808380E008958130B9F476B381E0DE
S1130B3090E09C01062E02C0220F331F0A94E2F7B4
S1130B40872F90E08223932302C0969587956A9518
S1130B50E2F7FA01808380E008958230B9F473B338
S1130B6081E090E09C01062E02C0220F331F0A94FC
S1130B70E2F7872F90E08223932302C0969587950E
S1130B806A95E2F7FA01808380E008958330C9F41E
S1130B9070B381E090E09C01062E02C0220F331F47
S1130BA00A94E2F7872F90E08223932302C096955C
S1130BB087956A95E2F7FA01808380E0089581E0E1
S1130BC0089582E00895833008F078C0643008F016
S1130BD077C0811128C0613071F028F0623099F03B
S1130BE06330C9F06FC085B78E7F85BF85B78D7FB1
S1130BF085BF81E0089585B7816085BF85B78D7F06
S1130C0085BF81E0089585B78E7F85BF85B78260F3
S1130C1085BF81E0089585B7816085BF85B782600F
S1130C2085BF81E00895813081F5613071F028F04D
S1130C30623099F06330C9F020C085B78B7F85BFDF
S1130C4085B7877F85BF81E019C085B7846085BF7C
S1130C5085B7877F85BF81E011C085B78B7F85BF4E
S1130C6085B7886085BF81E009C085B7846085BF8A
S1130C7085B7886085BF81E001C080E09BB790683C
S1130C809BBF9AB790689ABF08958230E9F46230A6
S1130C9019F0633031F00AC084B78F7B84BF81E0E0
S1130CA006C084B7806484BF81E001C080E09BB744
S1130CB090629BBF9AB790629ABF089580E00895AE
S1130CC080E0089580E0089581E008959093CA003B
S1130CD08093C90008959093C8008093C700089535
S1130CE08BB78F7B8BBF08958AB780648ABF8BB71D
S1130CF080648BBF08951F920F920FB60F92112438
S1130D002F933F934F935F936F937F938F939F930F
S1130D10AF93BF93EF93FF93E091C900F091CA00A2
S1130D200995FF91EF91BF91AF919F918F917F9121
S1130D306F915F914F913F912F910F900FBE0F9044
S1130D401F9018951F920F920FB60F9211242F9394
S1130D503F934F935F936F937F938F939F93AF933F
S1130D60BF93EF93FF93E091C500F091C6000995FE
S1130D70FF91EF91BF91AF919F918F917F916F916F
S1130D805F914F913F912F910F900FBE0F901F9045
S1130D9018951F920F920FB60F9211242F933F9321
S1130DA04F935F936F937F938F939F93AF93BF936F
S1130DB0EF93FF93E091C700F091C8000995FF916C
S1130DC0EF91BF91AF919F918F917F916F915F91BF
S1130DD04F913F912F910F900FBE0F901F90189538
S1130DE01F920F920FB60F9211242F933F934F939C
S1130DF05F936F937F938F939F93AF93BF93EF937F
S1130E00FF938091D2009091D300892B41F088B751
S1130E108E7F88BFE091D200F091D3000995FF91B5
S1130E20EF91BF91AF919F918F917F916F915F915E
S1130E304F913F912F910F900FBE0F901F901895D7
S1130E401F920F920FB60F9211242F933F934F933B
S1130E505F936F937F938F939F93AF93BF93EF931E
S1130E60FF938091D0009091D100892B41F088B7F5
S1130E708B7F88BFE091D000F091D1000995FF915C
S1130E80EF91BF91AF919F918F917F916F915F91FE
S1130E904F913F912F910F900FBE0F901F90189577
S1130EA0009709F478C0FC012081233008F075C054
S1130EB031813A3008F073C0213019F120F022302A
S1130EC009F450C06EC012BE13BE1CBEFC012281C8
S1130ED022BF23B7206823BF23B72F7B23BF23B7A9
S1130EE0277F23BF23B72F7E23BF23B72F7D23BFA5
S1130EF08481813009F057C089B7816089BF80E05F
S1130F0008951CBC1DBC1FBC1EBC1BBC1ABCFC0130
S1130F10228133813DBD2CBD2FB528602FBD2FB557
S1130F2024602FBD2FB52E7F2FBD2FB52D7F2FBD54
S1130F302EB52F7E2EBD2EB5277F2EBD2FB52F7B30
S1130F402FBD2FB52F772FBD2FB52F7E2FBD2FB5DA
S1130F502F7D2FBD8481813041F589B7846089BF9D
S1130F6080E0089514BC15BC13BC14BC25B52F7BBC
S1130F7025BD25B5277F25BD25B52F7E25BD25B5E6
S1130F802F7D25BDFC018481813089F489B780647B
S1130F9089BF80E0089583E0089583E0089583E0A5
S1130FA0089583E0089580E0089580E0089580E046
S1130FB00895009709F43BC1DC012C91233008F01B
S1130FC038C11196EC91EA3008F035C1213009F4AA
S1130FD068C020F0223009F4C7C02FC18E2F90E0E2
S1130FE08A30910508F02BC1FC01E65DFF4F0C949B
S1130FF07B0B83B78E7F83BF83B78D7F83BF83B71C
S11310008B7F83BF80E0089583B7816083BF83B7FC
S11310108D7F83BF83B78B7F83BF80E0089583B7C1
S11310208E7F83BF83B7826083BF83B78B7F83BF89
S113103080E0089583B7816083BF83B7826083BFF4
S113104083B78B7F83BF80E0089583B78E7F83BF90
S113105083B78D7F83BF83B7846083BF80E00895A7
S113106083B7816083BF83B78D7F83BF83B7846079
S113107083BF80E0089583B78E7F83BF83B7826088
S113108083BF83B7846083BF80E0089583B78160A2
S113109083BF83B7826083BF83B7846083BF80E0EC
S11310A008958E2F90E08A30910508F0CAC0FC01A3
S11310B0EC5CFF4F0C947B0B8EB58E7F8EBD8EB592
S11310C08D7F8EBD8EB58B7F8EBD80E008958EB5ED
S11310D081608EBD8EB58D7F8EBD8EB58B7F8EBDAE
S11310E080E008958EB58E7F8EBD8EB582608EBDF4
S11310F08EB58B7F8EBD80E008958EB581608EBDE8
S11311008EB582608EBD8EB58B7F8EBD80E00895D6
S11311108EB58E7F8EBD8EB58D7F8EBD8EB584606F
S11311208EBD80E008958EB581608EBD8EB58D7FB5
S11311308EBD8EB584608EBD80E008958EB58E7FA1
S11311408EBD8EB582608EBD8EB584608EBD80E00E
S113115008958EB581608EBD8EB582608EBD8EB5CC
S113116084608EBD80E008958E2F90E088309105D4
S113117008F069C0FC01E25CFF4F0C947B0B85B561
S11311808B7F85BD85B58D7F85BD85B58E7F85BDFE
S113119080E0089585B5846085BD85B58D7F85BD66
S11311A085B58E7F85BD80E0089585B58B7F85BD2F
S11311B085B5826085BD85B58E7F85BD80E0089547
S11311C085B5846085BD85B5826085BD85B58E7F16
S11311D085BD80E0089585B58B7F85BD85B58D7F00
S11311E085BD85B5816085BD80E0089585B5846041
S11311F085BD85B58D7F85BD85B5816085BD80E064
S1131200089585B58B7F85BD85B5826085BD85B51F
S1131210816085BD80E0089585B5846085BD85B510
S1131220826085BD85B5816085BD80E0089583E0D9
S1131230089583E0089583E0089583E0089583E0AA
S1131240089583E0089583E00895833038F581306C
S113125079F018F08230B9F023C083B78E7F83BF52
S113126083B78D7F83BF83B78B7F83BF80E008956F
S11312708EB58E7F8EBD8EB58D7F8EBD8EB58B7FE8
S11312808EBD80E0089585B58B7F85BD85B58D7F46
S113129085BD85B58E7F85BD80E0089583E0089582
S11312A083E008950097A9F06330A8F4613059F001
S11312B020F0623091F083E008959093D3008093FE
S11312C0D20080E008959093D1008093D00080E014
S11312D0089583E0089583E0089580E008958430BC
S11312E048F514BC813071F028F0823099F08330D5
S11312F0C9F022C085B5877F85BD85B58F7B85BD47
S113130080E0089585B5877F85BD85B5806485BDFA
S113131080E0089585B5886085BD85B58F7B85BDE2
S113132080E0089585B5886085BD85B5806485BDF8
S113133080E0089581E0089581E00895883070F494
S11313408093CF009091CE00913051F495B5987F61
S1131350892B95B5892B85BD80E0089581E008959A
S113136080E0089588B7806488BF89B7806489BFA6
S113137080E0089595B58091CF00892B85BD81E0EB
S11313808093CE0080E0089585B5887F85BD109256
S1131390CE0080E00895009721F09093CD008093D3
S11313A0CC00089514BC089584B508958FB780685F
S11313B08FBF08951F920F920FB60F9211242F938F
S11313C03F934F935F936F937F938F939F93AF93C9
S11313D0BF93EF93FF938091CB008F5F8093CB00FB
S11313E090918000891309C0E091CC00F091CD0068
S11313F0309719F01092CB000995FF91EF91BF91AE
S1131400AF919F918F917F916F915F914F913F9198
S11314102F910F900FBE0F901F9018955058BB2717
S1131420AA270E94260A0C94410B0E94330B38F021
S11314300E943A0B20F039F49F3F19F426F40C94DF
S1131440300B0EF4E095E7FB0C942A0BE92F0E9475
S1131450520B58F3BA17620773078407950720F0F5
S113146079F4A6F50C94740B0EF4E0950B2EBA2FB8
S1131470A02D0B01B90190010C01CA01A001112496
S1131480FF27591B99F0593F50F4503E68F11A1642
S1131490F040A22F232F342F4427585FF3CF4695D3
S11314A037952795A795F0405395C9F77EF41F16F5
S11314B0BA0B620B730B840BBAF09150A1F0FF0FBF
S11314C0BB1F661F771F881FC2F70EC0BA0F621FAB
S11314D0731F841F48F4879577956795B795F7959B
S11314E09E3F08F0B0CF9395880F08F09927EE0F30
S11314F09795879508950E948F0A0C94410B0E943A
S11315003A0B58F00E94330B40F029F45F3F29F066
S11315100C942A0B51110C94750B0C94300B0E94F3
S1131520520B68F39923B1F3552391F3951B550B93
S1131530BB27AA2762177307840738F09F5F5F4FA2
S1131540220F331F441FAA1FA9F335D00E2E3AF0E1
S1131550E0E832D091505040E695001CCAF72BD0F9
S1131560FE2F29D0660F771F881FBB1F261737074A
S11315704807AB07B0E809F0BB0B802DBF01FF277C
S113158093585F4F3AF09E3F510578F00C942A0B24
S11315900C94750B5F3FE4F3983ED4F386957795EE
S11315A06795B795F7959F5FC9F7880F911D969535
S11315B0879597F90895E1E0660F771F881FBB1F91
S11315C0621773078407BA0720F0621B730B840B3E
S11315D0BA0BEE1F88F7E0950895E89409C097FBCD
S11315E03EF490958095709561957F4F8F4F9F4FF6
S11315F09923A9F0F92F96E9BB279395F69587953A
S113160077956795B795F111F8CFFAF4BB0F11F4FC
S113161060FF1BC06F5F7F4F8F4F9F4F16C08823A3
S113162011F096E911C0772321F09EE8872F762FD9
S113163005C0662371F096E8862F70E060E02AF01A
S11316409A95660F771F881FDAF7880F9695879506
S113165097F9089597F99F6780E870E060E008952E
S11316609FEF80EC089500240A94161617061806B6
S11316700906089500240A94121613061406050692
S11316800895092E0394000C11F4882352F0BB0F23
S113169040F4BF2B11F460FF04C06F5F7F4F8F4F86
S11316A09F4F089557FD9058440F551F59F05F3FC1
S11316B071F04795880F97FB991F61F09F3F79F070
S11316C087950895121613061406551FF2CF4695F2
S11316D0F1DF08C0161617061806991FF1CF869574
S11316E07105610508940895E894BB276627772758
S11316F0CB0197F90895EE0FFF1F0590F491E02DAB
S10917000994F894FFCFE8
S113170601077CE1016500020002010202020302F4
S11317160402050206028600030403050306030702
S1131726014C656674005269676874004D6F746F86
S1131736722053746F70706564004D4F544F52207D
S1131746696E2049444C45003132333435363738D6
S1071756392A3023D5
S9030000FC
