S01D00004F6273746163616C2061766F6964696E67206361722E7372656317
S11300000C9446000C94AA020C94D1020C94630044
S11300100C9463000C9458030C9463000C946300D8
S11300200C9463000C9428030C9463000C94F80261
S11300300C9463000C9463000C9463000C946300B0
S11300400C9463000C9463000C9463000C946300A0
S11300500C946300350440044B045B0556045B05B3
S113006061046C04770482049804A304AE045D055F
S1130070B9045D05C404CF04DA04E504FB040605F1
S113008011051C05270532053D05480511241FBE31
S1130090CFE5D8E0DEBFCDBF10E0A0E6B0E0E2E9F6
S11300A0FDE002C005900D92A836B107D9F720E013
S11300B0A8E6B0E001C01D92A438B207E1F70E949F
S11300C054010C94C7060C9400000E94DE0080E9E1
S11300D090E00E944C0184EA90E00E94510108954E
S11300E00E94FA0060937B0070937C0080937D00F3
S11300F090937E008FE295E70197F1F700C000002E
S1130100089541E060E081E00E94930183E08A95D4
S1130110F1F7000040E060E081E00E94930108955F
S113012080916D0090916E00A0916F00B09170006D
S11301300196A11DB11D80936D0090936E00A09354
S11301406F00B0937000089580916C00811112C00B
S11301500E94BD0510926D0010926E0010926F0007
S11301601092700062E080E00E940E0281E08093B1
S11301706C00089580916C008130F9F480E690E081
S11301800E9461050E94BF0580937F0080916D00ED
S113019090916E00A0916F00B091700080938000E8
S11301A090938100A0938200B093830082E08093B7
S11301B06C000E94B8050E949F02089541E060E02F
S11301C081E00E94590140E062E083E00E9459010D
S11301D040E062E083E00E94930163E080E00E94DB
S11301E00E0280E690E00E94880380E690E00E9480
S11301F0150408950E94810080916C00823009F0FA
S113020042C010926C0020917F00809180009091F8
S11302108100A0918200B0918300BA2FA92F982F5A
S11302208827BC01CD01620F711D811D911D0E94A3
S113023033062DEC3CE349E654E40E94C105609387
S113024068007093690080936A0090936B00109229
S1130250800010928100109282001092830010920C
S11302606D0010926E0010926F001092700063E0A7
S113027080E00E940E0280E690E00E9415040E9435
S1130280B0050E94A302609168007091690080919A
S11302906A0090916B000895609160000E948E0541
S11302A008950E949A0208950E9465000E947000B9
S11302B0FDCF6830A0F581110BC08AB350E002C0B5
S11302C0440F551F6A95E2F7482B4ABB80E0089516
S11302D0813059F487B350E002C0440F551F6A952A
S11302E0E2F7482B47BB80E00895823059F484B389
S11302F050E002C0440F551F6A95E2F7482B44BBF7
S113030080E00895833069F481B350E002C0440F63
S1130310551F6A95E2F7482B41BB80E0089581E0C0
S1130320089582E00895683008F074C081111BC0FC
S1130330413061F42BB381E090E002C0880F991F33
S11303406A95E2F7822B8BBB80E008952BB381E0A2
S113035090E002C0880F991F6A95E2F78095822386
S11303608BBB80E008958130D9F4413061F428B327
S113037081E090E002C0880F991F6A95E2F7822B12
S113038088BB80E0089528B381E090E002C0880F24
S1130390991F6A95E2F78095822388BB80E00895CF
S11303A08230D9F4413061F425B381E090E002C099
S11303B0880F991F6A95E2F7822B85BB80E0089528
S11303C025B381E090E002C0880F991F6A95E2F797
S11303D08095822385BB80E008958330E9F4413021
S11303E061F422B381E090E002C0880F991F6A95FE
S11303F0E2F7822B82BB80E0089522B381E090E093
S113040002C0880F991F6A95E2F78095822382BB08
S113041080E0089581E0089582E00895833008F033
S113042080C0643008F07FC0811130C0613071F049
S113043028F0623099F06330C9F020C085B78E7F10
S113044085BF85B78D7F85BF81E019C085B7816081
S113045085BF85B78D7F85BF81E011C085B78E7F4D
S113046085BF85B7826085BF81E009C085B781609B
S113047085BF85B7826085BF81E001C080E09BB7FE
S113048090649BBF9AB790649ABF50C0813081F545
S1130490613071F028F0623099F06330C9F020C007
S11304A085B78B7F85BF85B7877F85BF81E019C0FE
S11304B085B7846085BF85B7877F85BF81E011C01C
S11304C085B78B7F85BF85B7886085BF81E009C00C
S11304D085B7846085BF85B7886085BF81E001C02A
S11304E080E09BB790689BBF9AB790689ABF1EC084
S11304F08230D9F4623019F0633031F00AC084B725
S11305008F7B84BF81E006C084B7806484BF81E0B0
S113051001C080E09BB790629BBF9AB790629ABF7C
S113052005C080E003C080E001C081E09FB790680F
S11305309FBF0895909374008093730008958BB7C0
S11305408F7B8BBF08958AB780688ABF8BB780641E
S11305508BBF08951F920F920FB60F9211242F9301
S11305603F934F935F936F937F938F939F93AF9337
S1130570BF93EF93FF93E0917300F091740009959A
S1130580FF91EF91BF91AF919F918F917F916F9167
S11305905F914F913F912F910F900FBE0F901F903D
S11305A018951F920F920FB60F9211242F933F9319
S11305B04F935F936F937F938F939F93AF93BF9367
S11305C0EF93FF93E0917100F09172000995FF9110
S11305D0EF91BF91AF919F918F917F916F915F91B7
S11305E04F913F912F910F900FBE0F901F90189530
S11305F01F920F920FB60F9211242F933F934F9394
S11306005F936F937F938F939F93AF93BF93EF9376
S1130610FF938091790090917A00892B41F088B7FB
S11306208E7F88BFE0917900F0917A000995FF915F
S1130630EF91BF91AF919F918F917F916F915F9156
S11306404F913F912F910F900FBE0F901F901895CF
S11306501F920F920FB60F9211242F933F934F9333
S11306605F936F937F938F939F93AF93BF93EF9316
S1130670FF938091770090917800892B41F088B79F
S11306808B7F88BFE0917700F09178000995FF9106
S1130690EF91BF91AF919F918F917F916F915F91F6
S11306A04F913F912F910F900FBE0F901F9018956F
S11306B01F920F920FB60F9211242F933F934F93D3
S11306C05F936F937F938F939F93AF93BF93EF93B6
S11306D0FF938091750090917600892B41F088B743
S11306E08F7B88BFE0917500F09176000995FF91AA
S11306F0EF91BF91AF919F918F917F916F915F9196
S11307004F913F912F910F900FBE0F901F9018950E
S1130710009709F47CC0FC012081233008F079C0E3
S113072031813A3008F077C0213019F120F02230BD
S113073009F450C072C012BE13BE1CBEFC0122815B
S113074022BF23B7206823BF23B72F7B23BF23B740
S1130750277F23BF23B72F7E23BF23B72F7D23BF3C
S11307608481813009F05BC089B7816089BF80E0F2
S113077008951CBC1DBC1FBC1EBC1BBC1ABCFC01C8
S1130780228133813DBD2CBD2FB528602FBD2FB5EF
S113079024602FBD2FB52E7F2FBD2FB52D7F2FBDEC
S11307A02EB52F7E2EBD2EB5277F2EBD2FB52F7BC8
S11307B02FBD2FB52F772FBD2FB52F7E2FBD2FB572
S11307C02F7D2FBD8481813061F589B7846089BF15
S11307D080E0089514BC15BC13BCFC01228124BD27
S11307E025B5206825BD25B52F7B25BD25B5277FDB
S11307F025BD25B52F7E25BD25B52F7D25BD84813D
S1130800813089F489B7806489BF80E0089583E0EA
S1130810089583E0089583E0089583E0089580E0D7
S1130820089580E0089580E00895009709F43BC19D
S1130830DC012C91233008F038C11196EC91EA3098
S113084008F035C1213009F468C020F0223009F4E1
S1130850C7C02FC18E2F90E08A30910508F02BC1BC
S1130860FC01E65DFF4F0C94C10683B78E7F83BF06
S113087083B78D7F83BF83B78B7F83BF80E0089569
S113088083B7816083BF83B78D7F83BF83B78B7F3B
S113089083BF80E0089583B78E7F83BF83B7826070
S11308A083BF83B78B7F83BF80E0089583B7816064
S11308B083BF83B7826083BF83B78B7F83BF80E0AE
S11308C0089583B78E7F83BF83B78D7F83BF83B73C
S11308D0846083BF80E0089583B7816083BF83B75A
S11308E08D7F83BF83B7846083BF80E0089583B71F
S11308F08E7F83BF83B7826083BF83B7846083BFE7
S113090080E0089583B7816083BF83B7826083BF2B
S113091083B7846083BF80E008958E2F90E08A308F
S1130920910508F0CAC0FC01EC5CFF4F0C94C106B1
S11309308EB58E7F8EBD8EB58D7F8EBD8EB58B7F31
S11309408EBD80E008958EB581608EBD8EB58D7F9D
S11309508EBD8EB58B7F8EBD80E008958EB58E7F63
S11309608EBD8EB582608EBD8EB58B7F8EBD80E0D0
S113097008958EB581608EBD8EB582608EBD8EB5B4
S11309808B7F8EBD80E008958EB58E7F8EBD8EB533
S11309908D7F8EBD8EB584608EBD80E008958EB54A
S11309A081608EBD8EB58D7F8EBD8EB584608EBD0B
S11309B080E008958EB58E7F8EBD8EB582608EBD2B
S11309C08EB584608EBD80E008958EB581608EBD45
S11309D08EB582608EBD8EB584608EBD80E0089534
S11309E08E2F90E08830910508F069C0FC01E25C2C
S11309F0FF4F0C94C10685B58B7F85BD85B58D7F72
S1130A0085BD85B58E7F85BD80E0089585B58460FC
S1130A1085BD85B58D7F85BD85B58E7F85BD80E01F
S1130A20089585B58B7F85BD85B5826085BD85B507
S1130A308E7F85BD80E0089585B5846085BD85B5CC
S1130A40826085BD85B58E7F85BD80E0089585B5BE
S1130A508B7F85BD85B58D7F85BD85B5816085BD61
S1130A6080E0089585B5846085BD85B58D7F85BD9D
S1130A7085B5816085BD80E0089585B58B7F85BD92
S1130A8085B5826085BD85B5816085BD80E00895AA
S1130A9085B5846085BD85B5826085BD85B5816079
S1130AA085BD80E0089583E0089583E0089583E0A0
S1130AB0089583E0089583E0089583E0089583E032
S1130AC00895833038F5813079F018F08230B9F028
S1130AD023C083B78E7F83BF83B78D7F83BF83B7E4
S1130AE08B7F83BF80E008958EB58E7F8EBD8EB5DB
S1130AF08D7F8EBD8EB58B7F8EBD80E0089585B5CC
S1130B008B7F85BD85B58D7F85BD85B58E7F85BD84
S1130B1080E0089583E0089583E008950097D1F07C
S1130B206330D0F4613051F018F0623069F016C0CF
S1130B3090937A008093790080E0089590937800F0
S1130B408093770080E008959093760080937500F9
S1130B5080E0089583E0089583E0089583E0089594
S1130B6088B7806488BF89B7806489BF80E00895AE
S1130B7089B78F7B89BF80E0089514BC089584B53C
S1130B8008950E94D5050C9487060E94800658F0AB
S1130B900E94790640F029F45F3F29F00C94700616
S1130BA051110C94BB060C9476060E94980668F3C7
S1130BB09923B1F3552391F3951B550BBB27AA2712
S1130BC062177307840738F09F5F5F4F220F331F4C
S1130BD0441FAA1FA9F335D00E2E3AF0E0E832D014
S1130BE091505040E695001CCAF72BD0FE2F29D017
S1130BF0660F771F881FBB1F261737074807AB07E9
S1130C00B0E809F0BB0B802DBF01FF2793585F4F5D
S1130C103AF09E3F510578F00C9470060C94BB0694
S1130C205F3FE4F3983ED4F3869577956795B7953F
S1130C30F7959F5FC9F7880F911D9695879597F94A
S1130C400895E1E0660F771F881FBB1F62177307C3
S1130C508407BA0720F0621B730B840BBA0BEE1FD8
S1130C6088F7E0950895E89409C097FB3EF49095C1
S1130C708095709561957F4F8F4F9F4F9923A9F071
S1130C80F92F96E9BB279395F69587957795679500
S1130C90B795F111F8CFFAF4BB0F11F460FF1BC044
S1130CA06F5F7F4F8F4F9F4F16C0882311F096E9D7
S1130CB011C0772321F09EE8872F762F05C0662385
S1130CC071F096E8862F70E060E02AF09A95660F3E
S1130CD0771F881FDAF7880F9695879597F90895F7
S1130CE097F99F6780E870E060E008959FEF80ECDB
S1130CF0089500240A94161617061806090608957E
S1130D0000240A9412161306140605060895092EE3
S1130D100394000C11F4882352F0BB0F40F4BF2B52
S1130D2011F460FF04C06F5F7F4F8F4F9F4F089592
S1130D3057FD9058440F551F59F05F3F71F0479588
S1130D40880F97FB991F61F09F3F79F0879508956D
S1130D50121613061406551FF2CF4695F1DF08C08C
S1130D60161617061806991FF1CF869571056105A9
S1130D7008940895E894BB2766277727CB0197F951
S1130D800895EE0FFF1F0590F491E02D0994F89457
S1050D90FFCF8F
S10B0D92020100000100000051
S9030000FC
