:100000000C9446000C94160A0C943D0A0C94640A55
:100010000C9463000C94A20D0C9463000C94630088
:100020000C9463000C94BB0A0C9463000C948B0A30
:100030000C9463000C9463000C9463000C946300B4
:100040000C9463000C9463000C9463000C946300A4
:100050000C946300940B9F0BAA0BBA0CB50BBA0C53
:10006000C00BCB0BD60BE10BF70B020C0D0CBC0C31
:10007000180CBC0C230C2E0C390C440C5A0C650CBF
:10008000700C7B0C860C910C9C0CA70C11241FBED1
:10009000CFE5D8E0DEBFCDBF11E0A0E6B0E0E0E301
:1000A000FFE102C005900D92AC31B107D9F721E014
:1000B000ACE1B1E001C01D92AB34B207E1F70E94A0
:1000C00054080C94960F0C94000090911E0181E04E
:1000D000892780931E01089580911F018F5F80936F
:1000E0001F0180E690E00E947A0708950E941D0893
:1000F0000E9437080E947A0487E690E00E94C005BB
:1001000063E080E00E94DC0380E690E00E9441070B
:100110000E94E4060E9464038BE997E00E944E0867
:100120008FEA97E00E94510885E690E00E94F20372
:1001300008950E943E0810921F0180E690E00E9400
:1001400061070E94FD031DC080911E01813079F47A
:1001500064E00E946C0580E20E94DB0460E081E0C4
:100160000E946C058DE890E00E9484050AC0811110
:1001700008C060E081E00E946C0582E990E00E9486
:10018000840580911F018330F8F20E94550580910B
:1001900060000E9473070E94FA030E9437082FEF45
:1001A00083ED90E3215080409040E1F700C00000D3
:1001B0000895CF92DF92EF92FF9281E491E00E9446
:1001C000FD05809141018E3459F0813319F082335D
:1001D00021F006C01092750003C081E08093750085
:1001E0008091750081112CC280911D01811110C078
:1001F0000E94550560E080E00E946C0588E990E06F
:100200000E9484050E94990081E080931D0166C0D0
:10021000813009F063C00E944308609342017093EB
:10022000430180934401909345018FE295E7019744
:10023000F1F700C00000C0904201D0904301E0906F
:100240004401F090450120E030E04CE852E4C70161
:10025000B6010E942E0F181624F481E080931C0131
:100260003DC020E030E040EF51E4C701B6010E94FC
:100270002E0F181674F420E030E04CE852E4C70169
:10028000B6010E94D60D181624F082E080931C015E
:1002900025C020E030E040EA51E4C701B6010E94E9
:1002A0002E0F882374F020E030E040EF51E4C701C6
:1002B000B6010E94D60D181624F083E080931C012D
:1002C0000DC020E030E040EA51E4C701B6010E94D1
:1002D000D60D88231CF484E080931C0180911C01BE
:1002E000813009F050C060E00E946C0586EA90E021
:1002F0000E94840560914201709143018091440104
:10030000909145010E944D0E0E94A1058DEA90E05A
:100310000E94840510921F0180E690E00E94610710
:1003200011C060E080E00E946C0581EB90E00E94CB
:1003300084058CEB90E00E94840540E064E18EE14E
:100340000E94F30680911F01863020F480912001E5
:10035000882339F381E080932001809160000E941E
:10036000730760E080E00E946C0582EC90E00E94E0
:1003700084058CEB90E00E94840540E064E182E318
:100380000E94F3069CC1823061F51092200160E06A
:1003900081E00E946C0586EA90E00E9484056091ED
:1003A00042017091430180914401909145010E9466
:1003B0004D0E0E94A1058DEA90E00E94840560E048
:1003C00080E00E946C0581EB90E00E9484058CEB3C
:1003D00090E00E94840540E064E18EE10E94F30613
:1003E0006EC1833009F0B3C01092200160E081E05B
:1003F0000E946C0586EA90E00E94840560914201AB
:100400007091430180914401909145010E944D0EED
:100410000E94A1058DEA90E00E94840560E080E0E2
:100420000E946C058DEC90E00E94840586ED90E0C2
:100430000E9484050E94C8039FEF24E38CE0915042
:1004400020408040E1F700C0000060E080E00E94B2
:100450006C058CED90E00E94840587EE90E00E9490
:10046000840563C080917600853040F580911E013F
:10047000813089F40E94B4039FEF29E688E191500E
:1004800020408040E1F700C00000809176008F5F3F
:100490008093760017C0811115C00E94A0039FEFC2
:1004A00029E688E1915020408040E1F700C000003B
:1004B000809176008F5F8093760004C082E0809305
:1004C0007500FDC00E944308609342017093430190
:1004D000809344019093450160E081E00E946C05A7
:1004E00086EA90E00E948405609142017091430188
:1004F00080914401909145010E944D0E0E94A105FA
:100500008DEA90E00E948405609142017091430160
:10051000809144019091450120E030E040EA51E4AF
:100520000E94D60D18160CF0CAC06091420170915D
:100530004301809144019091450120E030E040EF7B
:1005400051E40E94D60D18160CF08CCFB8C0843040
:1005500009F0B5C01092200160E081E00E946C05B6
:1005600086EA90E00E948405609142017091430107
:1005700080914401909145010E944D0E0E94A10579
:100580008DEA90E00E94840560E080E00E946C05A6
:1005900081EB90E00E94840586ED90E00E94840546
:1005A0000E94C8039FEF24E38CE0915020408040DC
:1005B000E1F700C0000060E080E00E946C0581EB84
:1005C00090E00E9484058DEE90E00E94840527C093
:1005D00041E064E18EE10E94F3060E9443086093CB
:1005E000420170934301809344019093450160E080
:1005F00081E00E946C0586EA90E00E94840560918B
:1006000042017091430180914401909145010E9403
:100610004D0E0E94A1058DEA90E00E948405609134
:10062000420170914301809144019091450120E085
:1006300030E040EA51E40E94D60D18164CF63FC057
:100640008130B1F480912201811109C00E945505C9
:100650001092230181E0809322011092210160E039
:1006600080E00E946C0583EF90E00E94840527C023
:10067000823081F40E94C8039FEF2DE389E49150FA
:1006800020408040E1F700C00000109276001092F8
:10069000750015C080912301811109C00E94550584
:1006A00081E080932301109222011092210160E0E9
:1006B00080E00E946C0581E091E00E948405FF903B
:1006C000EF90DF90CF900895CF938AE790E00E945B
:1006D0007A06C82F87E790E00E947A06C11103C00E
:1006E000811103C003C08BE001C08BE0CF9108955E
:1006F000CF938AE790E00E949206C82F87E790E0A8
:100700000E949206C11103C0811103C003C08BE097
:1007100001C08BE0CF910895CF938AE790E00E94CB
:10072000AA06C82F87E790E00E94AA06C11103C05D
:10073000811103C003C08BE001C08BE0CF9108950D
:10074000CF938AE790E00E949206C82F87E790E057
:100750000E94AA06C11103C0811103C003C08BE02F
:1007600001C08BE0CF910895CF938AE790E00E947B
:100770009206C82F87E790E00E94AA06811103C065
:10078000C11103C003C08BE001C08BE0CF9108957D
:10079000CF938AE790E00E94C206C82F87E790E0D7
:1007A0000E94C206C11103C0811103C003C08BE0C7
:1007B00001C08BE0CF910895CF93DF93C82FD62F40
:1007C00040E062E083E00E94590840E062E083E09C
:1007D0000E9493086D2F8C2F0E94790980E0DF9191
:1007E000CF910895009721F00E94F60980E00895C6
:1007F00085E008950E94000A08950E94040A089561
:100800000F931F93CF93DF93182F40E060E083E0B6
:100810000E949308C82F40E067E082E00E9493089E
:10082000C82B012F02950F70D0E015C0ED2FF0E01E
:10083000402F50E00D2E02C0559547950A94E2F7DF
:100840004170EE0FFF1FE358FF4F618180810E94CE
:100850009308C82BDF5FD43048F341E061E083E0C8
:100860000E949308C82B89EF90E00197F1F700C030
:10087000000040E061E083E00E949308C82B92E40E
:100880009A95F1F700C01F70D0E015C0ED2FF0E091
:10089000412F50E00D2E02C0559547950A94E2F77E
:1008A0004170EE0FFF1FE358FF4F618180810E946E
:1008B0009308C82BDF5FD43048F341E061E083E068
:1008C0000E949308C82BE9EFF0E03197F1F700C0E0
:1008D000000040E061E083E00E9493088C2BE3EF8E
:1008E000F1E03197F1F700C00000DF91CF911F9147
:1008F0000F910895CF93DF93D0E0C0E00DC0ED2FAE
:10090000F0E0EE0FFF1FE358FF4F41E0618180816F
:100910000E945908C82BDF5FD43088F341E067E0BC
:1009200082E00E945908C82B41E060E083E00E9409
:100930005908C82B41E061E083E00E945908C82BA8
:100940008FE097E20197F1F700C0000082E00E947B
:100950000004C82BE9EFF0E03197F1F700C0000088
:1009600088E20E940004C82B89EF90E00197F1F71C
:1009700000C0000081E00E940004C82BE7EEF3E015
:100980003197F1F700C0000086E00E940004C82BF8
:1009900089EF90E00197F1F700C000008CE00E9421
:1009A00000048C2BE9EFF0E03197F1F700C0000074
:1009B000DF91CF9108950F931F93CF93DF93182F5B
:1009C00040E060E083E00E949308C82F41E067E0C8
:1009D00082E00E949308C82B012F02950F70D0E08F
:1009E00015C0ED2FF0E0402F50E00D2E02C05595C0
:1009F00047950A94E2F74170EE0FFF1FE358FF4F4F
:100A0000618180810E949308C82BDF5FD43048F356
:100A100041E061E083E00E949308C82B89EF90E0F9
:100A20000197F1F700C0000040E061E083E00E9420
:100A30009308C82B92E49A95F1F700C01F70D0E09C
:100A400015C0ED2FF0E0412F50E00D2E02C055955E
:100A500047950A94E2F74170EE0FFF1FE358FF4FEE
:100A6000618180810E949308C82BDF5FD43048F3F6
:100A700041E061E083E00E949308C82BE9EFF0E0D9
:100A80003197F1F700C0000040E061E083E00E9490
:100A900093088C2BE3EFF1E03197F1F700C00000F1
:100AA000DF91CF911F910F910895CF9381E00E9424
:100AB0000004C82F87EE93E00197F1F700C0000013
:100AC00082E00E9400048C2BE7EEF3E03197F1F70F
:100AD00000C00000CF910895811108C0603130F44A
:100AE000862F8F7080680E9400040895813041F441
:100AF000603140F4862F8F70806C0E94000408954E
:100B000088E0089588E00895EF92FF921F93CF93B5
:100B1000DF937C01FC018081C0E0D0E010E008C0E0
:100B20000E94DB04182B2196F701EC0FFD1F80813A
:100B30008111F6CF812FDF91CF911F91FF90EF9020
:100B40000895CF93DF93CDB7DEB72A970FB6F89409
:100B5000DEBF0FBECDBFDC01CB014AE0BE016F5F3F
:100B60007F4F0E94610FCE0101960E9484052A9654
:100B70000FB6F894DEBF0FBECDBFDF91CF910895C1
:100B8000CF93DF930097A9F1EC01698140E0888160
:100B90000E9459086B8140E08A810E9459086D814A
:100BA00040E08C810E945908698141E088810E945F
:100BB00093086B8141E08A810E9493086D8141E036
:100BC0008C810E9493086F8141E08E810E945908B8
:100BD000698541E088850E9459086B8541E08A85D6
:100BE0000E9459086D8541E08C850E94590880E07B
:100BF00001C087E0DF91CF910895DF92EF92FF92DD
:100C00000F931F93CF93DF931F92CDB7DEB77C0175
:100C100007E610E0F801678141E086810E949308B1
:100C2000F801618541E080850E949308F8016385A1
:100C300041E082850E949308F801658541E0848542
:100C40000E94930800E0D12C42C0E7E6F0E0678103
:100C5000600F40E086810E94930810E02DC0E7E617
:100C6000F0E06181610FAE014F5F5F4F80810E94B4
:100C70000E09898181111FC00AC0E7E6F0E0618199
:100C8000610FAE014F5F5F4F80810E940E09898125
:100C9000882399F3802F90E0FC01EE0FFF1FE80FEF
:100CA000F91FE15FFE4FE10FF11D8081F7018083A5
:100CB000DD24D39403C01F5F133088F2E7E6F0E031
:100CC0006781600F41E086810E9493080F5F0430C6
:100CD00008F4BBCFF1E0DF1619F08EE4F701808352
:100CE00080E00F90DF91CF911F910F91FF90EF90D7
:100CF000DF900895CF93DF93EC0141E06981888113
:100D00000E945908811108C041E06A8188810E94CF
:100D10005908811103C003C089E001C089E0DF9157
:100D2000CF910895CF93DF93EC0141E069818881F1
:100D30000E949308811108C040E06A8188810E9466
:100D40009308811103C003C089E001C089E0DF91ED
:100D5000CF910895CF93DF93EC0140E069818881C2
:100D60000E949308811108C041E06A8188810E9435
:100D70009308811103C003C089E001C089E0DF91BD
:100D8000CF910895CF93DF93EC0140E06981888192
:100D90000E949308811108C040E06A8188810E9406
:100DA0009308811103C003C089E001C089E0DF918D
:100DB000CF910895809127018F5F8093270185E867
:100DC00090E00E947A070895CF9385E890E00E9412
:100DD0004107C82F0E9464038C2B19F491E0909373
:100DE0002801CF910895FF920F931F93CF93DF9324
:100DF000909128019923E9F1923069F490912601AC
:100E0000981307C090912501961303C09091240177
:100E1000941310922701D42FC62F689FC00111246C
:100E200064E670E00E94330F062F85E890E00E9490
:100E30006107182F80912701801760F4D11104C039
:100E40000E947803182B0BC0D13049F40E948C0308
:100E5000182B05C08C1718F40E94C803182B82E0C9
:100E60008093280100932601C0932501D09324018B
:100E700001C01AE0812FDF91CF911F910F91FF9058
:100E800008951F93CF93DF93009791F0FC01208189
:100E9000233080F421812A3078F4EC010E94EB0A9F
:100EA000182F68818D819E810E94150D812B05C0B0
:100EB00083E003C083E001C083E0DF91CF911F9105
:100EC0000895009751F0FC012081233040F42181E6
:100ED0002A3038F40E94740B089583E0089583E06B
:100EE000089583E00895833018F40E94C00C08959B
:100EF00083E00895009751F0FC012081233040F4F5
:100F000021812A3038F40E94ED0C089583E0089581
:100F100083E0089583E0089541E063E081E00E946A
:100F200093088AE18A95F1F700C040E063E081E030
:100F30000E949308089580912E0190912F01A09115
:100F40003001B09131010196A11DB11D80932E0198
:100F500090932F01A0933001B093310108958091B7
:100F60002D01811114C00E949A0D62E082E00E945E
:100F7000790981E080932D0110922E0110922F01AA
:100F800010923001109231010E94820D08958091DB
:100F90002D01813009F050C00E948C0D0E949C0DE3
:100FA0008093460180912E0190912F01A0913001F4
:100FB000B09131018093470190934801A09349017A
:100FC000B0934A01209146018091470190914801D8
:100FD000A0914901B0914A01BA2FA92F982F8827D3
:100FE000BC01CD01620F711D811D911D0E947C0EFF
:100FF0002DEC3CE349E654E40E94DB0D60932901AB
:1010000070932A0180932B0190932C011092470139
:10101000109248011092490110924A0110922E013B
:1010200010922F01109230011092310110922D0177
:1010300063E082E00E947909089541E063E081E085
:101040000E94590840E062E081E00E94590840E0B7
:1010500062E081E00E94930863E082E00E947909E7
:1010600080E00E94320D81E00E94610D08950E948F
:10107000750D0E940F0A0E949E0D08950E947D0D1D
:101080000E940B0A08950E948C07609129017091BB
:101090002A0180912B0190912C0108950E94930DBB
:1010A00008950E94FB0908950E9476000E94D900CD
:1010B000FDCF6830A0F581110BC08AB350E002C0AB
:1010C000440F551F6A95E2F7482B4ABB80E008950C
:1010D000813059F487B350E002C0440F551F6A9520
:1010E000E2F7482B47BB80E00895823059F484B37F
:1010F00050E002C0440F551F6A95E2F7482B44BBED
:1011000080E00895833069F481B350E002C0440F59
:10111000551F6A95E2F7482B41BB80E0089581E0B6
:10112000089582E00895683008F074C081111BC0F2
:10113000413061F42BB381E090E002C0880F991F29
:101140006A95E2F7822B8BBB80E008952BB381E098
:1011500090E002C0880F991F6A95E2F7809582237C
:101160008BBB80E008958130D9F4413061F428B31D
:1011700081E090E002C0880F991F6A95E2F7822B08
:1011800088BB80E0089528B381E090E002C0880F1A
:10119000991F6A95E2F78095822388BB80E00895C5
:1011A0008230D9F4413061F425B381E090E002C08F
:1011B000880F991F6A95E2F7822B85BB80E008951E
:1011C00025B381E090E002C0880F991F6A95E2F78D
:1011D0008095822385BB80E008958330E9F4413017
:1011E00061F422B381E090E002C0880F991F6A95F4
:1011F000E2F7822B82BB80E0089522B381E090E089
:1012000002C0880F991F6A95E2F78095822382BBFE
:1012100080E0089581E0089582E00895683008F044
:1012200064C0811117C079B381E090E09C01062E63
:1012300002C0220F331F0A94E2F7872F90E0822327
:10124000932302C0969587956A95E2F7FA01808309
:1012500080E008958130B9F476B381E090E09C019C
:10126000062E02C0220F331F0A94E2F7872F90E068
:101270008223932302C0969587956A95E2F7FA0137
:10128000808380E008958230B9F473B381E090E008
:101290009C01062E02C0220F331F0A94E2F7872F0B
:1012A00090E08223932302C0969587956A95E2F792
:1012B000FA01808380E008958330C9F470B381E03F
:1012C00090E09C01062E02C0220F331F0A94E2F721
:1012D000872F90E08223932302C0969587956A9585
:1012E000E2F7FA01808380E0089581E0089582E0CA
:1012F0000895833008F070C0643008F06FC0811129
:1013000028C0613071F028F0623099F06330C9F084
:1013100067C085B78E7F85BF85B78D7F85BF80E02D
:10132000089585B7816085BF85B78D7F85BF80E0D3
:10133000089585B78E7F85BF85B7826085BF80E0C1
:10134000089585B7816085BF85B7826085BF80E0DD
:101350000895813081F5613071F028F0623099F0A4
:101360006330C9F020C085B78B7F85BF85B7877F85
:1013700085BF80E019C085B7846085BF85B7877F4A
:1013800085BF80E011C085B78B7F85BF85B788603A
:1013900085BF80E009C085B7846085BF85B7886058
:1013A00085BF80E001C084E09BB790689BBF9AB77F
:1013B00090689ABF08958230A9F4623019F06330C2
:1013C00031F012C084B78F7B84BF80E0089584B76A
:1013D000806484BF80E0089584E0089584E00895E7
:1013E00084E0089580E0089584E0089590933701A3
:1013F00080933601089590933501809334010895C8
:101400008BB78F7B8BBF08958AB780648ABF8BB7F9
:1014100080648BBF08958BB78F7D8BBF08958BB78A
:1014200080628BBF8AB780628ABF08951F920F9235
:101430000FB60F9211242F933F934F935F936F93A7
:101440007F938F939F93AF93BF93EF93FF93E0911D
:101450003601F09137010995FF91EF91BF91AF915E
:101460009F918F917F916F915F914F913F912F91BC
:101470000F900FBE0F901F9018951F920F920FB6EE
:101480000F9211242F933F934F935F936F937F930A
:101490008F939F93AF93BF93EF93FF93E0913201AC
:1014A000F09133010995FF91EF91BF91AF919F9119
:1014B0008F917F916F915F914F913F912F910F90FD
:1014C0000FBE0F901F9018951F920F920FB60F929C
:1014D00011242F933F934F935F936F937F938F9339
:1014E0009F93AF93BF93EF93FF93E0913401F091FB
:1014F00035010995FF91EF91BF91AF919F918F9128
:101500007F916F915F914F913F912F910F900FBEFF
:101510000F901F9018951F920F920FB60F921124E3
:101520002F933F934F935F936F937F938F939F93EB
:10153000AF93BF93EF93FF9380913F019091400150
:10154000892B41F088B78E7F88BFE0913F01F091F1
:1015500040010995FF91EF91BF91AF919F918F91BC
:101560007F916F915F914F913F912F910F900FBE9F
:101570000F901F9018951F920F920FB60F92112483
:101580002F933F934F935F936F937F938F939F938B
:10159000AF93BF93EF93FF9380913D0190913E01F4
:1015A000892B41F088B78B7F88BFE0913D01F09196
:1015B0003E010995FF91EF91BF91AF919F918F915E
:1015C0007F916F915F914F913F912F910F900FBE3F
:1015D0000F901F901895009709F478C0FC012081A6
:1015E000233008F075C031813A3008F073C02130E3
:1015F00019F120F0223009F450C06EC012BE13BEA3
:101600001CBEFC01228122BF23B7206823BF23B761
:101610002F7B23BF23B7277F23BF23B72F7E23BF73
:1016200023B72F7D23BF8481813009F057C089B74C
:10163000816089BF80E008951CBC1DBC1FBC1EBC1E
:101640001BBC1ABCFC01228133813DBD2CBD2FB5D2
:1016500028602FBD2FB524602FBD2FB52E7F2FBD45
:101660002FB52D7F2FBD2EB52F7E2EBD2EB5277FFA
:101670002EBD2FB52F7B2FBD2FB52F772FBD2FB5AB
:101680002F7E2FBD2FB52F7D2FBD8481813041F559
:1016900089B7846089BF80E0089514BC15BC13BC71
:1016A00014BC25B52F7B25BD25B5277F25BD25B5C8
:1016B0002F7E25BD25B52F7D25BDFC018481813080
:1016C00089F489B7806489BF80E0089583E0089534
:1016D00083E0089583E0089583E0089580E008950D
:1016E00080E0089580E00895009709F43BC1DC0193
:1016F0002C91233008F038C11196EC91EA3008F0B3
:1017000035C1213009F468C020F0223009F4C7C087
:101710002FC18E2F90E08A30910508F02BC1FC017B
:10172000E65DFF4F0C94470F83B78E7F83BF83B76F
:101730008D7F83BF83B78B7F83BF80E0089583B79E
:10174000816083BF83B78D7F83BF83B78B7F83BF68
:1017500080E0089583B78E7F83BF83B7826083BFA5
:1017600083B78B7F83BF80E0089583B7816083BF99
:1017700083B7826083BF83B78B7F83BF80E0089588
:1017800083B78E7F83BF83B78D7F83BF83B784602A
:1017900083BF80E0089583B7816083BF83B78D7F67
:1017A00083BF83B7846083BF80E0089583B78E7F53
:1017B00083BF83B7826083BF83B7846083BF80E0C9
:1017C000089583B7816083BF83B7826083BF83B787
:1017D000846083BF80E008958E2F90E08A30910569
:1017E00008F0CAC0FC01EC5CFF4F0C94470F8EB5AB
:1017F0008E7F8EBD8EB58D7F8EBD8EB58B7F8EBD5F
:1018000080E008958EB581608EBD8EB58D7F8EBDD2
:101810008EB58B7F8EBD80E008958EB58E7F8EBD98
:101820008EB582608EBD8EB58B7F8EBD80E00895B3
:101830008EB581608EBD8EB582608EBD8EB58B7F7C
:101840008EBD80E008958EB58E7F8EBD8EB58D7F66
:101850008EBD8EB584608EBD80E008958EB58160AA
:101860008EBD8EB58D7F8EBD8EB584608EBD80E0C1
:1018700008958EB58E7F8EBD8EB582608EBD8EB57D
:1018800084608EBD80E008958EB581608EBD8EB57A
:1018900082608EBD8EB584608EBD80E008958E2FEF
:1018A00090E08830910508F069C0FC01E25CFF4FD0
:1018B0000C94470F85B58B7F85BD85B58D7F85BD24
:1018C00085B58E7F85BD80E0089585B5846085BD32
:1018D00085B58D7F85BD85B58E7F85BD80E00895FA
:1018E00085B58B7F85BD85B5826085BD85B58E7FCD
:1018F00085BD80E0089585B5846085BD85B582602D
:1019000085BD85B58E7F85BD80E0089585B58B7FCB
:1019100085BD85B58D7F85BD85B5816085BD80E040
:10192000089585B5846085BD85B58D7F85BD85B5F8
:10193000816085BD80E0089585B58B7F85BD85B5C7
:10194000826085BD85B5816085BD80E0089585B5DF
:10195000846085BD85B5826085BD85B5816085BDA6
:1019600080E0089583E0089583E0089583E008957A
:1019700083E0089583E0089583E0089583E0089567
:10198000833038F5813079F018F08230B9F023C017
:1019900083B78E7F83BF83B78D7F83BF83B78B7FF2
:1019A00083BF80E008958EB58E7F8EBD8EB58D7F0E
:1019B0008EBD8EB58B7F8EBD80E0089585B58B7F03
:1019C00085BD85B58D7F85BD85B58E7F85BD80E064
:1019D000089583E0089583E008950097F1F0FC01F5
:1019E00020812330E0F431813A30D8F4213049F0BD
:1019F00018F0223069F017C0FC01828182BF80E0BC
:101A00000895FC01828193819DBD8CBD80E0089585
:101A1000FC01828184BD80E0089583E0089583E025
:101A2000089583E0089583E008950097A9F0633056
:101A3000A8F4613059F020F0623091F083E008950D
:101A40009093400180933F0180E0089590933E0180
:101A500080933D0180E0089583E0089583E0089538
:101A600080E00895843048F514BC813071F028F08E
:101A7000823099F08330C9F022C085B5877F85BD5B
:101A800085B58F7B85BD80E0089585B5877F85BD51
:101A900085B5806485BD80E0089585B5886085BD85
:101AA00085B58F7B85BD80E0089585B5886085BD4F
:101AB00085B5806485BD80E0089581E0089581E06A
:101AC0000895883070F480933C0190913B019130EF
:101AD00051F495B5987F892B95B5892B85BD80E00C
:101AE000089581E0089580E0089588B7806488BFF4
:101AF00089B7806489BF80E0089589B78F7B89BFEB
:101B000080E0089595B580913C01892B85BD81E0E9
:101B100080933B0180E0089585B5887F85BD109254
:101B20003B0180E00895009721F090933A01809363
:101B30003901089514BC089584B508958FB780685D
:101B40008FBF08951F920F920FB60F9211242F93FB
:101B50003F934F935F936F937F938F939F93AF9335
:101B6000BF93EF93FF93809138018F5F809338018B
:101B700090918C00891309C0E0913901F0913A01EC
:101B8000309719F0109238010995FF91EF91BF91AC
:101B9000AF919F918F917F916F915F914F913F9105
:101BA0002F910F900FBE0F901F9018950E94B90EA5
:101BB00008F481E008950E94EF0D0C94F40E0E9449
:101BC000ED0E58F00E94E60E40F029F45F3F29F038
:101BD0000C94DD0E51110C94280F0C94E30E0E940E
:101BE000050F68F39923B1F3552391F3951B550B1A
:101BF000BB27AA2762177307840738F09F5F5F4FE0
:101C0000220F331F441FAA1FA9F335D00E2E3AF01E
:101C1000E0E832D091505040E695001CCAF72BD036
:101C2000FE2F29D0660F771F881FBB1F2617370787
:101C30004807AB07B0E809F0BB0B802DBF01FF27B9
:101C400093585F4F3AF09E3F510578F00C94DD0EAB
:101C50000C94280F5F3FE4F3983ED4F38695779574
:101C60006795B795F7959F5FC9F7880F911D969572
:101C7000879597F90895E1E0660F771F881FBB1FCE
:101C8000621773078407BA0720F0621B730B840B7B
:101C9000BA0BEE1F88F7E09508950E940D0F88F0AB
:101CA0009F5798F0B92F9927B751B0F0E1F0660F20
:101CB000771F881F991F1AF0BA95C9F714C0B13061
:101CC00091F00E94270FB1E008950C94270F672F21
:101CD000782F8827B85F39F0B93FCCF38695779590
:101CE0006795B395D9F73EF4909580957095619579
:101CF0007F4F8F4F9F4F0895E89409C097FB3EF4A4
:101D000090958095709561957F4F8F4F9F4F992348
:101D1000A9F0F92F96E9BB279395F69587957795C6
:101D20006795B795F111F8CFFAF4BB0F11F460FF86
:101D30001BC06F5F7F4F8F4F9F4F16C0882311F0DE
:101D400096E911C0772321F09EE8872F762F05C0F2
:101D5000662371F096E8862F70E060E02AF09A958D
:101D6000660F771F881FDAF7880F9695879597F982
:101D70000895990F0008550FAA0BE0E8FEEF16161C
:101D80001706E807F907C0F012161306E407F5076F
:101D900098F0621B730B840B950B39F40A2661F0E3
:101DA000232B242B252B21F408950A2609F4A14086
:101DB000A6958FEF811D811D089597F99F6780E893
:101DC00070E060E008959FEF80EC089500240A948D
:101DD0001616170618060906089500240A94121606
:101DE0001306140605060895092E0394000C11F439
:101DF000882352F0BB0F40F4BF2B11F460FF04C0E6
:101E00006F5F7F4F8F4F9F4F089557FD9058440F3E
:101E1000551F59F05F3F71F04795880F97FB991F49
:101E200061F09F3F79F08795089512161306140606
:101E3000551FF2CF4695F1DF08C016161706180693
:101E4000991FF1CF86957105610508940895E8946E
:101E5000BB2766277727CB0197F908950E94B90E13
:101E600008F48FEF089597FB072E16F4009407D01F
:101E700077FD09D00E944D0F07FC05D03EF49095E8
:101E800081959F4F0895709561957F4F0895EE0F4E
:101E9000FF1F0590F491E02D0994AA1BBB1B51E193
:101EA00007C0AA1FBB1FA617B70710F0A61BB70BCA
:101EB000881F991F5A95A9F780959095BC01CD016F
:101EC0000895BB274A3031F4992322F4BDE290955E
:101ED00081959F4F0C946D0FBB27FB015527AA27B7
:101EE000880F991FAA1FA41710F0A41B83955051A7
:101EF000B9F7A05DAA3308F0A95DA193009779F71F
:101F0000B111B1931192CB010C94860FDC01FC014D
:101F1000672F71917723E1F7329704C07C916D931D
:101F200070836291AE17BF07C8F30895F894FFCF8E
:101F300001077CE1016C00020002010202020302BF
:101F40000402050206030100000100030403040368
:101F500005030603070007F80001DA06014C656671
:101F60007400526967687400536574204465662E76
:101F700020526F742E00446973743A200020636D00
:101F80000053706565643A33302520004469723A25
:101F9000460053706565643A3530252000537065FE
:101FA00065643A3025004469723A530053706565A0
:101FB000643A31303025004469723A520044697203
:101FC0003A62004D6F746F722053746F7070656465
:101FD000004D4F544F5220696E2049444C4500310A
:0C1FE00032333435363738392A302300CC
:00000001FF
