S01D00004F6273746163616C2061766F6964696E67206361722E7372656317
S11300000C9446000C9406070C942D070C9454078A
S11300100C9463000C94920A0C9463000C94630097
S11300200C9463000C94AB070C9463000C947B0752
S11300300C9463000C9463000C9463000C946300B0
S11300400C9463000C9463000C9463000C946300A0
S11300500C94630084088F089A08AA09A508AA09C1
S1130060B008BB08C608D108E708F208FD08AC09C7
S11300700809AC0913091E09290934094A09550953
S113008060096B09760981098C09970911241FBE3F
S1130090CFE5D8E0DEBFCDBF10E0A0E6B0E0E0E3FE
S11300A0F9E102C005900D92AA3CB107D9F720E00E
S11300B0AAECB0E001C01D92A23FB207E1F70E9492
S11300C044050C94960C0C9400009091CB0081E0B4
S11300D089278093CB0008958091CC008F5F809313
S11300E0CC0080E690E00E94640408950E940D050F
S11300F00E9427050E94490287E690E00E9470034F
S113010063E080E00E94AB0180E690E00E942B0453
S11301100E942A0485E894E00E943E0589E994E05F
S11301200E94410585E690E00E94C1010E94CC0135
S11301308FEF8ABB08950E942E051092CC0080E6B2
S113014090E00E944B040E94CC011BC08091CB0024
S1130150813079F464E00E943B0380E20E94AA02A9
S113016060E081E00E943B038FE790E00E9453032C
S113017008C060E081E00E943B0384E890E00E94B4
S113018053038091CC00863008F30E9424038091AD
S113019060000E945D040E94C9010E942705089521
S11301A0CF92DF92EF92FF9280917500823099F4A2
S11301B088EE90E00E94AD038091E8008E3459F0FF
S11301C0813319F0823321F006C01092750003C008
S11301D081E0809375008091750081118AC08091BF
S11301E0CA00811110C00E94240360E080E00E94D4
S11301F03B038AE890E00E9453030E949B0081E045
S11302008093CA0067C0813009F064C00E9433053E
S11302106093E9007093EA008093EB009093EC0004
S11302208FE295E70197F1F700C000006091E900C3
S11302307091EA008091EB009091EC000E94AA0B6F
S11302406BBBC090E900D090EA00E090EB00F09026
S1130250EC0020E030E04CE852E4C701B6010E9413
S11302608B0C18162CF482E08093CA001BBA32C09F
S113027020E030E040EF51E4C701B6010E948B0C4E
S1130280181634F483E08093CA0081E08BBB22C04B
S113029020E030E040EA51E4C701B6010E948B0C33
S11302A0882334F084E08093CA0082E08BBB12C0C0
S11302B020E030E040EA51E4C701B6010E94330B6C
S11302C0882334F485E08093CA0083E08BBB02C0AA
S11302D084E08BBB8091CA008330C1F50E94240363
S11302E060E080E00E943B0388E990E00E945303B1
S11302F02DC08130B1F48091CE00811109C00E94DB
S113030024031092CF0081E08093CE001092CD00A0
S113031060E080E00E943B0382EA90E00E94530385
S113032015C08091CF00811109C00E94240381E08F
S11303308093CF001092CE001092CD0060E080E058
S11303400E943B0380EB90E00E945303FF90EF90E8
S1130350DF90CF900895CF93DF93C82FD62F40E03E
S113036062E083E00E94490540E062E083E00E948D
S113037083056D2F8C2F0E94690681E0DF91CF9158
S11303800895009721F00E94E60681E0089580E038
S113039008950E94F00608950E94F40608950F93AC
S11303A01F93CF93DF93182F40E060E083E00E9417
S11303B08305C82F40E067E082E00E948305C82BD4
S11303C0012F02950F70D0E015C0ED2FF0E0402F03
S11303D050E00D2E02C0559547950A94E2F74170FE
S11303E0EE0FFF1FEA58FF4F618180810E94830551
S11303F0C82BDF5FD43048F341E061E083E00E9422
S11304008305C82B89EF90E00197F1F700C0000045
S113041040E061E083E00E948305C82B92E49A9552
S1130420F1F700C01F70D0E015C0ED2FF0E0412FB0
S113043050E00D2E02C0559547950A94E2F741709D
S1130440EE0FFF1FEA58FF4F618180810E948305F0
S1130450C82BDF5FD43048F341E061E083E00E94C1
S11304608305C82BE9EFF0E03197F1F700C00000F5
S113047040E061E083E00E9483058C2BE3EFF1E030
S11304803197F1F700C00000DF91CF911F910F91D8
S11304900895CF93DF93D0E0C0E00DC0ED2FF0E0DE
S11304A0EE0FFF1FEA58FF4F41E0618180810E94F7
S11304B04905C82BDF5FD43088F341E067E082E070
S11304C00E944905C82B41E060E083E00E94490591
S11304D0C82B41E061E083E00E944905C82B8FE00E
S11304E097E20197F1F700C0000082E00E94CF017B
S11304F0C82BE9EFF0E03197F1F700C0000088E283
S11305000E94CF01C82B89EF90E00197F1F700C05A
S1130510000081E00E94CF01C82BE7EEF3E03197A1
S1130520F1F700C0000086E00E94CF01C82B89EFDC
S113053090E00197F1F700C000008CE00E94CF0129
S11305408C2BE9EFF0E03197F1F700C00000DF9168
S1130550CF9108950F931F93CF93DF93182F40E00B
S113056060E083E00E948305C82F41E067E082E0F9
S11305700E948305C82B012F02950F70D0E015C08F
S1130580ED2FF0E0402F50E00D2E02C05595479519
S11305900A94E2F74170EE0FFF1FEA58FF4F6181A2
S11305A080810E948305C82BDF5FD43048F341E08B
S11305B061E083E00E948305C82B89EF90E00197F6
S11305C0F1F700C0000040E061E083E00E94830591
S11305D0C82B92E49A95F1F700C01F70D0E015C0C3
S11305E0ED2FF0E0412F50E00D2E02C055954795B8
S11305F00A94E2F74170EE0FFF1FEA58FF4F618142
S113060080810E948305C82BDF5FD43048F341E02A
S113061061E083E00E948305C82BE9EFF0E03197A5
S1130620F1F700C0000040E061E083E00E94830530
S11306308C2BE3EFF1E03197F1F700C00000DF917C
S1130640CF911F910F910895CF9381E00E94CF0124
S1130650C82F87EE93E00197F1F700C0000082E015
S11306600E94CF018C2BE7EEF3E03197F1F700C045
S11306700000CF910895811108C0603130F4862FB5
S11306808F7080680E94CF010895813041F46031F9
S113069040F4862F8F70806C0E94CF01089585E00E
S11306A0089585E00895EF92FF921F93CF93DF930F
S11306B07C01FC018081C0E0D0E010E008C00E9411
S11306C0AA02182B2196F701EC0FFD1F80818111DE
S11306D0F6CF812FDF91CF911F91FF90EF90089576
S11306E0CF93DF930097A9F1EC01698140E0888101
S11306F00E9449056B8140E08A810E9449056D8111
S113070040E08C810E944905698141E088810E9412
S113071083056B8141E08A810E9483056D8141E0FC
S11307208C810E9483056F8141E08E810E9449057E
S1130730698541E088850E9449056B8541E08A8589
S11307400E9449056D8541E08C850E94490580E041
S113075001C087E0DF91CF910895DF92EF92FF927D
S11307600F931F93CF93DF931F92CDB7DEB77C0116
S113077007E610E0F801678141E086810E94830565
S1130780F801618541E080850E948305F801638555
S113079041E082850E948305F801658541E08485F6
S11307A00E94830500E0D12C42C0E7E6F0E06781B7
S11307B0600F40E086810E94830510E02DC0E7E6CB
S11307C0F0E06181610FAE014F5F5F4F80810E9455
S11307D0FE05898181111FC00AC0E7E6F0E061814E
S11307E0610FAE014F5F5F4F80810E94FE058981DA
S11307F0882399F3802F90E0FC01EE0FFF1FE80F90
S1130800F91FE254FF4FE10FF11D8081F70180834E
S1130810DD24D39403C01F5F133088F2E7E6F0E0D1
S11308206781600F41E086810E9483050F5F043079
S113083008F4BBCFF1E0DF1619F08EE4F7018083F2
S113084080E00F90DF91CF911F910F91FF90EF9077
S1130850DF90089508951F93CF93DF93009791F04D
S1130860FC012081233080F421812A3078F4EC01CA
S11308700E94DB07182F68818D819E810E94050AE2
S1130880812B05C083E003C083E001C083E0DF91D6
S1130890CF911F910895009751F0FC0120812330DE
S11308A040F421812A3038F40E946408089583E0DA
S11308B0089583E0089583E00895833018F40E9436
S11308C0B009089583E00895009751F0FC01208158
S11308D0233040F421812A3038F40E94DD09089540
S11308E083E0089583E0089583E0089541E063E0A0
S11308F081E00E9483058AE18A95F1F700C040E017
S113090063E081E00E94830508958091D500909171
S1130910D600A091D700B091D8000196A11DB11DB9
S11309208093D5009093D600A093D700B093D800BD
S113093008958091D400811114C00E948A0A62E053
S113094082E00E94690681E08093D4001092D50071
S11309501092D6001092D7001092D8000E94720A0A
S113096008958091D400813009F056C00E947C0A19
S11309700E948C0A8093ED008091D5009091D6005E
S1130980A091D700B091D8008093EE009093EF002F
S1130990A093F000B093F1002091ED008091EE005F
S11309A09091EF00A091F000B091F100BA2FA92F1F
S11309B0982F8827BC01CD01620F711D811D911DE7
S11309C00E94D90B2DEC3CE349E654E40E94380B19
S11309D020E030E040E050E40E94C60A6093D0007A
S11309E07093D1008093D2009093D3001092EE00C4
S11309F01092EF001092F0001092F1001092D500C6
S1130A001092D6001092D7001092D8001092D40001
S1130A1063E082E00E946906089541E063E081E0BA
S1130A200E94490540E062E081E00E94490540E0FF
S1130A3062E081E00E94830563E082E00E9469062F
S1130A4080E00E94220A81E00E94510A08950E94D7
S1130A50650A0E94FF060E948E0A08950E946D0A8C
S1130A600E94FB0608950E9476046091D000709164
S1130A70D1008091D2009091D30008950E94830AFE
S1130A8008950E94EB0608950E9476000E94D0000B
S1130A90FDCF6830A0F581110BC08AB350E002C0CD
S1130AA0440F551F6A95E2F7482B4ABB80E008952E
S1130AB0813059F487B350E002C0440F551F6A9542
S1130AC0E2F7482B47BB80E00895823059F484B3A1
S1130AD050E002C0440F551F6A95E2F7482B44BB0F
S1130AE080E00895833069F481B350E002C0440F7C
S1130AF0551F6A95E2F7482B41BB80E0089581E0D9
S1130B00089582E00895683008F074C081111BC014
S1130B10413061F42BB381E090E002C0880F991F4B
S1130B206A95E2F7822B8BBB80E008952BB381E0BA
S1130B3090E002C0880F991F6A95E2F7809582239E
S1130B408BBB80E008958130D9F4413061F428B33F
S1130B5081E090E002C0880F991F6A95E2F7822B2A
S1130B6088BB80E0089528B381E090E002C0880F3C
S1130B70991F6A95E2F78095822388BB80E00895E7
S1130B808230D9F4413061F425B381E090E002C0B1
S1130B90880F991F6A95E2F7822B85BB80E0089540
S1130BA025B381E090E002C0880F991F6A95E2F7AF
S1130BB08095822385BB80E008958330E9F4413039
S1130BC061F422B381E090E002C0880F991F6A9516
S1130BD0E2F7822B82BB80E0089522B381E090E0AB
S1130BE002C0880F991F6A95E2F78095822382BB21
S1130BF080E0089581E0089582E00895683008F067
S1130C0064C0811117C079B381E090E09C01062E85
S1130C1002C0220F331F0A94E2F7872F90E0822349
S1130C20932302C0969587956A95E2F7FA0180832B
S1130C3080E008958130B9F476B381E090E09C01BE
S1130C40062E02C0220F331F0A94E2F7872F90E08A
S1130C508223932302C0969587956A95E2F7FA0159
S1130C60808380E008958230B9F473B381E090E02A
S1130C709C01062E02C0220F331F0A94E2F7872F2D
S1130C8090E08223932302C0969587956A95E2F7B4
S1130C90FA01808380E008958330C9F470B381E061
S1130CA090E09C01062E02C0220F331F0A94E2F743
S1130CB0872F90E08223932302C0969587956A95A7
S1130CC0E2F7FA01808380E0089581E0089582E0EC
S1130CD00895833008F070C0643008F06FC081114B
S1130CE028C0613071F028F0623099F06330C9F0A7
S1130CF067C085B78E7F85BF85B78D7F85BF81E04F
S1130D00089585B7816085BF85B78D7F85BF81E0F4
S1130D10089585B78E7F85BF85B7826085BF81E0E2
S1130D20089585B7816085BF85B7826085BF81E0FE
S1130D300895813081F5613071F028F0623099F0C6
S1130D406330C9F020C085B78B7F85BF85B7877FA7
S1130D5085BF81E019C085B7846085BF85B7877F6B
S1130D6085BF81E011C085B78B7F85BF85B788605B
S1130D7085BF81E009C085B7846085BF85B7886079
S1130D8085BF81E001C080E09BB790689BBF9AB7A4
S1130D9090689ABF08958230A9F4623019F06330E4
S1130DA031F012C084B78F7B84BF81E0089584B78B
S1130DB0806484BF81E0089580E0089580E0089510
S1130DC080E0089581E0089580E008959093DE0026
S1130DD08093DD0008959093DC008093DB000895F8
S1130DE08BB78F7B8BBF08958AB780648ABF8BB71C
S1130DF080648BBF08958BB78F7D8BBF08958BB7AD
S1130E0080628BBF8AB780628ABF08951F920F9257
S1130E100FB60F9211242F933F934F935F936F93C9
S1130E207F938F939F93AF93BF93EF93FF93E0913F
S1130E30DD00F091DE000995FF91EF91BF91AF9134
S1130E409F918F917F916F915F914F913F912F91DE
S1130E500F900FBE0F901F9018951F920F920FB610
S1130E600F9211242F933F934F935F936F937F932C
S1130E708F939F93AF93BF93EF93FF93E091D90028
S1130E80F091DA000995FF91EF91BF91AF919F9195
S1130E908F917F916F915F914F913F912F910F901F
S1130EA00FBE0F901F9018951F920F920FB60F92BE
S1130EB011242F933F934F935F936F937F938F935B
S1130EC09F93AF93BF93EF93FF93E091DB00F09177
S1130ED0DC000995FF91EF91BF91AF919F918F91A4
S1130EE07F916F915F914F913F912F910F900FBE22
S1130EF00F901F9018951F920F920FB60F92112406
S1130F002F933F934F935F936F937F938F939F930D
S1130F10AF93BF93EF93FF938091E6009091E70026
S1130F20892B41F088B78E7F88BFE091E600F0916D
S1130F30E7000995FF91EF91BF91AF919F918F9138
S1130F407F916F915F914F913F912F910F900FBEC1
S1130F500F901F9018951F920F920FB60F921124A5
S1130F602F933F934F935F936F937F938F939F93AD
S1130F70AF93BF93EF93FF938091E4009091E500CA
S1130F80892B41F088B78B7F88BFE091E400F09112
S1130F90E5000995FF91EF91BF91AF919F918F91DA
S1130FA07F916F915F914F913F912F910F900FBE61
S1130FB00F901F901895009709F478C0FC012081C8
S1130FC0233008F075C031813A3008F073C0213005
S1130FD019F120F0223009F450C06EC012BE13BEC5
S1130FE01CBEFC01228122BF23B7206823BF23B784
S1130FF02F7B23BF23B7277F23BF23B72F7E23BF96
S113100023B72F7D23BF8481813009F057C089B76E
S1131010816089BF80E008951CBC1DBC1FBC1EBC40
S11310201BBC1ABCFC01228133813DBD2CBD2FB5F4
S113103028602FBD2FB524602FBD2FB52E7F2FBD67
S11310402FB52D7F2FBD2EB52F7E2EBD2EB5277F1C
S11310502EBD2FB52F7B2FBD2FB52F772FBD2FB5CD
S11310602F7E2FBD2FB52F7D2FBD8481813041F57B
S113107089B7846089BF80E0089514BC15BC13BC93
S113108014BC25B52F7B25BD25B5277F25BD25B5EA
S11310902F7E25BD25B52F7D25BDFC0184818130A2
S11310A089F489B7806489BF80E0089583E0089556
S11310B083E0089583E0089583E0089580E008952F
S11310C080E0089580E00895009709F43BC1DC01B5
S11310D02C91233008F038C11196EC91EA3008F0D5
S11310E035C1213009F468C020F0223009F4C7C0AA
S11310F02FC18E2F90E08A30910508F02BC1FC019E
S1131100E65DFF4F0C94900C83B78E7F83BF83B74B
S11311108D7F83BF83B78B7F83BF80E0089583B7C0
S1131120816083BF83B78D7F83BF83B78B7F83BF8A
S113113080E0089583B78E7F83BF83B7826083BFC7
S113114083B78B7F83BF80E0089583B7816083BFBB
S113115083B7826083BF83B78B7F83BF80E00895AA
S113116083B78E7F83BF83B78D7F83BF83B784604C
S113117083BF80E0089583B7816083BF83B78D7F89
S113118083BF83B7846083BF80E0089583B78E7F75
S113119083BF83B7826083BF83B7846083BF80E0EB
S11311A0089583B7816083BF83B7826083BF83B7A9
S11311B0846083BF80E008958E2F90E08A3091058B
S11311C008F0CAC0FC01EC5CFF4F0C94900C8EB587
S11311D08E7F8EBD8EB58D7F8EBD8EB58B7F8EBD81
S11311E080E008958EB581608EBD8EB58D7F8EBDF5
S11311F08EB58B7F8EBD80E008958EB58E7F8EBDBB
S11312008EB582608EBD8EB58B7F8EBD80E00895D5
S11312108EB581608EBD8EB582608EBD8EB58B7F9E
S11312208EBD80E008958EB58E7F8EBD8EB58D7F88
S11312308EBD8EB584608EBD80E008958EB58160CC
S11312408EBD8EB58D7F8EBD8EB584608EBD80E0E3
S113125008958EB58E7F8EBD8EB582608EBD8EB59F
S113126084608EBD80E008958EB581608EBD8EB59C
S113127082608EBD8EB584608EBD80E008958E2F11
S113128090E08830910508F069C0FC01E25CFF4FF2
S11312900C94900C85B58B7F85BD85B58D7F85BD00
S11312A085B58E7F85BD80E0089585B5846085BD54
S11312B085B58D7F85BD85B58E7F85BD80E008951C
S11312C085B58B7F85BD85B5826085BD85B58E7FEF
S11312D085BD80E0089585B5846085BD85B582604F
S11312E085BD85B58E7F85BD80E0089585B58B7FEE
S11312F085BD85B58D7F85BD85B5816085BD80E063
S1131300089585B5846085BD85B58D7F85BD85B51A
S1131310816085BD80E0089585B58B7F85BD85B5E9
S1131320826085BD85B5816085BD80E0089585B501
S1131330846085BD85B5826085BD85B5816085BDC8
S113134080E0089583E0089583E0089583E008959C
S113135083E0089583E0089583E0089583E0089589
S1131360833038F5813079F018F08230B9F023C039
S113137083B78E7F83BF83B78D7F83BF83B78B7F14
S113138083BF80E008958EB58E7F8EBD8EB58D7F30
S11313908EBD8EB58B7F8EBD80E0089585B58B7F25
S11313A085BD85B58D7F85BD85B58E7F85BD80E086
S11313B0089583E0089583E008950097F1F0FC0117
S11313C020812330E0F431813A30D8F4213049F0DF
S11313D018F0223069F017C0FC01828182BF80E0DE
S11313E00895FC01828193819DBD8CBD80E00895A8
S11313F0FC01828184BD80E0089583E0089583E048
S1131400089583E0089583E008950097A9F0633078
S1131410A8F4613059F020F0623091F083E008952F
S11314209093E7008093E60080E008959093E500B0
S11314308093E40080E0089583E0089583E00895B4
S113144080E00895843048F514BC813071F028F0B0
S1131450823099F08330C9F022C085B5877F85BD7D
S113146085B58F7B85BD80E0089585B5877F85BD73
S113147085B5806485BD80E0089585B5886085BDA7
S113148085B58F7B85BD80E0089585B5886085BD71
S113149085B5806485BD80E0089581E0089581E08C
S11314A00895883070F48093E3009091E2009130C5
S11314B051F495B5987F892B95B5892B85BD80E02E
S11314C0089581E0089580E0089588B7806488BF16
S11314D089B7806489BF80E0089589B78F7B89BF0D
S11314E080E0089595B58091E300892B85BD81E066
S11314F08093E20080E0089585B5887F85BD1092D1
S1131500E20080E00895009721F09093E100809339
S1131510E000089514BC089584B508958FB78068D9
S11315208FBF08951F920F920FB60F9211242F931D
S11315303F934F935F936F937F938F939F93AF9357
S1131540BF93EF93FF938091DF008F5F8093DF0061
S113155090917E00891309C0E091E000F091E100D0
S1131560309719F01092DF000995FF91EF91BF9128
S1131570AF919F918F917F916F915F914F913F9127
S11315802F910F900FBE0F901F9018955058BB27A6
S1131590AA270E94DE0A0C94510C0E94430C38F0D6
S11315A00E944A0C20F039F49F3F19F426F40C945D
S11315B0400C0EF4E095E7FB0C943A0CE92F0E94E2
S11315C0620C58F3BA17620773078407950720F073
S11315D079F4A6F50C94840C0EF4E0950B2EBA2F36
S11315E0A02D0B01B90190010C01CA01A001112425
S11315F0FF27591B99F0593F50F4503E68F11A16D1
S1131600F040A22F232F342F4427585FF3CF469561
S113161037952795A795F0405395C9F77EF41F1683
S1131620BA0B620B730B840BBAF09150A1F0FF0F4D
S1131630BB1F661F771F881FC2F70EC0BA0F621F39
S1131640731F841F48F4879577956795B795F79529
S11316509E3F08F0B0CF9395880F08F09927EE0FBE
S11316609795879508950E94160C08F481E00895D3
S11316700E944C0B0C94510C0E944A0C58F00E948E
S1131680430C40F029F45F3F29F00C943A0C5111BB
S11316900C94850C0C94400C0E94620C68F3992302
S11316A0B1F3552391F3951B550BBB27AA2762175A
S11316B07307840738F09F5F5F4F220F331F441F67
S11316C0AA1FA9F335D00E2E3AF0E0E832D091509B
S11316D05040E695001CCAF72BD0FE2F29D0660F88
S11316E0771F881FBB1F261737074807AB07B0E8CB
S11316F009F0BB0B802DBF01FF2793585F4F3AF0D1
S11317009E3F510578F00C943A0C0C94850C5F3F85
S1131710E4F3983ED4F3869577956795B795F79556
S11317209F5FC9F7880F911D9695879597F908953E
S1131730E1E0660F771F881FBB1F621773078407DA
S1131740BA0720F0621B730B840BBA0BEE1F88F7E9
S1131750E09508950E946A0C88F09F5798F0B92F7D
S11317609927B751B0F0E1F0660F771F881F991FD2
S11317701AF0BA95C9F714C0B13091F00E94840CE4
S1131780B1E008950C94840C672F782F8827B85FF4
S113179039F0B93FCCF3869577956795B395D9F72A
S11317A03EF490958095709561957F4F8F4F9F4F34
S11317B00895E89409C097FB3EF490958095709540
S11317C061957F4F8F4F9F4F9923A9F0F92F96E989
S11317D0BB279395F695879577956795B795F111FE
S11317E0F8CFFAF4BB0F11F460FF1BC06F5F7F4F9B
S11317F08F4F9F4F16C0882311F096E911C07723AD
S113180021F09EE8872F762F05C0662371F096E8B5
S1131810862F70E060E02AF09A95660F771F881F84
S1131820DAF7880F9695879597F90895990F000828
S1131830550FAA0BE0E8FEEF16161706E807F9079E
S1131840C0F012161306E407F50798F0621B730B39
S1131850840B950B39F40A2661F0232B242B252BBA
S113186021F408950A2609F4A140A6958FEF811D5D
S1131870811D089597F99F6780E870E060E00895FE
S11318809FEF80EC089500240A9416161706180694
S11318900906089500240A94121613061406050670
S11318A00895092E0394000C11F4882352F0BB0F01
S11318B040F4BF2B11F460FF04C06F5F7F4F8F4F64
S11318C09F4F089557FD9058440F551F59F05F3F9F
S11318D071F04795880F97FB991F61F09F3F79F04E
S11318E087950895121613061406551FF2CF4695D0
S11318F0F1DF08C0161617061806991FF1CF869552
S11319007105610508940895E894BB276627772735
S1131910CB0197F908950E94160C08F48FEF0895EF
S1131920EE0FFF1F0590F491E02D0994F894FFCF7A
S113193001077CE1016C00020002010202020302C1
S11319400402050206020304030503060307014C0F
S11319504546540052494748540053657420446531
S1131960662E20526F742E004920616D20686572C6
S113197065004D6F746F722053746F7070656400EE
S11319804D4F544F5220696E2049444C450031322A
S10D1990333435363738392A302352
S9030000FC
