:100000000C942A000C9473020C949A020C944700EE
:100010000C9447000C948C030C9447000C944700FC
:100020000C9447000C94F1020C9447000C94C1020C
:100030000C9447000C9447000C9447000C94470024
:100040000C9447000C9447000C9447000C94470014
:100050000C94470011241FBECFE5D8E0DEBFCDBF12
:1000600010E0A0E6B0E0EEE5FAE002C005900D92E7
:10007000A236B107D9F720E0A2E6B0E001C01D9298
:10008000A138B207E1F70E942B010C942D050C94C6
:1000900000000E94FC0084E790E00E94250188E8AF
:1000A00090E00E94280108950E941A016093780050
:1000B0007093790080937A0090937B008FE295E7AC
:1000C0000197F1F700C00000089541E060E081E091
:1000D0000E946A018AE18A95F1F700C040E060E081
:1000E00081E00E946A010895809167009091680004
:1000F000A0916900B0916A000196A11DB11D809385
:10010000670090936800A0936900B0936A00089517
:1001100080916600811114C00E94840362E080E037
:100120000E94E50181E080936600109267001092C2
:1001300068001092690010926A000E946C03089592
:1001400080916600813009F056C00E9476030E94BB
:10015000860380937C008091670090916800A09155
:100160006900B0916A0080937D0090937E00A09317
:100170007F00B093800020917C0080917D00909161
:100180007E00A0917F00B0918000BA2FA92F982FF8
:100190008827BC01CD01620F711D811D911D0E9438
:1001A0009F042DEC3CE349E654E40E942D0420E03A
:1001B00030E040E050E40E94C0036093620070931E
:1001C0006300809364009093650010927D0010920C
:1001D0007E0010927F0010928000109267001092B3
:1001E00068001092690010926A001092660063E045
:1001F00080E00E94E501089541E060E081E00E9416
:10020000300140E062E083E00E94300140E062E0C3
:1002100083E00E946A0163E080E00E94E50180E0E3
:100220000E94210381E00E9450030E9464030E9407
:10023000880308950E9465006091620070916300D8
:10024000809164009091650008950E947D03089557
:100250000E946E0208950E9449000E945400FDCF42
:100260006830A0F581110BC08AB350E002C0440F82
:10027000551F6A95E2F7482B4ABB80E0089581300C
:1002800059F487B350E002C0440F551F6A95E2F756
:10029000482B47BB80E00895823059F484B350E086
:1002A00002C0440F551F6A95E2F7482B44BB80E01B
:1002B0000895833069F481B350E002C0440F551FA4
:1002C0006A95E2F7482B41BB80E0089581E00895EC
:1002D00082E00895683008F074C081111BC041307D
:1002E00061F42BB381E090E002C0880F991F6A95FA
:1002F000E2F7822B8BBB80E008952BB381E090E086
:1003000002C0880F991F6A95E2F7809582238BBB04
:1003100080E008958130D9F4413061F428B381E060
:1003200090E002C0880F991F6A95E2F7822B88BB84
:1003300080E0089528B381E090E002C0880F991F03
:100340006A95E2F78095822388BB80E00895823029
:10035000D9F4413061F425B381E090E002C0880F08
:10036000991F6A95E2F7822B85BB80E0089525B33B
:1003700081E090E002C0880F991F6A95E2F78095AE
:10038000822385BB80E008958330E9F4413061F435
:1003900022B381E090E002C0880F991F6A95E2F7CE
:1003A000822B82BB80E0089522B381E090E002C0FE
:1003B000880F991F6A95E2F78095822382BB80E0BF
:1003C000089581E0089582E00895833008F080C0A8
:1003D000643008F07FC0811130C0613071F028F0C6
:1003E000623099F06330C9F020C085B78E7F85BF39
:1003F00085B78D7F85BF81E019C085B7816085BFD6
:1004000085B78D7F85BF81E011C085B78E7F85BFA1
:1004100085B7826085BF81E009C085B7816085BFEF
:1004200085B7826085BF81E001C080E09AB79064A3
:100430009ABF9BB790649BBF0895813081F561306E
:1004400071F028F0623099F06330C9F020C085B7B0
:100450008B7F85BF85B7877F85BF81E019C085B752
:10046000846085BF85B7877F85BF81E011C085B770
:100470008B7F85BF85B7886085BF81E009C085B760
:10048000846085BF85B7886085BF81E001C080E05A
:100490009BB790689BBF9AB790689ABF08958230C7
:1004A000D9F4623019F0633031F00AC084B78F7B21
:1004B00084BF81E006C084B7806484BF81E001C04E
:1004C00080E09BB790629BBF9AB790629ABF0895F5
:1004D00080E0089580E0089581E0089590936E0093
:1004E00080936D0008951F920F920FB60F92112402
:1004F0002F933F934F935F936F937F938F939F932C
:10050000AF93BF93EF93FF93E0916D00F0916E0076
:100510000995FF91EF91BF91AF919F918F917F913D
:100520006F915F914F913F912F910F900FBE0F9060
:100530001F9018951F920F920FB60F9211242F93B0
:100540003F934F935F936F937F938F939F93AF935B
:10055000BF93EF93FF93E0916B00F0916C000995CE
:10056000FF91EF91BF91AF919F918F917F916F918B
:100570005F914F913F912F910F900FBE0F901F9061
:1005800018951F920F920FB60F9211242F933F933D
:100590004F935F936F937F938F939F93AF93BF938B
:1005A000EF93FF938091710090917200892B41F03D
:1005B00088B78E7F88BFE0917100F0917200099535
:1005C000FF91EF91BF91AF919F918F917F916F912B
:1005D0005F914F913F912F910F900FBE0F901F9001
:1005E00018951F920F920FB60F9211242F933F93DD
:1005F0004F935F936F937F938F939F93AF93BF932B
:10060000EF93FF9380916F0090917000892B41F0E0
:1006100088B78B7F88BFE0916F00F09170000995DB
:10062000FF91EF91BF91AF919F918F917F916F91CA
:100630005F914F913F912F910F900FBE0F901F90A0
:100640001895843048F514BC813071F028F0823060
:1006500099F08330C9F022C085B5877F85BD85B507
:100660008F7B85BD80E0089585B5877F85BD85B585
:10067000806485BD80E0089585B5886085BD85B5B9
:100680008F7B85BD80E0089585B5886085BD85B583
:10069000806485BD80E0089581E0089581E008953B
:1006A000883070F48093770090917600913051F407
:1006B00095B5987F892B95B5892B85BD80E00895E8
:1006C00081E0089580E0089588B7806488BF89B785
:1006D000806489BF80E0089595B580917700892B6B
:1006E00085BD81E08093760080E0089585B5887FA0
:1006F00085BD1092760080E00895009721F09093D8
:10070000750080937400089514BC089584B508950D
:100710008FB780688FBF08951F920F920FB60F9208
:1007200011242F933F934F935F936F937F938F93F6
:100730009F93AF93BF93EF93FF93809173008F5F6D
:100740008093730090916000891309C0E091740058
:10075000F0917500309719F0109273000995FF9190
:10076000EF91BF91AF919F918F917F916F915F9129
:100770004F913F912F910F900FBE0F901F901895A2
:100780005058BB27AA270E94D8030C94F3040E9458
:10079000E50438F00E94EC0420F039F49F3F19F48E
:1007A00026F40C94E2040EF4E095E7FB0C94DC04D0
:1007B000E92F0E94040558F3BA17620773078407EC
:1007C000950720F079F4A6F50C9426050EF4E09533
:1007D0000B2EBA2FA02D0B01B90190010C01CA01FB
:1007E000A0011124FF27591B99F0593F50F4503EA6
:1007F00068F11A16F040A22F232F342F4427585F98
:10080000F3CF469537952795A795F0405395C9F7AF
:100810007EF41F16BA0B620B730B840BBAF0915067
:10082000A1F0FF0FBB1F661F771F881FC2F70EC006
:10083000BA0F621F731F841F48F4879577956795D9
:10084000B795F7959E3F08F0B0CF9395880F08F0C5
:100850009927EE0F9795879508950E9441040C946F
:10086000F3040E94EC0458F00E94E50440F029F4DF
:100870005F3F29F00C94DC0451110C9427050C9473
:10088000E2040E94040568F39923B1F3552391F320
:10089000951B550BBB27AA2762177307840738F0EF
:1008A0009F5F5F4F220F331F441FAA1FA9F335D04C
:1008B0000E2E3AF0E0E832D091505040E695001C00
:1008C000CAF72BD0FE2F29D0660F771F881FBB1FBA
:1008D000261737074807AB07B0E809F0BB0B802D98
:1008E000BF01FF2793585F4F3AF09E3F510578F0C4
:1008F0000C94DC040C9427055F3FE4F3983ED4F39A
:10090000869577956795B795F7959F5FC9F7880F97
:10091000911D9695879597F90895E1E0660F771FE9
:10092000881FBB1F621773078407BA0720F0621B7A
:10093000730B840BBA0BEE1F88F7E0950895E894CB
:1009400009C097FB3EF490958095709561957F4F17
:100950008F4F9F4F9923A9F0F92F96E9BB279395C5
:10096000F695879577956795B795F111F8CFFAF4D5
:10097000BB0F11F460FF1BC06F5F7F4F8F4F9F4F06
:1009800016C0882311F096E911C0772321F09EE864
:10099000872F762F05C0662371F096E8862F70E0CA
:1009A00060E02AF09A95660F771F881FDAF7880FA4
:1009B0009695879597F9089597F99F6780E870E075
:1009C00060E008959FEF80EC089500240A941616C5
:1009D000170618060906089500240A94121613062D
:1009E000140605060895092E0394000C11F48823BB
:1009F00052F0BB0F40F4BF2B11F460FF04C06F5FD7
:100A00007F4F8F4F9F4F089557FD9058440F551FAC
:100A100059F05F3F71F04795880F97FB991F61F080
:100A20009F3F79F087950895121613061406551FF7
:100A3000F2CF4695F1DF08C0161617061806991F63
:100A4000F1CF86957105610508940895E894BB2758
:0E0A500066277727CB0197F90895F894FFCF1A
:020A5E00010095
:00000001FF
