S01D00004F6273746163616C2061766F6964696E67206361722E7372656317
S11300000C942A000C9447000C9447000C9470053F
S11300100C9447000C9462060C9447000C9447001F
S11300200C9447000C94C7050C9447000C94970556
S11300300C9447000C9447000C9447000C94470020
S11300400C9447000C9447000C9447000C94470010
S11300500C94470011241FBECFE5D8E0DEBFCDBF0E
S113006010E0A0E6B0E0E2EDF0E102C005900D92F0
S1130070A438B107D9F720E0A4E8B0E001C01D928C
S1130080A23AB207E1F70E94BD030C9467080C94EE
S113009000000E948E0386E093E00E94B7038AE189
S11300A093E00E94BA030E940E018FEF8ABB80E6A0
S11300B090E00E943D028BBB08950E94AC036093C4
S11300C0990070939A0080939B0090939C008FE218
S11300D095E70197F1F700C0000088E990E00E94DD
S11300E07A0260E080E00E94E901609199007091D9
S11300F09A0080919B0090919C000E9475070E9439
S11301001E02809198008E3471F060E081E00E94BC
S1130110E901809198000E946F018FE295E70197B1
S1130120F1F700C0000008950F931F93CF93DF935E
S1130130182F40E060E083E00E94FC03C82F40E0F9
S113014067E082E00E94FC03C82B012F02950F7028
S1130150D0E015C0ED2FF0E0402F50E00D2E02C08E
S1130160559547950A94E2F74170EE0FFF1FE25947
S1130170FF4F618180810E94FC03C82BDF5FD43074
S113018048F341E061E083E00E94FC03C82B89EF5F
S113019090E00197F1F700C0000040E061E083E0E7
S11301A00E94FC03C82B92E49A95F1F700C01F70DB
S11301B0D0E015C0ED2FF0E0412F50E00D2E02C02D
S11301C0559547950A94E2F74170EE0FFF1FE259E7
S11301D0FF4F618180810E94FC03C82BDF5FD43014
S11301E048F341E061E083E00E94FC03C82BE9EF9F
S11301F0F0E03197F1F700C0000040E061E083E0F7
S11302000E94FC038C2BE3EFF1E03197F1F700C07F
S11302100000DF91CF911F910F910895CF93DF9349
S1130220D0E0C0E00DC0ED2FF0E0EE0FFF1FE2596B
S1130230FF4F41E0618180810E94C203C82BDF5FD0
S1130240D43088F341E067E082E00E94C203C82B07
S113025041E060E083E00E94C203C82B41E061E01A
S113026083E00E94C203C82B8FE097E20197F1F765
S113027000C0000082E00E949400C82BE9EFF0E087
S11302803197F1F700C0000088E20E949400C82B67
S113029089EF90E00197F1F700C0000081E00E942F
S11302A09400C82BE7EEF3E03197F1F700C00000AB
S11302B086E00E949400C82B89EF90E00197F1F743
S11302C000C000008EE00E9494008C2BE9EFF0E067
S11302D03197F1F700C00000DF91CF9108950F939B
S11302E01F93CF93DF93182F40E060E083E00E94D8
S11302F0FC03C82F41E067E082E00E94FC03C82BA6
S1130300012F02950F70D0E015C0ED2FF0E0402FC3
S113031050E00D2E02C0559547950A94E2F74170BE
S1130320EE0FFF1FE259FF4F618180810E94FC03A1
S1130330C82BDF5FD43048F341E061E083E00E94E2
S1130340FC03C82B89EF90E00197F1F700C000008F
S113035040E061E083E00E94FC03C82B92E49A959C
S1130360F1F700C01F70D0E015C0ED2FF0E0412F71
S113037050E00D2E02C0559547950A94E2F741705E
S1130380EE0FFF1FE259FF4F618180810E94FC0341
S1130390C82BDF5FD43048F341E061E083E00E9482
S11303A0FC03C82BE9EFF0E03197F1F700C000003F
S11303B040E061E083E00E94FC038C2BE3EFF1E07A
S11303C03197F1F700C00000DF91CF911F910F9199
S11303D00895811108C0603130F4862F8F708068D1
S11303E00E9494000895813041F4603140F4862FD6
S11303F08F70806C0E949400089585E0089585E0D4
S11304000895EF92FF921F93CF93DF937C01FC0139
S11304108081C0E0D0E010E008C00E946F01182B7A
S11304202196F701EC0FFD1F80818111F6CF812FFA
S1130430DF91CF911F91FF90EF900895CF93DF93B9
S1130440CDB7DEB72A970FB6F894DEBF0FBECDBF87
S1130450DC01CB014AE0BE016F5F7F4F0E9432088E
S1130460CE0101960E9401022A960FB6F894DEBFCF
S11304700FBECDBFDF91CF910895CF93DF93009747
S1130480A9F1EC01698140E088810E94C2036B817B
S113049040E08A810E94C2036D8140E08C810E9409
S11304A0C203698141E088810E94FC036B8141E0C1
S11304B08A810E94FC036D8141E08C810E94FC03CF
S11304C06F8141E08E810E94C203698541E0888585
S11304D00E94C2036B8541E08A850E94C2036D8538
S11304E041E08C850E94C20380E001C087E0DF9177
S11304F0CF910895DF92EF92FF920F931F93CF93C2
S1130500DF931F92CDB7DEB77C0100E610E0F8015F
S1130510678141E086810E94FC03F801618541E026
S113052080850E94FC03F801638541E082850E9476
S1130530FC03F801658541E084850E94FC0300E02A
S1130540D12C42C0E0E6F0E06781600F40E0868194
S11305500E94FC0310E02DC0E0E6F0E06181610F31
S1130560AE014F5F5F4F80810E94770489818111C2
S11305701FC00AC0E0E6F0E06181610FAE014F5F89
S11305805F4F80810E9477048981882399F3802FAB
S113059090E0FC01EE0FFF1FE80FF91FE958FF4F31
S11305A0E10FF11D8081F7018083DD24D39403C022
S11305B01F5F133088F2E0E6F0E06781600F41E0EE
S11305C086810E94FC030F5F043008F4BBCFF1E086
S11305D0DF1619F08EE4F701808380E00F90DF913D
S11305E0CF911F910F91FF90EF90DF90089541E01C
S11305F063E081E00E94FC038AE18A95F1F700C080
S113060040E063E081E00E94FC030895809189004A
S113061090918A00A0918B00B0918C000196A11D4D
S1130620B11D8093890090938A00A0938B00B093AE
S11306308C00089580918800811114C00E945A068C
S113064062E082E00E94E20481E0809388001092DC
S1130650890010928A0010928B0010928C000E94E4
S11306604206089580918800813009F056C00E94A6
S11306704C060E945C0680939D00809189009091B5
S11306808A00A0918B00B0918C0080939E0090937F
S11306909F00A093A000B093A10020919D008091A1
S11306A09E0090919F00A091A000B091A100BA2F4C
S11306B0A92F982F8827BC01CD01620F711D811DC0
S11306C0911D0E94A4072DEC3CE349E654E40E94EA
S11306D0030720E030E040E050E40E949606609377
S11306E08400709385008093860090938700109215
S11306F09E0010929F001092A0001092A1001092F0
S1130700890010928A0010928B0010928C00109233
S1130710880063E082E00E94E204089541E063E01F
S113072081E00E94C20340E062E081E00E94C203D3
S113073040E062E081E00E94FC0363E082E00E940A
S1130740E20480E00E94F70581E00E9426060E94F0
S11307503A060E945E0608950E94F70260918400A2
S113076070918500809186009091870008950E9481
S1130770530608950E946B0508950E9449000E9443
S11307805D00FDCF6830A0F581110BC08AB350E045
S113079002C0440F551F6A95E2F7482B4ABB80E01C
S11307A00895813059F487B350E002C0440F551FB7
S11307B06A95E2F7482B47BB80E00895823059F4EC
S11307C084B350E002C0440F551F6A95E2F7482BEA
S11307D044BB80E00895833069F481B350E002C0E3
S11307E0440F551F6A95E2F7482B41BB80E00895FA
S11307F081E0089582E00895683008F074C08111A2
S11308001BC0413061F42BB381E090E002C0880F3B
S1130810991F6A95E2F7822B8BBB80E008952BB376
S113082081E090E002C0880F991F6A95E2F78095F5
S113083082238BBB80E008958130D9F4413061F488
S113084028B381E090E002C0880F991F6A95E2F70F
S1130850822B88BB80E0089528B381E090E002C039
S1130860880F991F6A95E2F78095822388BB80E000
S113087008958230D9F4413061F425B381E090E0E9
S113088002C0880F991F6A95E2F7822B85BB80E02E
S1130890089525B381E090E002C0880F991F6A95FE
S11308A0E2F78095822385BB80E008958330E9F4E4
S11308B0413061F422B381E090E002C0880F991FB7
S11308C06A95E2F7822B82BB80E0089522B381E02F
S11308D090E002C0880F991F6A95E2F78095822301
S11308E082BB80E0089581E0089582E00895683035
S11308F008F064C0811117C079B381E090E09C01D5
S1130900062E02C0220F331F0A94E2F7872F90E0CD
S11309108223932302C0969587956A95E2F7FA019C
S1130920808380E008958130B9F476B381E090E06B
S11309309C01062E02C0220F331F0A94E2F7872F70
S113094090E08223932302C0969587956A95E2F7F7
S1130950FA01808380E008958230B9F473B381E0B2
S113096090E09C01062E02C0220F331F0A94E2F786
S1130970872F90E08223932302C0969587956A95EA
S1130980E2F7FA01808380E008958330C9F470B3FC
S113099081E090E09C01062E02C0220F331F0A94CE
S11309A0E2F7872F90E08223932302C096958795E0
S11309B06A95E2F7FA01808380E0089581E0089562
S11309C082E00895833008F080C0643008F07FC06E
S11309D0811130C0613071F028F0623099F06330D9
S11309E0C9F020C085B78E7F85BF85B78D7F85BF51
S11309F081E019C085B7816085BF85B78D7F85BFCC
S1130A0081E011C085B78E7F85BF85B7826085BFC1
S1130A1081E009C085B7816085BF85B7826085BFE5
S1130A2081E001C080E09AB790649ABF9BB790645C
S1130A309BBF0895813081F5613071F028F06230F8
S1130A4099F06330C9F020C085B78B7F85BF85B727
S1130A50877F85BF81E019C085B7846085BF85B76E
S1130A60877F85BF81E011C085B78B7F85BF85B740
S1130A70886085BF81E009C085B7846085BF85B77C
S1130A80886085BF81E001C080E09BB790689BBF10
S1130A909AB790689ABF08958230D9F4623019F0F9
S1130AA0633031F00AC084B78F7B84BF81E006C015
S1130AB084B7806484BF81E001C080E09BB790620A
S1130AC09BBF9AB790629ABF089580E0089580E032
S1130AD0089581E0089590938E0080938D00089589
S1130AE01F920F920FB60F9211242F933F934F939F
S1130AF05F936F937F938F939F93AF93BF93EF9382
S1130B00FF93E0918D00F0918E000995FF91EF9194
S1130B10BF91AF919F918F917F916F915F914F9111
S1130B203F912F910F900FBE0F901F9018951F9219
S1130B300F920FB60F9211242F933F934F935F930D
S1130B406F937F938F939F93AF93BF93EF93FF9391
S1130B508091960090919700892B41F088B78E7F01
S1130B6088BFE0919600F09197000995FF91EF916D
S1130B70BF91AF919F918F917F916F915F914F91B1
S1130B803F912F910F900FBE0F901F9018951F92B9
S1130B900F920FB60F9211242F933F934F935F93AD
S1130BA06F937F938F939F93AF93BF93EF93FF9331
S1130BB08091940090919500892B41F088B78B7FA8
S1130BC088BFE0919400F09195000995FF91EF9111
S1130BD0BF91AF919F918F917F916F915F914F9151
S1130BE03F912F910F900FBE0F901F901895843056
S1130BF048F514BC813071F028F0823099F08330CC
S1130C00C9F022C085B5877F85BD85B58F7B85BD3D
S1130C1080E0089585B5877F85BD85B5806485BDF1
S1130C2080E0089585B5886085BD85B58F7B85BDD9
S1130C3080E0089585B5886085BD85B5806485BDEF
S1130C4080E0089581E0089581E00895883070F48B
S1130C508093930090919200913051F495B5987FD0
S1130C60892B95B5892B85BD80E0089581E0089591
S1130C7080E0089588B7806488BF89B7806489BF9D
S1130C8080E0089595B580919300892B85BD81E01E
S1130C908093920080E0089585B5887F85BD109289
S1130CA0920080E00895009721F090939100809342
S1130CB09000089514BC089584B508958FB7806892
S1130CC08FBF08951F920F920FB60F9211242F9386
S1130CD03F934F935F936F937F938F939F93AF93C0
S1130CE0BF93EF93FF9380918F008F5F80938F006A
S1130CF090917600891309C0E0919000F0919100E1
S1130D00309719F010928F000995FF91EF91BF91E0
S1130D10AF919F918F917F916F915F914F913F918F
S1130D202F910F900FBE0F901F9018955058BB270E
S1130D30AA270E94AE060C94F8070E94EA0738F02E
S1130D400E94F10720F039F49F3F19F426F40C9423
S1130D50E7070EF4E095E7FB0C94E107E92F0E9406
S1130D60090858F3BA17620773078407950720F038
S1130D7079F4A6F50C942B080EF4E0950B2EBA2FFB
S1130D80A02D0B01B90190010C01CA01A00111248D
S1130D90FF27591B99F0593F50F4503E68F11A1639
S1130DA0F040A22F232F342F4427585FF3CF4695CA
S1130DB037952795A795F0405395C9F77EF41F16EC
S1130DC0BA0B620B730B840BBAF09150A1F0FF0FB6
S1130DD0BB1F661F771F881FC2F70EC0BA0F621FA2
S1130DE0731F841F48F4879577956795B795F79592
S1130DF09E3F08F0B0CF9395880F08F09927EE0F27
S1130E009795879508950E9417070C94F8070E94F8
S1130E10F10758F00E94EA0740F029F45F3F29F0F7
S1130E200C94E10751110C942C080C94E7070E94D0
S1130E30090868F39923B1F3552391F3951B550BD6
S1130E40BB27AA2762177307840738F09F5F5F4F99
S1130E50220F331F441FAA1FA9F335D00E2E3AF0D8
S1130E60E0E832D091505040E695001CCAF72BD0F0
S1130E70FE2F29D0660F771F881FBB1F2617370741
S1130E804807AB07B0E809F0BB0B802DBF01FF2773
S1130E9093585F4F3AF09E3F510578F00C94E10768
S1130EA00C942C085F3FE4F3983ED4F38695779531
S1130EB06795B795F7959F5FC9F7880F911D96952C
S1130EC0879597F90895E1E0660F771F881FBB1F88
S1130ED0621773078407BA0720F0621B730B840B35
S1130EE0BA0BEE1F88F7E09508950E94110888F068
S1130EF09F5798F0B92F9927B751B0F0E1F0660FDA
S1130F00771F881F991F1AF0BA95C9F714C0B1301A
S1130F1091F00E942B08B1E008950C942B08672FE0
S1130F20782F8827B85F39F0B93FCCF38695779549
S1130F306795B395D9F73EF4909580957095619532
S1130F407F4F8F4F9F4F0895E89409C097FB3EF45D
S1130F5090958095709561957F4F8F4F9F4F992302
S1130F60A9F0F92F96E9BB279395F6958795779580
S1130F706795B795F111F8CFFAF4BB0F11F460FF40
S1130F801BC06F5F7F4F8F4F9F4F16C0882311F098
S1130F9096E911C0772321F09EE8872F762F05C0AC
S1130FA0662371F096E8862F70E060E02AF09A9547
S1130FB0660F771F881FDAF7880F9695879597F93C
S1130FC0089597F99F6780E870E060E008959FEFC7
S1130FD080EC089500240A941616170618060906CC
S1130FE0089500240A94121613061406050608959B
S1130FF0092E0394000C11F4882352F0BB0F40F423
S1131000BF2B11F460FF04C06F5F7F4F8F4F9F4F62
S1131010089557FD9058440F551F59F05F3F71F0E4
S11310204795880F97FB991F61F09F3F79F087954B
S11310300895121613061406551FF2CF4695F1DFD4
S113104008C0161617061806991FF1CF8695710564
S1131050610508940895E894BB2766277727CB0198
S113106097F90895BB274A3031F4992322F4BDE25D
S1131070909581959F4F0C943E08BB27FB01552703
S1131080AA27880F991FAA1FA41710F0A41B8395E1
S11310905051B9F7A05DAA3308F0A95DA193009758
S11310A079F7B111B1931192CB010C945708DC017B
S11310B0FC01672F71917723E1F7329704C07C918B
S11310C06D9370836291AE17BF07C8F30895F894C7
S10510D0FFCF4C
S11310D202000201020202030204020502060304E0
S11310E20305030603070131323334353637383901
S10710F22A30230079
S9030000FC
