:100000000C9446000C94760A0C949D0A0C94C40A35
:100010000C9463000C94020E0C9463000C94630027
:100020000C9463000C941B0B0C9463000C94EB0A6F
:100030000C9463000C9463000C9463000C946300B4
:100040000C9463000C9463000C9463000C946300A4
:100050000C946300F40BFF0B0A0C1A0D150C1A0D0F
:10006000200C2B0C360C410C570C620C6D0C1C0D2B
:10007000780C1C0D830C8E0C990CA40CBA0CC50CBE
:10008000D00CDB0CE60CF10CFC0C070D11241FBE90
:10009000CFE5D8E0DEBFCDBF11E0A0E6B0E0E0EFF5
:1000A000FFE102C005900D92A235B107D9F721E01A
:1000B000A2E5B1E001C01D92A238B207E1F70E94AB
:1000C000B4080C94F60F0C9400009091540181E058
:1000D0008927809354010895809155018F5F809303
:1000E000550180E690E00E94DA0708950E947D089D
:1000F0000E9497080E94D00487E690E00E941606AE
:1001000063E080E00E94320480E690E00E94A10754
:100110000E9455070E94BA038BEF97E00E94AE0839
:100120008FE098E00E94B10885E690E00E944804C4
:1001300008950E949E081092550180E690E00E946A
:10014000C1070E9453041DC080915401813079F48D
:1001500064E00E94C20580E20E94310560E081E017
:100160000E94C2058DE890E00E94DA050AC0811164
:1001700008C060E081E00E94C20582E990E00E9430
:10018000DA05809155018330F8F20E94AB05809129
:1001900060000E94D3070E9450040E94970860E00C
:1001A00080E00E94C20588E990E00E94DA0560E0E4
:1001B00081E00E94C20588EA90E00E94DA052FEFF4
:1001C00083ED90E3215080409040E1F700C00000B3
:1001D0000E94AB050895CF92DF92EF92FF9288E7DD
:1001E00091E00E945306809178018E3459F081335A
:1001F00019F0823321F006C01092750003C081E02F
:10020000809375008091750081114BC280915301DC
:10021000811110C00E94AB0560E080E00E94C20521
:100220008FEA90E00E94DA050E94990081E08093B5
:10023000530166C0813009F063C00E94A308609337
:10024000790170937A0180937B0190937C018FE216
:1002500095E70197F1F700C00000C0907901D090B8
:100260007A01E0907B01F0907C0120E030E04CE8E6
:1002700052E4C701B6010E948E0F181624F481E0E3
:10028000809352013DC020E030E040EF51E4C701CF
:10029000B6010E948E0F181674F420E030E04CE88E
:1002A00052E4C701B6010E94360E181624F082E00F
:1002B0008093520125C020E030E040EA51E4C701BC
:1002C000B6010E948E0F882374F020E030E040EFEA
:1002D00051E4C701B6010E94360E181624F083E0DF
:1002E000809352010DC020E030E040EA51E4C701A4
:1002F000B6010E94360E88231CF484E080935201DC
:1003000080915201813009F06DC060917901709146
:100310007A0180917B0190917C0120E030E046ECF5
:1003200052E40E948E0F181664F480E090E0A6EC70
:10033000B2E48093790190937A01A0937B01B0930A
:100340007C0160E081E00E94C2058DEB90E00E949C
:10035000DA056091790170917A0180917B01909129
:100360007C010E94AD0E0E94F70584EC90E00E9493
:10037000DA051092550180E690E00E94C10711C095
:1003800060E080E00E94C20588EC90E00E94DA05FF
:1003900083ED90E00E94DA0540E064E18EE10E9486
:1003A000640780915501863020F48091560188239E
:1003B00039F381E080935601809160000E94D30759
:1003C00060E080E00E94C20589ED90E00E94DA05BD
:1003D00083ED90E00E94DA0540E064E182E30E9450
:1003E0006407C3C1823061F51092560160E081E07C
:1003F0000E94C2058DEB90E00E94DA0560917901C0
:1004000070917A0180917B0190917C010E94AD0EE8
:100410000E94F70584EC90E00E94DA0560E080E03D
:100420000E94C20588EC90E00E94DA0583ED90E01E
:100430000E94DA0540E064E18EE10E94640795C104
:10044000833009F0B5C0109256010E94900760E019
:1004500081E00E94C2058DEB90E00E94DA05609178
:10046000790170917A0180917B0190917C010E94C9
:10047000AD0E0E94F70584EC90E00E94DA0560E082
:1004800080E00E94C20584EE90E00E94DA058DEEC5
:1004900090E00E94DA050E941E049FEF24E38CE0A6
:1004A000915020408040E1F700C0000060E080E013
:1004B0000E94C20583EF90E00E94DA058EEF90E083
:1004C0000E94DA0563C080917600853040F5809106
:1004D0005401813089F40E940A049FEF29E688E1E3
:1004E000915020408040E1F700C0000080917600EC
:1004F0008F5F8093760017C0811115C00E94F603AC
:100500009FEF29E688E1915020408040E1F700C04C
:100510000000809176008F5F8093760004C082E0B7
:100520008093750022C10E94A308609379017093A3
:100530007A0180937B0190937C0160E081E00E94CE
:10054000C2058DEB90E00E94DA056091790170910F
:100550007A0180917B0190917C010E94AD0E0E94F6
:10056000F70584EC90E00E94DA05609179017091C2
:100570007A0180917B0190917C0120E030E040EA9B
:1005800051E40E94360E18160CF0EFC0609179010C
:1005900070917A0180917B0190917C0120E030E0A4
:1005A00040EF51E40E94360E18160CF08CCFDDC0DF
:1005B000843009F0DAC01092560160E081E00E94B8
:1005C000C2058DEB90E00E94DA056091790170918F
:1005D0007A0180917B0190917C010E94AD0E0E9476
:1005E000F70584EC90E00E94DA0560E080E00E946C
:1005F000C20584E091E00E94DA058DEE90E00E9451
:10060000DA050E941E049FEF24E38CE09150204005
:100610008040E1F700C0000060E080E00E94C20579
:1006200088EC90E00E94DA058EE091E00E94DA0505
:1006300027C041E064E18EE10E9464070E94A308A4
:100640006093790170937A0180937B0190937C0190
:1006500060E081E00E94C2058DEB90E00E94DA0527
:100660006091790170917A0180917B0190917C0178
:100670000E94AD0E0E94F70584EC90E00E94DA051E
:100680006091790170917A0180917B0190917C0158
:1006900020E030E040EA51E40E94360E18164CF695
:1006A00064C08130B1F480915801811109C00E9469
:1006B000AB051092590181E08093580110925701C7
:1006C00060E080E00E94C20584E191E00E94DA05CA
:1006D0004CC08230A9F50E94AB0560E080E00E942A
:1006E000C20584E191E00E94DA050E941E049FEF9A
:1006F00023ED80E3915020408040E1F700C00000EE
:100700000E94AB0560E080E00E94C20582E291E0B9
:100710000E94DA0560E081E00E94C20582E391E078
:100720000E94DA059FEF29E688E191502040804041
:10073000E1F700C00000109276001092750015C01D
:1007400080915901811109C00E94AB0581E080931D
:100750005901109258011092570160E080E00E9408
:10076000C20588E391E00E94DA05FF90EF90DF90E8
:10077000CF900895CF938AE790E00E94D006C82FCB
:1007800087E790E00E94D006C11103C0811103C029
:1007900003C08BE001C08BE0CF910895CF938AE72F
:1007A00090E00E94E806C82F87E790E00E94E806E4
:1007B000C11103C0811103C003C08BE001C08BE0F5
:1007C000CF910895CF938AE790E00E940007C82F49
:1007D00087E790E00E940007C11103C0811103C0A8
:1007E00003C08BE001C08BE0CF910895CF938AE7DF
:1007F00090E00E94E806C82F87E790E00E9400077B
:10080000C11103C0811103C003C08BE001C08BE0A4
:10081000CF910895CF938AE790E00E94E806C82F11
:1008200087E790E00E940007811103C0C11103C057
:1008300003C08BE001C08BE0CF910895CF938AE78E
:1008400090E00E941807C82F87E790E00E941807E1
:10085000C11103C0811103C003C08BE001C08BE054
:10086000CF910895CF93DF93C82FD62F40E062E059
:1008700083E00E94B90840E062E083E00E94F30850
:100880006D2F8C2F0E94D90980E0DF91CF910895C0
:10089000009721F00E94560A80E0089585E00895AF
:1008A0000E94600A08950E94640A08950F931F939E
:1008B000CF93DF93182F40E060E083E00E94F308BD
:1008C000C82F40E067E082E00E94F308C82B012FA8
:1008D00002950F70D0E015C0ED2FF0E0402F50E0F2
:1008E0000D2E02C0559547950A94E2F74170EE0F20
:1008F000FF1FE358FF4F618180810E94F308C82BDE
:10090000DF5FD43048F341E061E083E00E94F30808
:10091000C82B89EF90E00197F1F700C0000040E09C
:1009200061E083E00E94F308C82B92E49A95F1F706
:1009300000C01F70D0E015C0ED2FF0E0412F50E057
:100940000D2E02C0559547950A94E2F74170EE0FBF
:10095000FF1FE358FF4F618180810E94F308C82B7D
:10096000DF5FD43048F341E061E083E00E94F308A8
:10097000C82BE9EFF0E03197F1F700C0000040E04C
:1009800061E083E00E94F3088C2BE3EFF1E0319704
:10099000F1F700C00000DF91CF911F910F910895F2
:1009A000CF93DF93D0E0C0E00DC0ED2FF0E0EE0F6D
:1009B000FF1FE358FF4F41E0618180810E94B90829
:1009C000C82BDF5FD43088F341E067E082E00E940B
:1009D000B908C82B41E060E083E00E94B908C82B49
:1009E00041E061E083E00E94B908C82B8FE097E204
:1009F0000197F1F700C0000082E00E945604C82B66
:100A0000E9EFF0E03197F1F700C0000088E20E94C2
:100A10005604C82B89EF90E00197F1F700C0000061
:100A200081E00E945604C82BE7EEF3E03197F1F71E
:100A300000C0000086E00E945604C82B89EF90E0B9
:100A40000197F1F700C000008CE00E9456048C2B47
:100A5000E9EFF0E03197F1F700C00000DF91CF91AE
:100A600008950F931F93CF93DF93182F40E060E01A
:100A700083E00E94F308C82F41E067E082E00E9413
:100A8000F308C82B012F02950F70D0E015C0ED2F91
:100A9000F0E0402F50E00D2E02C0559547950A9486
:100AA000E2F74170EE0FFF1FE358FF4F6181808135
:100AB0000E94F308C82BDF5FD43048F341E061E0C7
:100AC00083E00E94F308C82B89EF90E00197F1F7CB
:100AD00000C0000040E061E083E00E94F308C82B02
:100AE00092E49A95F1F700C01F70D0E015C0ED2F89
:100AF000F0E0412F50E00D2E02C0559547950A9425
:100B0000E2F74170EE0FFF1FE358FF4F61818081D4
:100B10000E94F308C82BDF5FD43048F341E061E066
:100B200083E00E94F308C82BE9EFF0E03197F1F77A
:100B300000C0000040E061E083E00E94F3088C2BDD
:100B4000E3EFF1E03197F1F700C00000DF91CF91C2
:100B50001F910F910895CF9381E00E945604C82FF2
:100B600087EE93E00197F1F700C0000082E00E9459
:100B700056048C2BE7EEF3E03197F1F700C000004C
:100B8000CF910895811108C0603130F4862F8F70A5
:100B900080680E9456040895813041F4603140F429
:100BA000862F8F70806C0E945604089588E0089507
:100BB00088E00895EF92FF921F93CF93DF937C011B
:100BC000FC018081C0E0D0E010E008C00E94310547
:100BD000182B2196F701EC0FFD1F80818111F6CFB4
:100BE000812FDF91CF911F91FF90EF900895CF93C8
:100BF000DF93CDB7DEB72A970FB6F894DEBF0FBEEE
:100C0000CDBFDC01CB014AE0BE016F5F7F4F0E9488
:100C1000C10FCE0101960E94DA052A960FB6F8940C
:100C2000DEBF0FBECDBFDF91CF910895CF93DF938D
:100C30000097A9F1EC01698140E088810E94B90820
:100C40006B8140E08A810E94B9086D8140E08C810F
:100C50000E94B908698141E088810E94F3086B8194
:100C600041E08A810E94F3086D8141E08C810E94FD
:100C7000F3086F8141E08E810E94B908698541E0E7
:100C800088850E94B9086B8541E08A850E94B90871
:100C90006D8541E08C850E94B90880E001C087E045
:100CA000DF91CF910895DF92EF92FF920F931F9300
:100CB000CF93DF931F92CDB7DEB77C0107E610E03C
:100CC000F801678141E086810E94F308F80161859F
:100CD00041E080850E94F308F801638541E0828548
:100CE0000E94F308F801658541E084850E94F308BD
:100CF00000E0D12C42C0E7E6F0E06781600F40E001
:100D000086810E94F30810E02DC0E7E6F0E06181E3
:100D1000610FAE014F5F5F4F80810E946E09898134
:100D200081111FC00AC0E7E6F0E06181610FAE01EA
:100D30004F5F5F4F80810E946E098981882399F3FC
:100D4000802F90E0FC01EE0FFF1FE80FF91FEA5B18
:100D5000FE4FE10FF11D8081F7018083DD24D394E4
:100D600003C01F5F133088F2E7E6F0E06781600F91
:100D700041E086810E94F3080F5F043008F4BBCF86
:100D8000F1E0DF1619F08EE4F701808380E00F9028
:100D9000DF91CF911F910F91FF90EF90DF90089519
:100DA000CF93DF93EC0141E0698188810E94B9080B
:100DB000811108C041E06A8188810E94B9088111CF
:100DC00003C003C089E001C089E0DF91CF9108959D
:100DD000CF93DF93EC0141E0698188810E94F308A1
:100DE000811108C040E06A8188810E94F308811166
:100DF00003C003C089E001C089E0DF91CF9108956D
:100E0000CF93DF93EC0140E0698188810E94F30871
:100E1000811108C041E06A8188810E94F308811134
:100E200003C003C089E001C089E0DF91CF9108953C
:100E3000CF93DF93EC0140E0698188810E94F30841
:100E4000811108C040E06A8188810E94F308811105
:100E500003C003C089E001C089E0DF91CF9108950C
:100E600080915E018F5F80935E0190915C01891794
:100E700060F480915A01811103C00E94CE0310C01A
:100E8000813071F40E94E2030BC020915B01821754
:100E900028F4891718F00E941E0402C010925E0107
:100EA00085E890E00E94DA070895CF9385E890E006
:100EB0000E94A107C82F0E94BA038C2B19F491E05D
:100EC00090935F01CF91089590915F01992331F143
:100ED000923069F490915D01981307C090915B0185
:100EE000961303C090915A01941310925E0180935F
:100EF0005D0160935B0140935A01689FC00111241A
:100F000064E670E00E94930F60935C0185E890E0D6
:100F10000E94C10792E090935F0108958AE00895CE
:100F200080915F01823059F4809185000E94D3073F
:100F300010925E0183E080935F0180E008958AE073
:100F400008951F93CF93DF93009791F0FC012081C8
:100F5000233080F421812A3078F4EC010E944B0B7D
:100F6000182F68818D819E810E94750D812B05C08F
:100F700083E003C083E001C083E0DF91CF911F9144
:100F80000895009751F0FC012081233040F4218125
:100F90002A3038F40E94D40B089583E0089583E04A
:100FA000089583E00895833018F40E94200D089579
:100FB00083E00895009751F0FC012081233040F434
:100FC00021812A3038F40E944D0D089583E0089560
:100FD00083E0089583E0089541E063E081E00E94AA
:100FE000F3088AE18A95F1F700C040E063E081E010
:100FF0000E94F30808958091650190916601A09187
:101000006701B09168010196A11DB11D8093650132
:1010100090936601A0936701B09368010895809151
:101020006401811114C00E94FA0D62E082E00E9406
:10103000D90981E0809364011092650110926601E4
:1010400010926701109268010E94E20D089580914C
:101050006401813009F050C00E94EC0D0E94FC0D2B
:1010600080937D018091650190916601A091670157
:10107000B091680180937E0190937F01A0938001DD
:10108000B093810120917D0180917E0190917F013B
:10109000A0918001B0918101BA2FA92F982F8827A4
:1010A000BC01CD01620F711D811D911D0E94DC0EDE
:1010B0002DEC3CE349E654E40E943B0E6093600152
:1010C00070936101809362019093630110927E019D
:1010D00010927F011092800110928101109265019F
:1010E00010926601109267011092680110926401DB
:1010F00063E082E00E94D909089541E063E081E065
:101100000E94B90840E062E081E00E94B90840E036
:1011100062E081E00E94F30863E082E00E94D90966
:1011200080E00E94920D81E00E94C10D08950E940E
:10113000D50D0E946F0A0E94FE0D08950E94DD0DDC
:101140000E946B0A08950E94EC0760916001709103
:101150006101809162019091630108950E94F30DF5
:1011600008950E945B0A08950E9476000E94EB0099
:10117000FDCF6830A0F581110BC08AB350E002C0EA
:10118000440F551F6A95E2F7482B4ABB80E008954B
:10119000813059F487B350E002C0440F551F6A955F
:1011A000E2F7482B47BB80E00895823059F484B3BE
:1011B00050E002C0440F551F6A95E2F7482B44BB2C
:1011C00080E00895833069F481B350E002C0440F99
:1011D000551F6A95E2F7482B41BB80E0089581E0F6
:1011E000089582E00895683008F074C081111BC032
:1011F000413061F42BB381E090E002C0880F991F69
:101200006A95E2F7822B8BBB80E008952BB381E0D7
:1012100090E002C0880F991F6A95E2F780958223BB
:101220008BBB80E008958130D9F4413061F428B35C
:1012300081E090E002C0880F991F6A95E2F7822B47
:1012400088BB80E0089528B381E090E002C0880F59
:10125000991F6A95E2F78095822388BB80E0089504
:101260008230D9F4413061F425B381E090E002C0CE
:10127000880F991F6A95E2F7822B85BB80E008955D
:1012800025B381E090E002C0880F991F6A95E2F7CC
:101290008095822385BB80E008958330E9F4413056
:1012A00061F422B381E090E002C0880F991F6A9533
:1012B000E2F7822B82BB80E0089522B381E090E0C8
:1012C00002C0880F991F6A95E2F78095822382BB3E
:1012D00080E0089581E0089582E00895683008F084
:1012E00064C0811117C079B381E090E09C01062EA3
:1012F00002C0220F331F0A94E2F7872F90E0822367
:10130000932302C0969587956A95E2F7FA01808348
:1013100080E008958130B9F476B381E090E09C01DB
:10132000062E02C0220F331F0A94E2F7872F90E0A7
:101330008223932302C0969587956A95E2F7FA0176
:10134000808380E008958230B9F473B381E090E047
:101350009C01062E02C0220F331F0A94E2F7872F4A
:1013600090E08223932302C0969587956A95E2F7D1
:10137000FA01808380E008958330C9F470B381E07E
:1013800090E09C01062E02C0220F331F0A94E2F760
:10139000872F90E08223932302C0969587956A95C4
:1013A000E2F7FA01808380E0089581E0089582E009
:1013B0000895833008F070C0643008F06FC0811168
:1013C00028C0613071F028F0623099F06330C9F0C4
:1013D00067C085B78E7F85BF85B78D7F85BF80E06D
:1013E000089585B7816085BF85B78D7F85BF80E013
:1013F000089585B78E7F85BF85B7826085BF80E001
:10140000089585B7816085BF85B7826085BF80E01C
:101410000895813081F5613071F028F0623099F0E3
:101420006330C9F020C085B78B7F85BF85B7877FC4
:1014300085BF80E019C085B7846085BF85B7877F89
:1014400085BF80E011C085B78B7F85BF85B7886079
:1014500085BF80E009C085B7846085BF85B7886097
:1014600085BF80E001C084E09BB790689BBF9AB7BE
:1014700090689ABF08958230A9F4623019F0633001
:1014800031F012C084B78F7B84BF80E0089584B7A9
:10149000806484BF80E0089584E0089584E0089526
:1014A00084E0089580E0089584E0089590936E01AB
:1014B00080936D01089590936C0180936B01089562
:1014C0008BB78F7B8BBF08958AB780648ABF8BB739
:1014D00080648BBF08958BB78F7D8BBF08958BB7CA
:1014E00080628BBF8AB780628ABF08951F920F9275
:1014F0000FB60F9211242F933F934F935F936F93E7
:101500007F938F939F93AF93BF93EF93FF93E0915C
:101510006D01F0916E010995FF91EF91BF91AF912F
:101520009F918F917F916F915F914F913F912F91FB
:101530000F900FBE0F901F9018951F920F920FB62D
:101540000F9211242F933F934F935F936F937F9349
:101550008F939F93AF93BF93EF93FF93E0916901B4
:10156000F0916A010995FF91EF91BF91AF919F9121
:101570008F917F916F915F914F913F912F910F903C
:101580000FBE0F901F9018951F920F920FB60F92DB
:1015900011242F933F934F935F936F937F938F9378
:1015A0009F93AF93BF93EF93FF93E0916B01F09103
:1015B0006C010995FF91EF91BF91AF919F918F9130
:1015C0007F916F915F914F913F912F910F900FBE3F
:1015D0000F901F9018951F920F920FB60F92112423
:1015E0002F933F934F935F936F937F938F939F932B
:1015F000AF93BF93EF93FF93809176019091770122
:10160000892B41F088B78E7F88BFE0917601F091F9
:1016100077010995FF91EF91BF91AF919F918F91C4
:101620007F916F915F914F913F912F910F900FBEDE
:101630000F901F9018951F920F920FB60F921124C2
:101640002F933F934F935F936F937F938F939F93CA
:10165000AF93BF93EF93FF938091740190917501C5
:10166000892B41F088B78B7F88BFE0917401F0919E
:1016700075010995FF91EF91BF91AF919F918F9166
:101680007F916F915F914F913F912F910F900FBE7E
:101690000F901F901895009709F478C0FC012081E5
:1016A000233008F075C031813A3008F073C0213022
:1016B00019F120F0223009F450C06EC012BE13BEE2
:1016C0001CBEFC01228122BF23B7206823BF23B7A1
:1016D0002F7B23BF23B7277F23BF23B72F7E23BFB3
:1016E00023B72F7D23BF8481813009F057C089B78C
:1016F000816089BF80E008951CBC1DBC1FBC1EBC5E
:101700001BBC1ABCFC01228133813DBD2CBD2FB511
:1017100028602FBD2FB524602FBD2FB52E7F2FBD84
:101720002FB52D7F2FBD2EB52F7E2EBD2EB5277F39
:101730002EBD2FB52F7B2FBD2FB52F772FBD2FB5EA
:101740002F7E2FBD2FB52F7D2FBD8481813041F598
:1017500089B7846089BF80E0089514BC15BC13BCB0
:1017600014BC25B52F7B25BD25B5277F25BD25B507
:101770002F7E25BD25B52F7D25BDFC0184818130BF
:1017800089F489B7806489BF80E0089583E0089573
:1017900083E0089583E0089583E0089580E008954C
:1017A00080E0089580E00895009709F43BC1DC01D2
:1017B0002C91233008F038C11196EC91EA3008F0F2
:1017C00035C1213009F468C020F0223009F4C7C0C7
:1017D0002FC18E2F90E08A30910508F02BC1FC01BB
:1017E000E65DFF4F0C94A70F83B78E7F83BF83B74F
:1017F0008D7F83BF83B78B7F83BF80E0089583B7DE
:10180000816083BF83B78D7F83BF83B78B7F83BFA7
:1018100080E0089583B78E7F83BF83B7826083BFE4
:1018200083B78B7F83BF80E0089583B7816083BFD8
:1018300083B7826083BF83B78B7F83BF80E00895C7
:1018400083B78E7F83BF83B78D7F83BF83B7846069
:1018500083BF80E0089583B7816083BF83B78D7FA6
:1018600083BF83B7846083BF80E0089583B78E7F92
:1018700083BF83B7826083BF83B7846083BF80E008
:10188000089583B7816083BF83B7826083BF83B7C6
:10189000846083BF80E008958E2F90E08A309105A8
:1018A00008F0CAC0FC01EC5CFF4F0C94A70F8EB58A
:1018B0008E7F8EBD8EB58D7F8EBD8EB58B7F8EBD9E
:1018C00080E008958EB581608EBD8EB58D7F8EBD12
:1018D0008EB58B7F8EBD80E008958EB58E7F8EBDD8
:1018E0008EB582608EBD8EB58B7F8EBD80E00895F3
:1018F0008EB581608EBD8EB582608EBD8EB58B7FBC
:101900008EBD80E008958EB58E7F8EBD8EB58D7FA5
:101910008EBD8EB584608EBD80E008958EB58160E9
:101920008EBD8EB58D7F8EBD8EB584608EBD80E000
:1019300008958EB58E7F8EBD8EB582608EBD8EB5BC
:1019400084608EBD80E008958EB581608EBD8EB5B9
:1019500082608EBD8EB584608EBD80E008958E2F2E
:1019600090E08830910508F069C0FC01E25CFF4F0F
:101970000C94A70F85B58B7F85BD85B58D7F85BD03
:1019800085B58E7F85BD80E0089585B5846085BD71
:1019900085B58D7F85BD85B58E7F85BD80E0089539
:1019A00085B58B7F85BD85B5826085BD85B58E7F0C
:1019B00085BD80E0089585B5846085BD85B582606C
:1019C00085BD85B58E7F85BD80E0089585B58B7F0B
:1019D00085BD85B58D7F85BD85B5816085BD80E080
:1019E000089585B5846085BD85B58D7F85BD85B538
:1019F000816085BD80E0089585B58B7F85BD85B507
:101A0000826085BD85B5816085BD80E0089585B51E
:101A1000846085BD85B5826085BD85B5816085BDE5
:101A200080E0089583E0089583E0089583E00895B9
:101A300083E0089583E0089583E0089583E00895A6
:101A4000833038F5813079F018F08230B9F023C056
:101A500083B78E7F83BF83B78D7F83BF83B78B7F31
:101A600083BF80E008958EB58E7F8EBD8EB58D7F4D
:101A70008EBD8EB58B7F8EBD80E0089585B58B7F42
:101A800085BD85B58D7F85BD85B58E7F85BD80E0A3
:101A9000089583E0089583E008950097F1F0FC0134
:101AA00020812330E0F431813A30D8F4213049F0FC
:101AB00018F0223069F017C0FC01828182BF80E0FB
:101AC0000895FC01828193819DBD8CBD80E00895C5
:101AD000FC01828184BD80E0089583E0089583E065
:101AE000089583E0089583E008950097A9F0633096
:101AF000A8F4613059F020F0623091F083E008954D
:101B0000909377018093760180E00895909375011A
:101B10008093740180E0089583E0089583E0089540
:101B200080E00895843048F514BC813071F028F0CD
:101B3000823099F08330C9F022C085B5877F85BD9A
:101B400085B58F7B85BD80E0089585B5877F85BD90
:101B500085B5806485BD80E0089585B5886085BDC4
:101B600085B58F7B85BD80E0089585B5886085BD8E
:101B700085B5806485BD80E0089581E0089581E0A9
:101B80000895883070F480937301909172019130C0
:101B900051F495B5987F892B95B5892B85BD80E04B
:101BA000089581E0089580E0089588B7806488BF33
:101BB00089B7806489BF80E0089589B78F7B89BF2A
:101BC00080E0089595B580917301892B85BD81E0F2
:101BD0008093720180E0089585B5887F85BD10925D
:101BE000720180E00895009721F090937101809335
:101BF0007001089514BC089584B508958FB7806866
:101C00008FBF08951F920F920FB60F9211242F933A
:101C10003F934F935F936F937F938F939F93AF9374
:101C2000BF93EF93FF9380916F018F5F80936F015C
:101C300090918C00891309C0E0917001F0917101BD
:101C4000309719F010926F010995FF91EF91BF91B4
:101C5000AF919F918F917F916F915F914F913F9144
:101C60002F910F900FBE0F901F9018950E94190F83
:101C700008F481E008950E944F0E0C94540F0E94C6
:101C80004D0F58F00E94460F40F029F45F3F29F0B5
:101C90000C943D0F51110C94880F0C94430F0E942B
:101CA000650F68F39923B1F3552391F3951B550BF9
:101CB000BB27AA2762177307840738F09F5F5F4F1F
:101CC000220F331F441FAA1FA9F335D00E2E3AF05E
:101CD000E0E832D091505040E695001CCAF72BD076
:101CE000FE2F29D0660F771F881FBB1F26173707C7
:101CF0004807AB07B0E809F0BB0B802DBF01FF27F9
:101D000093585F4F3AF09E3F510578F00C943D0F89
:101D10000C94880F5F3FE4F3983ED4F38695779553
:101D20006795B795F7959F5FC9F7880F911D9695B1
:101D3000879597F90895E1E0660F771F881FBB1F0D
:101D4000621773078407BA0720F0621B730B840BBA
:101D5000BA0BEE1F88F7E09508950E946D0F88F08A
:101D60009F5798F0B92F9927B751B0F0E1F0660F5F
:101D7000771F881F991F1AF0BA95C9F714C0B130A0
:101D800091F00E94870FB1E008950C94870F672FA0
:101D9000782F8827B85F39F0B93FCCF386957795CF
:101DA0006795B395D9F73EF49095809570956195B8
:101DB0007F4F8F4F9F4F0895E89409C097FB3EF4E3
:101DC00090958095709561957F4F8F4F9F4F992388
:101DD000A9F0F92F96E9BB279395F6958795779506
:101DE0006795B795F111F8CFFAF4BB0F11F460FFC6
:101DF0001BC06F5F7F4F8F4F9F4F16C0882311F01E
:101E000096E911C0772321F09EE8872F762F05C031
:101E1000662371F096E8862F70E060E02AF09A95CC
:101E2000660F771F881FDAF7880F9695879597F9C1
:101E30000895990F0008550FAA0BE0E8FEEF16165B
:101E40001706E807F907C0F012161306E407F507AE
:101E500098F0621B730B840B950B39F40A2661F022
:101E6000232B242B252B21F408950A2609F4A140C5
:101E7000A6958FEF811D811D089597F99F6780E8D2
:101E800070E060E008959FEF80EC089500240A94CC
:101E90001616170618060906089500240A94121645
:101EA0001306140605060895092E0394000C11F478
:101EB000882352F0BB0F40F4BF2B11F460FF04C025
:101EC0006F5F7F4F8F4F9F4F089557FD9058440F7E
:101ED000551F59F05F3F71F04795880F97FB991F89
:101EE00061F09F3F79F08795089512161306140646
:101EF000551FF2CF4695F1DF08C0161617061806D3
:101F0000991FF1CF86957105610508940895E894AD
:101F1000BB2766277727CB0197F908950E94190FF1
:101F200008F48FEF089597FB072E16F4009407D05E
:101F300077FD09D00E94AD0F07FC05D03EF49095C7
:101F400081959F4F0895709561957F4F0895EE0F8D
:101F5000FF1F0590F491E02D0994AA1BBB1B51E1D2
:101F600007C0AA1FBB1FA617B70710F0A61BB70B09
:101F7000881F991F5A95A9F780959095BC01CD01AE
:101F80000895BB274A3031F4992322F4BDE290959D
:101F900081959F4F0C94CD0FBB27FB015527AA2796
:101FA000880F991FAA1FA41710F0A41B83955051E6
:101FB000B9F7A05DAA3308F0A95DA193009779F75E
:101FC000B111B1931192CB010C94E60FDC01FC012D
:101FD000672F71917723E1F7329704C07C916D935D
:101FE00070836291AE17BF07C8F30895F894FFCFCE
:101FF00001077CE1016C00020002010202020302FF
:1020000004020502060301000001000304030403A7
:1020100005030603070007F800013007014C656659
:1020200074005269676874004D6F746F7220737426
:102030006172747320696E0032205365632E005301
:102040006574204465662E20526F742E00446973B7
:10205000743A200020636D0053706565643A333034
:102060002520004469723A460053706565643A352C
:102070003025200053706565643A3025004469724C
:102080003A530053706565643A3130302500446935
:10209000723A520053706565643A302520004469F5
:1020A000723A62004D6F746F722053746F70706576
:1020B0006400547279696E6720616761696E206996
:1020C0006E003120736563004D4F544F5220696E8E
:1020D0002049444C45003132333435363738392ABB
:0220E0003023AB
:00000001FF
