:100000000C9446000C947B080C94A2080C94C9082C
:100010000C9463000C94070C0C9463000C94630024
:100020000C9463000C9420090C9463000C94F00869
:100030000C9463000C9463000C9463000C946300B4
:100040000C9463000C9463000C9463000C946300A4
:100050000C946300F909040A0F0A1F0B1A0A1F0BFC
:10006000250A300A3B0A460A5C0A670A720A210B13
:100070007D0A210B880A930A9E0AA90ABF0ACA0AA6
:10008000D50AE00AEB0AF60A010B0C0B11241FBE7D
:10009000CFE5D8E0DEBFCDBF10E0A0E6B0E0EAEAF1
:1000A000FBE102C005900D92AC3FB107D9F721E00A
:1000B000ACEFB0E001C01D92A532B207E1F70E949B
:1000C000B9060C94D30D0C9400009091FE0081E0D1
:1000D00089278093FE0008958091FF008F5F8093B1
:1000E000FF0080E690E00E94DF0508950E948206EE
:1000F0000E949C060E94A50387E690E00E94EB0404
:1001000063E080E00E94070380E690E00E94A6057D
:100110000E94A50580E096E00E94B30684E196E087
:100120000E94B60685E690E00E941D038FEF8ABB11
:1001300008950E94A3061092FF0080E690E00E94BE
:10014000C6050E94280327C08091FE008130A9F4D3
:1001500064E00E94970480E20E94060460E081E06F
:100160000E94970481E890E00E94AF0481E890E04B
:1001700090937700809376000EC060E081E00E944B
:10018000970486E890E00E94AF0486E890E09093A0
:100190007700809376008091FF008330A8F20E9460
:1001A0008004809160000E94D8050E9425030E946F
:1001B0009C060895CF92DF92EF92FF928BE191E03F
:1001C0000E94280580911B018E3459F0813319F06B
:1001D000823321F006C01092750003C081E0809345
:1001E0007500809175008111E0C18091FD00811141
:1001F00010C00E94800460E080E00E9497048CE8B8
:1002000090E00E94AF040E94990081E08093FD007D
:1002100066C0813009F063C00E94A80660931C018B
:1002200070931D0180931E0190931F018FE295E74B
:100230000197F1F700C00000C0901C01D0901D0193
:10024000E0901E01F0901F0120E030E04CE852E405
:10025000C701B6010E94930D181624F481E0809323
:10026000FC003DC020E030E040EF51E4C701B601A2
:100270000E94930D181674F420E030E04CE852E42C
:10028000C701B6010E943B0C181624F082E080934F
:10029000FC0025C020E030E040EA51E4C701B6018F
:1002A0000E94930D882374F020E030E040EF51E489
:1002B000C701B6010E943B0C181624F083E080931E
:1002C000FC000DC020E030E040EA51E4C701B60177
:1002D0000E943B0C88231CF484E08093FC008091F6
:1002E000FC00813021F560E00E9497048AE990E0EB
:1002F0000E94AF0460911C0170911D0180911E014C
:1003000090911F010E94B20C0E94CC0481EA90E0FF
:100310000E94AF0460E080E00E94970485EA90E0CC
:100320000E94AF0480EB90E00E94AF046BC182306A
:1003300029F560E081E00E9497048AE990E00E943C
:10034000AF0460911C0170911D0180911E0190917C
:100350001F010E94B20C0E94CC0481EA90E00E942E
:10036000AF0460E080E00E94970486EB90E00E947A
:10037000AF0480EB90E00E94AF0444C1833009F0E9
:10038000A4C060E081E00E9497048AE990E00E94A6
:10039000AF0460911C0170911D0180911E0190912C
:1003A0001F010E94B20C0E94CC0481EA90E00E94DE
:1003B000AF0460E080E00E94970486EB90E00E942A
:1003C000AF0481EC90E00E94AF049FEF24E38CE047
:1003D000915020408040E1F700C0000060E080E0E4
:1003E0000E94970486EB90E00E94AF0487EC90E0B7
:1003F0000E94AF0432C00E94A80660931C01709353
:100400001D0180931E0190931F0160E081E00E9416
:1004100097048AE990E00E94AF0460911C017091FA
:100420001D0180911E0190911F010E94B20C0E943B
:10043000CC0481EA90E00E94AF0460911C017091AD
:100440001D0180911E0190911F0120E030E040EAE3
:1004500051E40E943B0C18168CF460911C017091C1
:100460001D0180911E0190911F0120E030E040EFBE
:1004700051E40E943B0C18160CF0BDCF60911C019A
:1004800070911D0180911E0190911F0120E030E0CC
:1004900040EA51E40E94930D18160CF0B3C060E0DE
:1004A00080E00E94970486EB90E00E94AF0480EB0E
:1004B00090E00E94AF049FEF24E38CE09150204035
:1004C0008040E1F700C000009DC0843009F09AC070
:1004D00060E081E00E9497048AE990E00E94AF0406
:1004E00060911C0170911D0180911E0190911F016E
:1004F0000E94B20C0E94CC0481EA90E00E94AF04FA
:1005000060E080E00E94970486EB90E00E94AF04D8
:1005100081EC90E00E94AF049FEF24E38CE09150C7
:1005200020408040E1F700C0000060E080E00E94D1
:10053000970486EB90E00E94AF048DEC90E00E945F
:10054000AF0422C00E94A80660931C0170931D0195
:1005500080931E0190931F0160E081E00E94970448
:100560008AE990E00E94AF0460911C0170911D0126
:1005700080911E0190911F010E94B20C0E94CC0438
:1005800081EA90E00E94AF0460911C0170911D010E
:1005900080911E0190911F0120E030E040EA51E47B
:1005A0000E943B0C181674F62DC08130B1F4809176
:1005B0000101811109C00E9480041092020181E0B2
:1005C000809301011092000160E080E00E94970496
:1005D00083ED90E00E94AF0415C08091020181116B
:1005E00009C00E94800481E0809302011092010101
:1005F0001092000160E080E00E94970481EE90E09C
:100600000E94AF04FF90EF90DF90CF900895CF93BA
:10061000DF93C82FD62F40E062E083E00E94BE0641
:1006200040E062E083E00E94F8066D2F8C2F0E946C
:10063000DE0781E0DF91CF910895009721F00E94BD
:100640005B0881E0089580E008950E9465080895A0
:100650000E94690808950F931F93CF93DF93182F7B
:1006600040E060E083E00E94F806C82F40E067E0C9
:1006700082E00E94F806C82B012F02950F70D0E08F
:1006800015C0ED2FF0E0402F50E00D2E02C0559523
:1006900047950A94E2F74170EE0FFF1FE858FF4FAD
:1006A000618180810E94F806C82BDF5FD43048F357
:1006B00041E061E083E00E94F806C82B89EF90E0FA
:1006C0000197F1F700C0000040E061E083E00E9484
:1006D000F806C82B92E49A95F1F700C01F70D0E09D
:1006E00015C0ED2FF0E0412F50E00D2E02C05595C2
:1006F00047950A94E2F74170EE0FFF1FE858FF4F4D
:10070000618180810E94F806C82BDF5FD43048F3F6
:1007100041E061E083E00E94F806C82BE9EFF0E0D9
:100720003197F1F700C0000040E061E083E00E94F3
:10073000F8068C2BE3EFF1E03197F1F700C00000F1
:10074000DF91CF911F910F910895CF93DF93D0E068
:10075000C0E00DC0ED2FF0E0EE0FFF1FE858FF4F97
:1007600041E0618180810E94BE06C82BDF5FD430EA
:1007700088F341E067E082E00E94BE06C82B41E0BA
:1007800060E083E00E94BE06C82B41E061E083E0A8
:100790000E94BE06C82B8FE097E20197F1F700C0D8
:1007A000000082E00E942B03C82BE9EFF0E03197B4
:1007B000F1F700C0000088E20E942B03C82B89EFEC
:1007C00090E00197F1F700C0000081E00E942B0348
:1007D000C82BE7EEF3E03197F1F700C0000086E0A8
:1007E0000E942B03C82B89EF90E00197F1F700C01E
:1007F00000008CE00E942B038C2BE9EFF0E0319796
:10080000F1F700C00000DF91CF9108950F931F937F
:10081000CF93DF93182F40E060E083E00E94F8065A
:10082000C82F41E067E082E00E94F806C82B012F44
:1008300002950F70D0E015C0ED2FF0E0402F50E092
:100840000D2E02C0559547950A94E2F74170EE0FC0
:10085000FF1FE858FF4F618180810E94F806C82B76
:10086000DF5FD43048F341E061E083E00E94F806A6
:10087000C82B89EF90E00197F1F700C0000040E03D
:1008800061E083E00E94F806C82B92E49A95F1F7A4
:1008900000C01F70D0E015C0ED2FF0E0412F50E0F8
:1008A0000D2E02C0559547950A94E2F74170EE0F60
:1008B000FF1FE858FF4F618180810E94F806C82B16
:1008C000DF5FD43048F341E061E083E00E94F80646
:1008D000C82BE9EFF0E03197F1F700C0000040E0ED
:1008E00061E083E00E94F8068C2BE3EFF1E03197A2
:1008F000F1F700C00000DF91CF911F910F91089593
:10090000CF9381E00E942B03C82F87EE93E00197DD
:10091000F1F700C0000082E00E942B038C2BE7EE71
:10092000F3E03197F1F700C00000CF9108958111F5
:1009300008C0603130F4862F8F7080680E942B03CE
:100940000895813041F4603140F4862F8F70806CBF
:100950000E942B03089585E0089585E00895EF92A5
:10096000FF921F93CF93DF937C01FC018081C0E055
:10097000D0E010E008C00E940604182B2196F70171
:10098000EC0FFD1F80818111F6CF812FDF91CF9178
:100990001F91FF90EF900895CF93DF93CDB7DEB70F
:1009A0002A970FB6F894DEBF0FBECDBFDC01CB0196
:1009B0004AE0BE016F5F7F4F0E949E0DCE010196FF
:1009C0000E94AF042A960FB6F894DEBF0FBECDBFCB
:1009D000DF91CF910895CF93DF930097A9F1EC01B8
:1009E000698140E088810E94BE066B8140E08A8177
:1009F0000E94BE066D8140E08C810E94BE06698126
:100A000041E088810E94F8066B8141E08A810E9462
:100A1000F8066D8141E08C810E94F8066F8141E00B
:100A20008E810E94BE06698541E088850E94BE06CF
:100A30006B8541E08A850E94BE066D8541E08C850C
:100A40000E94BE0680E001C087E0DF91CF9108954B
:100A5000DF92EF92FF920F931F93CF93DF931F923A
:100A6000CDB7DEB77C0107E610E0F801678141E011
:100A700086810E94F806F801618541E080850E9428
:100A8000F806F801638541E082850E94F806F801C6
:100A9000658541E084850E94F80600E0D12C42C0C3
:100AA000E7E6F0E06781600F40E086810E94F8068B
:100AB00010E02DC0E7E6F0E06181610FAE014F5F0D
:100AC0005F4F80810E947307898181111FC00AC016
:100AD000E7E6F0E06181610FAE014F5F5F4F80811B
:100AE0000E9473078981882399F3802F90E0FC018D
:100AF000EE0FFF1FE80FF91FE151FF4FE10FF11D4E
:100B00008081F7018083DD24D39403C01F5F1330FD
:100B100088F2E7E6F0E06781600F41E086810E949D
:100B2000F8060F5F043008F4BBCFF1E0DF1619F0D0
:100B30008EE4F701808380E00F90DF91CF911F91C9
:100B40000F91FF90EF90DF90089508951F93CF933A
:100B5000DF93009791F0FC012081233080F4218104
:100B60002A3078F4EC010E945009182F68818D8199
:100B70009E810E947A0B812B05C083E003C083E035
:100B800001C083E0DF91CF911F910895009751F04C
:100B9000FC012081233040F421812A3038F40E9466
:100BA000D909089583E0089583E0089583E00895C6
:100BB000833018F40E94250B089583E00895009770
:100BC00051F0FC012081233040F421812A3038F497
:100BD0000E94520B089583E0089583E0089583E016
:100BE000089541E063E081E00E94F8068AE18A9579
:100BF000F1F700C040E063E081E00E94F80608954C
:100C00008091080190910901A0910A01B0910B0116
:100C10000196A11DB11D8093080190930901A09335
:100C20000A01B0930B01089580910701811114C04E
:100C30000E94FF0B62E082E00E94DE0781E0809369
:100C40000701109208011092090110920A011092F6
:100C50000B010E94E70B089580910701813009F094
:100C600050C00E94F10B0E94010C809320018091E2
:100C7000080190910901A0910A01B0910B018093A4
:100C8000210190932201A0932301B093240120918C
:100C900020018091210190912201A0912301B09126
:100CA0002401BA2FA92F982F8827BC01CD01620FEC
:100CB000711D811D911D0E94E10C2DEC3CE349E664
:100CC00054E40E94400C60930301709304018093EC
:100CD00005019093060110922101109222011092B9
:100CE0002301109224011092080110920901109220
:100CF0000A0110920B011092070163E082E00E944A
:100D0000DE07089541E063E081E00E94BE0640E016
:100D100062E081E00E94BE0640E062E081E00E9465
:100D2000F80663E082E00E94DE0780E00E94970BF5
:100D300081E00E94C60B08950E94DA0B0E9474089D
:100D40000E94030C08950E94E20B0E94700808950F
:100D50000E94F105609103017091040180910501E9
:100D60009091060108950E94F80B08950E94600872
:100D700008950E9476000E94DA00FDCF6830A0F549
:100D800081110BC08AB350E002C0440F551F6A9511
:100D9000E2F7482B4ABB80E00895813059F487B3CD
:100DA00050E002C0440F551F6A95E2F7482B47BB3D
:100DB00080E00895823059F484B350E002C0440FBB
:100DC000551F6A95E2F7482B44BB80E008958330B5
:100DD00069F481B350E002C0440F551F6A95E2F7F1
:100DE000482B41BB80E0089581E0089582E008959A
:100DF000683008F074C081111BC0413061F42BB31E
:100E000081E090E002C0880F991F6A95E2F7822B7B
:100E10008BBB80E008952BB381E090E002C0880F87
:100E2000991F6A95E2F7809582238BBB80E0089535
:100E30008130D9F4413061F428B381E090E002C000
:100E4000880F991F6A95E2F7822B88BB80E008958E
:100E500028B381E090E002C0880F991F6A95E2F7FD
:100E60008095822388BB80E008958230D9F4413098
:100E700061F425B381E090E002C0880F991F6A9564
:100E8000E2F7822B85BB80E0089525B381E090E0F6
:100E900002C0880F991F6A95E2F78095822385BB6F
:100EA00080E008958330E9F4413061F422B381E0B9
:100EB00090E002C0880F991F6A95E2F7822B82BBEF
:100EC00080E0089522B381E090E002C0880F991F6E
:100ED0006A95E2F78095822382BB80E0089581E0E5
:100EE000089582E00895683008F064C0811117C049
:100EF00079B381E090E09C01062E02C0220F331FDF
:100F00000A94E2F7872F90E08223932302C09695FC
:100F100087956A95E2F7FA01808380E00895813031
:100F2000B9F476B381E090E09C01062E02C0220F56
:100F3000331F0A94E2F7872F90E08223932302C0A5
:100F4000969587956A95E2F7FA01808380E0089587
:100F50008230B9F473B381E090E09C01062E02C0A8
:100F6000220F331F0A94E2F7872F90E08223932306
:100F700002C0969587956A95E2F7FA01808380E032
:100F800008958330C9F470B381E090E09C01062E8F
:100F900002C0220F331F0A94E2F7872F90E08223CA
:100FA000932302C0969587956A95E2F7FA018083AC
:100FB00080E0089581E0089582E00895833008F08C
:100FC00070C0643008F06FC0811128C0613071F0CA
:100FD00028F0623099F06330C9F067C085B78E7F22
:100FE00085BF85B78D7F85BF81E0089585B7816016
:100FF00085BF85B78D7F85BF81E0089585B78E7FDA
:1010000085BF85B7826085BF81E0089585B781601F
:1010100085BF85B7826085BF81E00895813081F505
:10102000613071F028F0623099F06330C9F020C06F
:1010300085B78B7F85BF85B7877F85BF81E019C066
:1010400085B7846085BF85B7877F85BF81E011C084
:1010500085B78B7F85BF85B7886085BF81E009C074
:1010600085B7846085BF85B7886085BF81E001C092
:1010700080E09BB790689BBF9AB790689ABF08952D
:101080008230A9F4623019F0633031F012C084B7B5
:101090008F7B84BF81E0089584B7806484BF81E042
:1010A000089580E0089580E0089580E0089581E04B
:1010B000089580E0089590931101809310010895A0
:1010C00090930F0180930E0108958BB78F7B8BBF98
:1010D00008958AB780648ABF8BB780648BBF0895F8
:1010E0008BB78F7D8BBF08958BB780628BBF8AB71C
:1010F00080628ABF08951F920F920FB60F9211243B
:101100002F933F934F935F936F937F938F939F930F
:10111000AF93BF93EF93FF93E0911001F091110112
:101120000995FF91EF91BF91AF919F918F917F9121
:101130006F915F914F913F912F910F900FBE0F9044
:101140001F9018951F920F920FB60F9211242F9394
:101150003F934F935F936F937F938F939F93AF933F
:10116000BF93EF93FF93E0910C01F0910D0109956E
:10117000FF91EF91BF91AF919F918F917F916F916F
:101180005F914F913F912F910F900FBE0F901F9045
:1011900018951F920F920FB60F9211242F933F9321
:1011A0004F935F936F937F938F939F93AF93BF936F
:1011B000EF93FF93E0910E01F0910F010995FF91DC
:1011C000EF91BF91AF919F918F917F916F915F91BF
:1011D0004F913F912F910F900FBE0F901F90189538
:1011E0001F920F920FB60F9211242F933F934F939C
:1011F0005F936F937F938F939F93AF93BF93EF937F
:10120000FF938091190190911A01892B41F088B7C1
:101210008E7F88BFE0911901F0911A010995FF9125
:10122000EF91BF91AF919F918F917F916F915F915E
:101230004F913F912F910F900FBE0F901F901895D7
:101240001F920F920FB60F9211242F933F934F933B
:101250005F936F937F938F939F93AF93BF93EF931E
:10126000FF938091170190911801892B41F088B765
:101270008B7F88BFE0911701F09118010995FF91CC
:10128000EF91BF91AF919F918F917F916F915F91FE
:101290004F913F912F910F900FBE0F901F90189577
:1012A000009709F478C0FC012081233008F075C054
:1012B00031813A3008F073C0213019F120F022302A
:1012C00009F450C06EC012BE13BE1CBEFC012281C8
:1012D00022BF23B7206823BF23B72F7B23BF23B7A9
:1012E000277F23BF23B72F7E23BF23B72F7D23BFA5
:1012F0008481813009F057C089B7816089BF80E05F
:1013000008951CBC1DBC1FBC1EBC1BBC1ABCFC0130
:10131000228133813DBD2CBD2FB528602FBD2FB557
:1013200024602FBD2FB52E7F2FBD2FB52D7F2FBD54
:101330002EB52F7E2EBD2EB5277F2EBD2FB52F7B30
:101340002FBD2FB52F772FBD2FB52F7E2FBD2FB5DA
:101350002F7D2FBD8481813041F589B7846089BF9D
:1013600080E0089514BC15BC13BC14BC25B52F7BBC
:1013700025BD25B5277F25BD25B52F7E25BD25B5E6
:101380002F7D25BDFC018481813089F489B780647B
:1013900089BF80E0089583E0089583E0089583E0A5
:1013A000089583E0089580E0089580E0089580E046
:1013B0000895009709F43BC1DC012C91233008F01B
:1013C00038C11196EC91EA3008F035C1213009F4AA
:1013D00068C020F0223009F4C7C02FC18E2F90E0E2
:1013E0008A30910508F02BC1FC01E65DFF4F0C949B
:1013F000980D83B78E7F83BF83B78D7F83BF83B7FD
:101400008B7F83BF80E0089583B7816083BF83B7FC
:101410008D7F83BF83B78B7F83BF80E0089583B7C1
:101420008E7F83BF83B7826083BF83B78B7F83BF89
:1014300080E0089583B7816083BF83B7826083BFF4
:1014400083B78B7F83BF80E0089583B78E7F83BF90
:1014500083B78D7F83BF83B7846083BF80E00895A7
:1014600083B7816083BF83B78D7F83BF83B7846079
:1014700083BF80E0089583B78E7F83BF83B7826088
:1014800083BF83B7846083BF80E0089583B78160A2
:1014900083BF83B7826083BF83B7846083BF80E0EC
:1014A00008958E2F90E08A30910508F0CAC0FC01A3
:1014B000EC5CFF4F0C94980D8EB58E7F8EBD8EB573
:1014C0008D7F8EBD8EB58B7F8EBD80E008958EB5ED
:1014D00081608EBD8EB58D7F8EBD8EB58B7F8EBDAE
:1014E00080E008958EB58E7F8EBD8EB582608EBDF4
:1014F0008EB58B7F8EBD80E008958EB581608EBDE8
:101500008EB582608EBD8EB58B7F8EBD80E00895D6
:101510008EB58E7F8EBD8EB58D7F8EBD8EB584606F
:101520008EBD80E008958EB581608EBD8EB58D7FB5
:101530008EBD8EB584608EBD80E008958EB58E7FA1
:101540008EBD8EB582608EBD8EB584608EBD80E00E
:1015500008958EB581608EBD8EB582608EBD8EB5CC
:1015600084608EBD80E008958E2F90E088309105D4
:1015700008F069C0FC01E25CFF4F0C94980D85B542
:101580008B7F85BD85B58D7F85BD85B58E7F85BDFE
:1015900080E0089585B5846085BD85B58D7F85BD66
:1015A00085B58E7F85BD80E0089585B58B7F85BD2F
:1015B00085B5826085BD85B58E7F85BD80E0089547
:1015C00085B5846085BD85B5826085BD85B58E7F16
:1015D00085BD80E0089585B58B7F85BD85B58D7F00
:1015E00085BD85B5816085BD80E0089585B5846041
:1015F00085BD85B58D7F85BD85B5816085BD80E064
:10160000089585B58B7F85BD85B5826085BD85B51F
:10161000816085BD80E0089585B5846085BD85B510
:10162000826085BD85B5816085BD80E0089583E0D9
:10163000089583E0089583E0089583E0089583E0AA
:10164000089583E0089583E00895833038F581306C
:1016500079F018F08230B9F023C083B78E7F83BF52
:1016600083B78D7F83BF83B78B7F83BF80E008956F
:101670008EB58E7F8EBD8EB58D7F8EBD8EB58B7FE8
:101680008EBD80E0089585B58B7F85BD85B58D7F46
:1016900085BD85B58E7F85BD80E0089583E0089582
:1016A00083E008950097F1F0FC0120812330E0F4FD
:1016B00031813A30D8F4213049F018F0223069F005
:1016C00017C0FC01828182BF80E00895FC01828105
:1016D00093819DBD8CBD80E00895FC01828184BD15
:1016E00080E0089583E0089583E0089583E00895FD
:1016F00083E008950097A9F06330A8F4613059F0B1
:1017000020F0623091F083E0089590931A01809365
:10171000190180E00895909318018093170180E0EB
:10172000089583E0089583E0089580E0089584306B
:1017300048F514BC813071F028F0823099F0833084
:10174000C9F022C085B5877F85BD85B58F7B85BDF6
:1017500080E0089585B5877F85BD85B5806485BDAA
:1017600080E0089585B5886085BD85B58F7B85BD92
:1017700080E0089585B5886085BD85B5806485BDA8
:1017800080E0089581E0089581E00895883070F444
:101790008093160190911501913051F495B5987F81
:1017A000892B95B5892B85BD80E0089581E008954A
:1017B00080E0089588B7806488BF89B7806489BF56
:1017C00080E0089589B78F7B89BF80E0089595B543
:1017D00080911601892B85BD81E08093150180E001
:1017E000089585B5887F85BD1092150180E0089524
:1017F000009721F09093140180931301089514BC75
:10180000089584B508958FB780688FBF08951F929B
:101810000F920FB60F9211242F933F934F935F9324
:101820006F937F938F939F93AF93BF93EF93FF93A8
:10183000809112018F5F8093120190918000891333
:1018400009C0E0911301F0911401309719F0109242
:1018500012010995FF91EF91BF91AF919F918F91E7
:101860007F916F915F914F913F912F910F900FBE9C
:101870000F901F9018950E941E0D08F481E00895A6
:101880000E94540C0C94590D0E94520D58F00E9465
:101890004B0D40F029F45F3F29F00C94420D51119B
:1018A0000C948D0D0C94480D0E946A0D68F39923D9
:1018B000B1F3552391F3951B550BBB27AA2762174C
:1018C0007307840738F09F5F5F4F220F331F441F59
:1018D000AA1FA9F335D00E2E3AF0E0E832D091508D
:1018E0005040E695001CCAF72BD0FE2F29D0660F7A
:1018F000771F881FBB1F261737074807AB07B0E8BD
:1019000009F0BB0B802DBF01FF2793585F4F3AF0C2
:101910009E3F510578F00C94420D0C948D0D5F3F65
:10192000E4F3983ED4F3869577956795B795F79548
:101930009F5FC9F7880F911D9695879597F9089530
:10194000E1E0660F771F881FBB1F621773078407CC
:10195000BA0720F0621B730B840BBA0BEE1F88F7DB
:10196000E09508950E94720D88F09F5798F0B92F66
:101970009927B751B0F0E1F0660F771F881F991FC4
:101980001AF0BA95C9F714C0B13091F00E948C0DCD
:10199000B1E008950C948C0D672F782F8827B85FDD
:1019A00039F0B93FCCF3869577956795B395D9F71C
:1019B0003EF490958095709561957F4F8F4F9F4F26
:1019C0000895E89409C097FB3EF490958095709532
:1019D00061957F4F8F4F9F4F9923A9F0F92F96E97B
:1019E000BB279395F695879577956795B795F111F0
:1019F000F8CFFAF4BB0F11F460FF1BC06F5F7F4F8D
:101A00008F4F9F4F16C0882311F096E911C077239E
:101A100021F09EE8872F762F05C0662371F096E8A7
:101A2000862F70E060E02AF09A95660F771F881F76
:101A3000DAF7880F9695879597F90895990F00081A
:101A4000550FAA0BE0E8FEEF16161706E807F90790
:101A5000C0F012161306E407F50798F0621B730B2B
:101A6000840B950B39F40A2661F0232B242B252BAC
:101A700021F408950A2609F4A140A6958FEF811D4F
:101A8000811D089597F99F6780E870E060E00895F0
:101A90009FEF80EC089500240A9416161706180686
:101AA0000906089500240A94121613061406050662
:101AB0000895092E0394000C11F4882352F0BB0FF3
:101AC00040F4BF2B11F460FF04C06F5F7F4F8F4F56
:101AD0009F4F089557FD9058440F551F59F05F3F91
:101AE00071F04795880F97FB991F61F09F3F79F040
:101AF00087950895121613061406551FF2CF4695C2
:101B0000F1DF08C0161617061806991FF1CF869543
:101B10007105610508940895E894BB276627772727
:101B2000CB0197F908950E941E0D08F48FEF0895D8
:101B3000EE0FFF1F0590F491E02D0994BB274A306A
:101B400031F4992322F4BDE2909581959F4F0C9436
:101B5000AA0DBB27FB015527AA27880F991FAA1F8B
:101B6000A41710F0A41B83955051B9F7A05DAA33B8
:101B700008F0A95DA193009779F7B111B193119283
:101B8000CB010C94C30DDC01FC01672F719177230D
:101B9000E1F7329704C07C916D9370836291AE1728
:0A1BA000BF07C8F30895F894FFCFC3
:101BAA0001077CE1016C0002000201020202030249
:101BBA00040205020602860003040305030603075E
:101BCA00014C656674005269676874005365742035
:101BDA004465662E20526F742E00446973743A204D
:101BEA000020636D0053706565643A353025200026
:101BFA004469723A460053706565643A3330252069
:101C0A00004469723A53004469723A520044697254
:101C1A003A62004D6F746F722053746F707065640E
:101C2A00004D4F544F5220696E2049444C450031B3
:0C1C3A0032333435363738392A30230075
:00000001FF
