S01D00004F6273746163616C2061766F6964696E67206361722E7372656317
S11300000C9446000C94540A0C947B0A0C94A20A97
S11300100C9463000C94E00D0C9463000C94630046
S11300200C9463000C94F90A0C9463000C94C90AB0
S11300300C9463000C9463000C9463000C946300B0
S11300400C9463000C9463000C9463000C946300A0
S11300500C946300D20BDD0BE80BF80CF30BF80CDB
S1130060FE0B090C140C1F0C350C400C4B0CFA0C39
S1130070560CFA0C610C6C0C770C820C980CA30CCB
S1130080AE0CB90CC40CCF0CDA0CE50C11241FBE59
S1130090CFE5D8E0DEBFCDBF11E0A0E6B0E0ECEAEA
S11300A0FFE102C005900D92AC33B107D9F721E00E
S11300B0ACE3B1E001C01D92AB36B207E1F70E9498
S11300C092080C94D40F0C94000090913E0181E0AE
S11300D0892780933E01089580913F018F5F80932B
S11300E03F0180E690E00E94B80708950E945B08F3
S11300F00E9475080E94A10487E690E00E94E7052B
S113010063E080E00E94030480E690E00E947F07A1
S11301100E940B070E948B0389ED97E00E948C08D4
S11301208DEE97E00E948F0885E690E00E94190406
S113013008950E947C0810923F0180E690E00E949E
S11301409F070E9424041DC080913E01813079F4F0
S113015064E00E94930580E20E94020560E081E071
S11301600E9493058DE890E00E94AB050AC08111BE
S113017008C060E081E00E94930582E990E00E945B
S1130180AB0580913F018330F8F20E947C05809199
S113019060000E94B1070E9421040E9475082FEF9D
S11301A083ED90E3215080409040E1F700C00000CF
S11301B00895CF92DF92EF92FF9281E691E00E9440
S11301C02406809161018E3459F0813319F0823311
S11301D021F006C01092750003C081E08093750081
S11301E08091750081112EC280913D01811110C052
S11301F00E947C0560E080E00E94930588E990E01D
S11302000E94AB050E94990081E080933D0166C085
S1130210813009F063C00E94810860936201709389
S1130220630180936401909365018FE295E70197E0
S1130230F1F700C00000C0906201D0906301E0902B
S11302406401F090650120E030E04CE852E4C7011D
S1130250B6010E946C0F181624F481E080933C01CF
S11302603DC020E030E040EF51E4C701B6010E94F8
S11302706C0F181674F420E030E04CE852E4C70127
S1130280B6010E94140E181624F082E080933C01FB
S113029025C020E030E040EA51E4C701B6010E94E5
S11302A06C0F882374F020E030E040EF51E4C70184
S11302B0B6010E94140E181624F083E080933C01CA
S11302C00DC020E030E040EA51E4C701B6010E94CD
S11302D0140E88231CF484E080933C0180913C013B
S11302E0813009F050C060E00E94930586EA90E0F6
S11302F00E94AB0560916201709163018091640179
S1130300909165010E948B0E0E94C8058DEA90E0D1
S11303100E94AB0510923F0180E690E00E949F0787
S113032011C060E080E00E94930581EB90E00E94A0
S1130330AB058CEB90E00E94AB0540E064E18EE1FC
S11303400E941A0780913F01863020F48091400179
S1130350882339F381E080934001809160000E94FA
S1130360B10760E080E00E94930582EC90E00E9477
S1130370AB058CEB90E00E94AB0540E064E182E3C6
S11303800E941A07C3C1823061F51092400160E0F7
S113039081E00E94930586EA90E00E94AB0560919B
S11303A062017091630180916401909165010E94E2
S11303B08B0E0E94C8058DEA90E00E94AB0560E0B8
S11303C080E00E94930581EB90E00E94AB058CEBEA
S11303D090E00E94AB0540E064E18EE10E941A07C0
S11303E095C1833009F0B5C0109240010E946E0798
S11303F060E081E00E94930586EA90E00E94AB05EC
S11304006091620170916301809164019091650132
S11304100E948B0E0E94C8058DEA90E00E94AB05F5
S113042060E080E00E9493058DEC90E00E94AB05B3
S113043086ED90E00E94AB050E94EF039FEF24E35A
S11304408CE0915020408040E1F700C0000060E063
S113045080E00E9493058CED90E00E94AB0587EE4E
S113046090E00E94AB0563C080917600853040F532
S113047080913E01813089F40E94DB039FEF29E6DD
S113048088E1915020408040E1F700C00000809155
S113049076008F5F8093760017C0811115C00E948B
S11304A0C7039FEF29E688E1915020408040E1F79F
S11304B000C00000809176008F5F8093760004C0B6
S11304C082E08093750022C10E94810860936201DA
S11304D070936301809364019093650160E081E00F
S11304E00E94930586EA90E00E94AB056091620148
S11304F07091630180916401909165010E948B0E5B
S11305000E94C8058DEA90E00E94AB0560916201EB
S113051070916301809164019091650120E030E065
S113052040EA51E40E94140E18160CF0EFC06091DA
S1130530620170916301809164019091650120E0F2
S113054030E040EF51E40E94140E18160CF08CCFEA
S1130550DDC0843009F0DAC01092400160E081E02F
S11305600E94930586EA90E00E94AB0560916201C7
S11305707091630180916401909165010E948B0EDA
S11305800E94C8058DEA90E00E94AB0560E080E01F
S11305900E9493058DEE90E00E94AB0586ED90E0FD
S11305A00E94AB050E94EF039FEF24E38CE091507F
S11305B020408040E1F700C0000060E080E00E943D
S11305C0930581EB90E00E94AB0587EF90E00E94D9
S11305D0AB0527C041E064E18EE10E941A070E9446
S11305E08108609362017093630180936401909326
S11305F0650160E081E00E94930586EA90E00E9434
S1130600AB056091620170916301809164019091E6
S113061065010E948B0E0E94C8058DEA90E00E943D
S1130620AB056091620170916301809164019091C6
S1130630650120E030E040EA51E40E94140E1816EF
S11306404CF664C08130B1F480914201811109C03B
S11306500E947C051092430181E080934201109234
S1130660410160E080E00E9493058DEF90E00E94DC
S1130670AB054CC08230A9F50E947C0560E080E0A7
S11306800E9493058DEF90E00E94AB050E94EF035A
S11306909FEF23ED80E3915020408040E1F700C0BC
S11306A000000E947C0560E080E00E9493058BE0DE
S11306B091E00E94AB0560E081E00E9493058BE12C
S11306C091E00E94AB059FEF29E688E1915020401C
S11306D08040E1F700C0000010927600109275008F
S11306E015C080914301811109C00E947C0581E0FD
S11306F080934301109242011092410160E080E036
S11307000E94930581E291E00E94AB05FF90EF9077
S1130710DF90CF900895CF938AE790E00E94A106DE
S1130720C82F87E790E00E94A106C11103C0811180
S113073003C003C08BE001C08BE0CF910895CF9339
S11307408AE790E00E94B906C82F87E790E00E94EC
S1130750B906C11103C0811103C003C08BE001C0FD
S11307608BE0CF910895CF938AE790E00E94D10661
S1130770C82F87E790E00E94D106C11103C0811100
S113078003C003C08BE001C08BE0CF910895CF93E9
S11307908AE790E00E94B906C82F87E790E00E949C
S11307A0D106C11103C0811103C003C08BE001C095
S11307B08BE0CF910895CF938AE790E00E94B90629
S11307C0C82F87E790E00E94D106811103C0C111B0
S11307D003C003C08BE001C08BE0CF910895CF9399
S11307E08AE790E00E94E906C82F87E790E00E941C
S11307F0E906C11103C0811103C003C08BE001C02D
S11308008BE0CF910895CF93DF93C82FD62F40E08C
S113081062E083E00E94970840E062E083E00E9487
S1130820D1086D2F8C2F0E94B70980E0DF91CF9102
S11308300895009721F00E94340A80E0089585E02D
S113084008950E943E0A08950E94420A08950F9353
S11308501F93CF93DF93182F40E060E083E00E9462
S1130860D108C82F40E067E082E00E94D108C82B7D
S1130870012F02950F70D0E015C0ED2FF0E0402F4E
S113088050E00D2E02C0559547950A94E2F7417049
S1130890EE0FFF1FE358FF4F618180810E94D10852
S11308A0C82BDF5FD43048F341E061E083E00E946D
S11308B0D108C82B89EF90E00197F1F700C0000040
S11308C040E061E083E00E94D108C82B92E49A954D
S11308D0F1F700C01F70D0E015C0ED2FF0E0412FFC
S11308E050E00D2E02C0559547950A94E2F74170E9
S11308F0EE0FFF1FE358FF4F618180810E94D108F2
S1130900C82BDF5FD43048F341E061E083E00E940C
S1130910D108C82BE9EFF0E03197F1F700C00000EF
S113092040E061E083E00E94D1088C2BE3EFF1E02A
S11309303197F1F700C00000DF91CF911F910F9123
S11309400895CF93DF93D0E0C0E00DC0ED2FF0E029
S1130950EE0FFF1FE358FF4F41E0618180810E9449
S11309609708C82BDF5FD43088F341E067E082E06A
S11309700E949708C82B41E060E083E00E9497083A
S1130980C82B41E061E083E00E949708C82B8FE008
S113099097E20197F1F700C0000082E00E9427046B
S11309A0C82BE9EFF0E03197F1F700C0000088E2CE
S11309B00E942704C82B89EF90E00197F1F700C04B
S11309C0000081E00E942704C82BE7EEF3E0319792
S11309D0F1F700C0000086E00E942704C82B89EFCD
S11309E090E00197F1F700C000008CE00E9427041A
S11309F08C2BE9EFF0E03197F1F700C00000DF91B4
S1130A00CF9108950F931F93CF93DF93182F40E056
S1130A1060E083E00E94D108C82F41E067E082E0F3
S1130A200E94D108C82B012F02950F70D0E015C089
S1130A30ED2FF0E0402F50E00D2E02C05595479564
S1130A400A94E2F74170EE0FFF1FE358FF4F6181F4
S1130A5080810E94D108C82BDF5FD43048F341E085
S1130A6061E083E00E94D108C82B89EF90E00197F0
S1130A70F1F700C0000040E061E083E00E94D1088B
S1130A80C82B92E49A95F1F700C01F70D0E015C00E
S1130A90ED2FF0E0412F50E00D2E02C05595479503
S1130AA00A94E2F74170EE0FFF1FE358FF4F618194
S1130AB080810E94D108C82BDF5FD43048F341E025
S1130AC061E083E00E94D108C82BE9EFF0E03197A0
S1130AD0F1F700C0000040E061E083E00E94D1082B
S1130AE08C2BE3EFF1E03197F1F700C00000DF91C8
S1130AF0CF911F910F910895CF9381E00E94270415
S1130B00C82F87EE93E00197F1F700C0000082E060
S1130B100E9427048C2BE7EEF3E03197F1F700C035
S1130B200000CF910895811108C0603130F4862F00
S1130B308F7080680E9427040895813041F46031E9
S1130B4040F4862F8F70806C0E942704089588E0FB
S1130B50089588E00895EF92FF921F93CF93DF9357
S1130B607C01FC018081C0E0D0E010E008C00E945C
S1130B700205182B2196F701EC0FFD1F80818111CE
S1130B80F6CF812FDF91CF911F91FF90EF900895C1
S1130B90CF93DF93CDB7DEB72A970FB6F894DEBFB5
S1130BA00FBECDBFDC01CB014AE0BE016F5F7F4FBA
S1130BB00E949F0FCE0101960E94AB052A960FB6A4
S1130BC0F894DEBF0FBECDBFDF91CF910895CF93D0
S1130BD0DF930097A9F1EC01698140E088810E94CC
S1130BE097086B8140E08A810E9497086D8140E0FC
S1130BF08C810E949708698141E088810E94D10814
S1130C006B8141E08A810E94D1086D8141E08C8131
S1130C100E94D1086F8141E08E810E949708698506
S1130C2041E088850E9497086B8541E08A850E948F
S1130C3097086D8541E08C850E94970880E001C08B
S1130C4087E0DF91CF910895DF92EF92FF920F93A7
S1130C501F93CF93DF931F92CDB7DEB77C0107E6D6
S1130C6010E0F801678141E086810E94D108F80113
S1130C70618541E080850E94D108F801638541E0E7
S1130C8082850E94D108F801658541E084850E942F
S1130C90D10800E0D12C42C0E7E6F0E06781600FA4
S1130CA040E086810E94D10810E02DC0E7E6F0E024
S1130CB06181610FAE014F5F5F4F80810E944C09DB
S1130CC0898181111FC00AC0E7E6F0E06181610FEC
S1130CD0AE014F5F5F4F80810E944C098981882358
S1130CE099F3802F90E0FC01EE0FFF1FE80FF91F2E
S1130CF0E15DFE4FE10FF11D8081F7018083DD246A
S1130D00D39403C01F5F133088F2E7E6F0E06781F5
S1130D10600F41E086810E94D1080F5F043008F41F
S1130D20BBCFF1E0DF1619F08EE4F701808380E099
S1130D300F90DF91CF911F910F91FF90EF90DF9073
S1130D400895CF93DF93EC0141E0698188810E948B
S1130D509708811108C041E06A8188810E94970840
S1130D60811103C003C089E001C089E0DF91CF9104
S1130D700895CF93DF93EC0141E0698188810E945B
S1130D80D108811108C040E06A8188810E94D1089D
S1130D90811103C003C089E001C089E0DF91CF91D4
S1130DA00895CF93DF93EC0140E0698188810E942C
S1130DB0D108811108C041E06A8188810E94D1086C
S1130DC0811103C003C089E001C089E0DF91CF91A4
S1130DD00895CF93DF93EC0140E0698188810E94FC
S1130DE0D108811108C040E06A8188810E94D1083D
S1130DF0811103C003C089E001C089E0DF91CF9174
S1130E000895809147018F5F8093470185E890E0C2
S1130E100E94B8070895CF9385E890E00E947F0769
S1130E20C82F0E948B038C2B19F491E090934801F6
S1130E30CF9108950F931F93CF93DF93909148011F
S1130E40992309F444C0923069F4909146019813AF
S1130E5007C090914501961303C0909144019413E7
S1130E6010924701142F062F809346016093450189
S1130E7040934401689FC001112464E670E00E941D
S1130E80710FD62F85E890E00E949F07C82F0BC0F2
S1130E90111104C00E949F03C82B05C0113019F41E
S1130EA00E94B303C82B809147018D1788F303C0B8
S1130EB00E94EF03C82B80914701801710F48D170F
S1130EC0B8F71092470182E08093480101C0CAE05C
S1130ED08C2FDF91CF911F910F910895809148013C
S1130EE0823059F4809185000E94B1071092470125
S1130EF083E08093480180E008958AE008951F9379
S1130F00CF93DF93009791F0FC012081233080F48C
S1130F1021812A3078F4EC010E94290B182F688172
S1130F208D819E810E94530D812B05C083E003C0F7
S1130F3083E001C083E0DF91CF911F910895009772
S1130F4051F0FC012081233040F421812A3038F40F
S1130F500E94B20B089583E0089583E0089583E02E
S1130F600895833018F40E94FE0C089583E00895D8
S1130F70009751F0FC012081233040F421812A3074
S1130F8038F40E942B0D089583E0089583E00895BA
S1130F9083E0089541E063E081E00E94D1088AE1A2
S1130FA08A95F1F700C040E063E081E00E94D10837
S1130FB0089580914E0190914F01A0915001B091FC
S1130FC051010196A11DB11D80934E0190934F01D3
S1130FD0A0935001B0935101089580914D01811166
S1130FE014C00E94D80D62E082E00E94B70981E03B
S1130FF080934D0110924E0110924F0110925001B6
S1131000109251010E94C00D089580914D018130CC
S113101009F050C00E94CA0D0E94DA0D8093660147
S113102080914E0190914F01A0915001B0915101D6
S11310308093670190936801A0936901B0936A015A
S1131040209166018091670190916801A0916901E6
S1131050B0916A01BA2FA92F982F8827BC01CD011E
S1131060620F711D811D911D0E94BA0E2DEC3CE38F
S113107049E654E40E94190E6093490170934A01B1
S113108080934B0190934C01109267011092680178
S11310901092690110926A0110924E0110924F0150
S11310A0109250011092510110924D0163E082E0C0
S11310B00E94B709089541E063E081E00E94970827
S11310C040E062E081E00E94970840E062E081E055
S11310D00E94D10863E082E00E94B70980E00E9488
S11310E0700D81E00E949F0D08950E94B30D0E942F
S11310F04D0A0E94DC0D08950E94BB0D0E94490A0E
S113110008950E94CA076091490170914A01809133
S11311104B0190914C0108950E94D10D08950E94B5
S1131120390A08950E9476000E94D900FDCF6830E4
S1131130A0F581110BC08AB350E002C0440F551FC3
S11311406A95E2F7482B4ABB80E00895813059F450
S113115087B350E002C0440F551F6A95E2F7482B4D
S113116047BB80E00895823059F484B350E002C054
S1131170440F551F6A95E2F7482B44BB80E008955D
S1131180833069F481B350E002C0440F551F6A955F
S1131190E2F7482B41BB80E0089581E0089582E0A6
S11311A00895683008F074C081111BC0413061F4A7
S11311B02BB381E090E002C0880F991F6A95E2F793
S11311C0822B8BBB80E008952BB381E090E002C0BA
S11311D0880F991F6A95E2F7809582238BBB80E084
S11311E008958130D9F4413061F428B381E090E06E
S11311F002C0880F991F6A95E2F7822B88BB80E0B2
S1131200089528B381E090E002C0880F991F6A9581
S1131210E2F78095822388BB80E008958230D9F478
S1131220413061F425B381E090E002C0880F991F3A
S11312306A95E2F7822B85BB80E0089525B381E0AF
S113124090E002C0880F991F6A95E2F78095822387
S113125085BB80E008958330E9F4413061F422B322
S113126081E090E002C0880F991F6A95E2F7822B13
S113127082BB80E0089522B381E090E002C0880F31
S1131280991F6A95E2F78095822382BB80E00895D6
S113129081E0089582E00895683008F064C0811107
S11312A017C079B381E090E09C01062E02C0220FA2
S11312B0331F0A94E2F7872F90E08223932302C01E
S11312C0969587956A95E2F7FA01808380E0089500
S11312D08130B9F476B381E090E09C01062E02C01F
S11312E0220F331F0A94E2F7872F90E0822393237F
S11312F002C0969587956A95E2F7FA01808380E0AB
S113130008958230B9F473B381E090E09C01062E15
S113131002C0220F331F0A94E2F7872F90E0822342
S1131320932302C0969587956A95E2F7FA01808324
S113133080E008958330C9F470B381E090E09C01AB
S1131340062E02C0220F331F0A94E2F7872F90E083
S11313508223932302C0969587956A95E2F7FA0152
S1131360808380E0089581E0089582E008958330C9
S113137008F070C0643008F06FC0811128C061307B
S113138071F028F0623099F06330C9F067C085B716
S11313908E7F85BF85B78D7F85BF80E0089585B733
S11313A0816085BF85B78D7F85BF80E0089585B74F
S11313B08E7F85BF85B7826085BF80E0089585B73D
S11313C0816085BF85B7826085BF80E008958130E4
S11313D081F5613071F028F0623099F06330C9F022
S11313E020C085B78B7F85BF85B7877F85BF80E0A9
S11313F019C085B7846085BF85B7877F85BF80E0C6
S113140011C085B78B7F85BF85B7886085BF80E0B5
S113141009C085B7846085BF85B7886085BF80E0D3
S113142001C084E09BB790689BBF9AB790689ABF4D
S113143008958230A9F4623019F0633031F012C09B
S113144084B78F7B84BF80E0089584B7806484BFB1
S113145080E0089584E0089584E0089584E0089588
S113146080E0089584E00895909357018093560195
S11314700895909355018093540108958BB78F7B01
S11314808BBF08958AB780648ABF8BB780648BBF93
S113149008958BB78F7D8BBF08958BB780628BBF08
S11314A08AB780628ABF08951F920F920FB60F9277
S11314B011242F933F934F935F936F937F938F9355
S11314C09F93AF93BF93EF93FF93E0915601F091F5
S11314D057010995FF91EF91BF91AF919F918F9122
S11314E07F916F915F914F913F912F910F900FBE1C
S11314F00F901F9018951F920F920FB60F92112400
S11315002F933F934F935F936F937F938F939F9307
S1131510AF93BF93EF93FF93E0915201F091530186
S11315200995FF91EF91BF91AF919F918F917F9119
S11315306F915F914F913F912F910F900FBE0F903C
S11315401F9018951F920F920FB60F9211242F938C
S11315503F934F935F936F937F938F939F93AF9337
S1131560BF93EF93FF93E0915401F09155010995D6
S1131570FF91EF91BF91AF919F918F917F916F9167
S11315805F914F913F912F910F900FBE0F901F903D
S113159018951F920F920FB60F9211242F933F9319
S11315A04F935F936F937F938F939F93AF93BF9367
S11315B0EF93FF9380915F0190916001892B41F03B
S11315C088B78E7F88BFE0915F01F0916001099533
S11315D0FF91EF91BF91AF919F918F917F916F9107
S11315E05F914F913F912F910F900FBE0F901F90DD
S11315F018951F920F920FB60F9211242F933F93B9
S11316004F935F936F937F938F939F93AF93BF9306
S1131610EF93FF9380915D0190915E01892B41F0DE
S113162088B78B7F88BFE0915D01F0915E010995D9
S1131630FF91EF91BF91AF919F918F917F916F91A6
S11316405F914F913F912F910F900FBE0F901F907C
S11316501895009709F478C0FC012081233008F024
S113166075C031813A3008F073C0213019F120F08F
S1131670223009F450C06EC012BE13BE1CBEFC0161
S1131680228122BF23B7206823BF23B72F7B23BF28
S113169023B7277F23BF23B72F7E23BF23B72F7DF5
S11316A023BF8481813009F057C089B7816089BF25
S11316B080E008951CBC1DBC1FBC1EBC1BBC1ABC16
S11316C0FC01228133813DBD2CBD2FB528602FBD87
S11316D02FB524602FBD2FB52E7F2FBD2FB52D7FA5
S11316E02FBD2EB52F7E2EBD2EB5277F2EBD2FB537
S11316F02F7B2FBD2FB52F772FBD2FB52F7E2FBD5D
S11317002FB52F7D2FBD8481813041F589B7846049
S113171089BF80E0089514BC15BC13BC14BC25B566
S11317202F7B25BD25B5277F25BD25B52F7E25BD5E
S113173025B52F7D25BDFC018481813089F489B7CD
S1131740806489BF80E0089583E0089583E008956C
S113175083E0089583E0089580E0089580E008958B
S113176080E00895009709F43BC1DC012C912330FB
S113177008F038C11196EC91EA3008F035C12130F7
S113178009F468C020F0223009F4C7C02FC18E2F9D
S113179090E08A30910508F02BC1FC01E65DFF4F13
S11317A00C94850F83B78E7F83BF83B78D7F83BFF0
S11317B083B78B7F83BF80E0089583B7816083BF45
S11317C083B78D7F83BF83B78B7F83BF80E008950A
S11317D083B78E7F83BF83B7826083BF83B78B7FDA
S11317E083BF80E0089583B7816083BF83B782603D
S11317F083BF83B78B7F83BF80E0089583B78E7FD9
S113180083BF83B78D7F83BF83B7846083BF80E04A
S1131810089583B7816083BF83B78D7F83BF83B708
S1131820846083BF80E0089583B78E7F83BF83B7CE
S1131830826083BF83B7846083BF80E0089583B7E9
S1131840816083BF83B7826083BF83B7846083BFB3
S113185080E008958E2F90E08A30910508F0CAC088
S1131860FC01EC5CFF4F0C94850F8EB58E7F8EBD12
S11318708EB58D7F8EBD8EB58B7F8EBD80E0089535
S11318808EB581608EBD8EB58D7F8EBD8EB58B7FFE
S11318908EBD80E008958EB58E7F8EBD8EB582603C
S11318A08EBD8EB58B7F8EBD80E008958EB5816030
S11318B08EBD8EB582608EBD8EB58B7F8EBD80E071
S11318C008958EB58E7F8EBD8EB58D7F8EBD8EB5FF
S11318D084608EBD80E008958EB581608EBD8EB526
S11318E08D7F8EBD8EB584608EBD80E008958EB5EB
S11318F08E7F8EBD8EB582608EBD8EB584608EBDAA
S113190080E008958EB581608EBD8EB582608EBDF7
S11319108EB584608EBD80E008958E2F90E088306F
S1131920910508F069C0FC01E25CFF4F0C94850F3F
S113193085B58B7F85BD85B58D7F85BD85B58E7F4E
S113194085BD80E0089585B5846085BD85B58D7FAE
S113195085BD85B58E7F85BD80E0089585B58B7F77
S113196085BD85B5826085BD85B58E7F85BD80E0EA
S1131970089585B5846085BD85B5826085BD85B5CE
S11319808E7F85BD80E0089585B58B7F85BD85B547
S11319908D7F85BD85B5816085BD80E0089585B561
S11319A0846085BD85B58D7F85BD85B5816085BD28
S11319B080E0089585B58B7F85BD85B5826085BD42
S11319C085B5816085BD80E0089585B5846085BD59
S11319D085B5826085BD85B5816085BD80E008954B
S11319E083E0089583E0089583E0089583E00895F3
S11319F083E0089583E0089583E00895833038F503
S1131A00813079F018F08230B9F023C083B78E7F2B
S1131A1083BF83B78D7F83BF83B78B7F83BF80E012
S1131A2008958EB58E7F8EBD8EB58D7F8EBD8EB59D
S1131A308B7F8EBD80E0089585B58B7F85BD85B590
S1131A408D7F85BD85B58E7F85BD80E0089583E05B
S1131A50089583E008950097F1F0FC01208123307C
S1131A60E0F431813A30D8F4213049F018F02230D2
S1131A7069F017C0FC01828182BF80E00895FC01F7
S1131A80828193819DBD8CBD80E00895FC0182819B
S1131A9084BD80E0089583E0089583E0089583E0A1
S1131AA0089583E008950097A9F06330A8F46130A5
S1131AB059F020F0623091F083E008959093600132
S1131AC080935F0180E0089590935E0180935D01AF
S1131AD080E0089583E0089583E0089580E0089508
S1131AE0843048F514BC813071F028F0823099F0CC
S1131AF08330C9F022C085B5877F85BD85B58F7BCE
S1131B0085BD80E0089585B5877F85BD85B58064F2
S1131B1085BD80E0089585B5886085BD85B58F7BDA
S1131B2085BD80E0089585B5886085BD85B58064F0
S1131B3085BD80E0089581E0089581E008958830AE
S1131B4070F480935C0190915B01913051F495B5F0
S1131B50987F892B95B5892B85BD80E0089581E018
S1131B60089580E0089588B7806488BF89B7806449
S1131B7089BF80E0089589B78F7B89BF80E008958D
S1131B8095B580915C01892B85BD81E080935B01D3
S1131B9080E0089585B5887F85BD10925B0180E063
S1131BA00895009721F090935A0180935901089564
S1131BB014BC089584B508958FB780688FBF0895C5
S1131BC01F920F920FB60F9211242F933F934F93AE
S1131BD05F936F937F938F939F93AF93BF93EF9391
S1131BE0FF93809158018F5F8093580190918C00EE
S1131BF0891309C0E0915901F0915A01309719F005
S1131C00109258010995FF91EF91BF91AF919F9167
S1131C108F917F916F915F914F913F912F910F9091
S1131C200FBE0F901F9018950E94F70E08F481E0E4
S1131C3008950E942D0E0C94320F0E942B0F58F021
S1131C400E94240F40F029F45F3F29F00C941B0FED
S1131C5051110C94660F0C94210F0E94430F68F3EA
S1131C609923B1F3552391F3951B550BBB27AA2751
S1131C7062177307840738F09F5F5F4F220F331F8B
S1131C80441FAA1FA9F335D00E2E3AF0E0E832D053
S1131C9091505040E695001CCAF72BD0FE2F29D056
S1131CA0660F771F881FBB1F261737074807AB0728
S1131CB0B0E809F0BB0B802DBF01FF2793585F4F9D
S1131CC03AF09E3F510578F00C941B0F0C94660F6C
S1131CD05F3FE4F3983ED4F3869577956795B7957F
S1131CE0F7959F5FC9F7880F911D9695879597F98A
S1131CF00895E1E0660F771F881FBB1F6217730703
S1131D008407BA0720F0621B730B840BBA0BEE1F17
S1131D1088F7E09508950E944B0F88F09F5798F03C
S1131D20B92F9927B751B0F0E1F0660F771F881FDC
S1131D30991F1AF0BA95C9F714C0B13091F00E94F6
S1131D40650FB1E008950C94650F672F782F8827ED
S1131D50B85F39F0B93FCCF3869577956795B3951D
S1131D60D9F73EF490958095709561957F4F8F4F8C
S1131D709F4F0895E89409C097FB3EF49095809591
S1131D80709561957F4F8F4F9F4F9923A9F0F92F3D
S1131D9096E9BB279395F695879577956795B795BB
S1131DA0F111F8CFFAF4BB0F11F460FF1BC06F5FA1
S1131DB07F4F8F4F9F4F16C0882311F096E911C0B3
S1131DC0772321F09EE8872F762F05C0662371F0D4
S1131DD096E8862F70E060E02AF09A95660F771FE8
S1131DE0881FDAF7880F9695879597F90895990FC4
S1131DF00008550FAA0BE0E8FEEF16161706E807D1
S1131E00F907C0F012161306E407F50798F0621BF1
S1131E10730B840B950B39F40A2661F0232B242BC6
S1131E20252B21F408950A2609F4A140A6958FEFE5
S1131E30811D811D089597F99F6780E870E060E037
S1131E4008959FEF80EC089500240A94161617064F
S1131E5018060906089500240A9412161306140697
S1131E6005060895092E0394000C11F4882352F0FA
S1131E70BB0F40F4BF2B11F460FF04C06F5F7F4FB2
S1131E808F4F9F4F089557FD9058440F551F59F099
S1131E905F3F71F04795880F97FB991F61F09F3F53
S1131EA079F087950895121613061406551FF2CF7C
S1131EB04695F1DF08C0161617061806991FF1CFCC
S1131EC086957105610508940895E894BB276627F3
S1131ED07727CB0197F908950E94F70E08F48FEF46
S1131EE0089597FB072E16F4009407D077FD09D0C8
S1131EF00E948B0F07FC05D03EF4909581959F4F6F
S1131F000895709561957F4F0895EE0FFF1F05901A
S1131F10F491E02D0994AA1BBB1B51E107C0AA1F31
S1131F20BB1FA617B70710F0A61BB70B881F991F76
S1131F305A95A9F780959095BC01CD010895BB27CA
S1131F404A3031F4992322F4BDE2909581959F4F54
S1131F500C94AB0FBB27FB015527AA27880F991FA9
S1131F60AA1FA41710F0A41B83955051B9F7A05DC4
S1131F70AA3308F0A95DA193009779F7B111B19341
S1131F801192CB010C94C40FDC01FC01672F7191F9
S1131F907723E1F7329704C07C916D93708362914B
S10F1FA0AE17BF07C8F30895F894FFCFF4
S1131FAC01077CE1016C000200020102020203023F
S1131FBC04020502060301000001000304030403E8
S1131FCC05030603070007F800010107014C6566C9
S1131FDC7400526967687400536574204465662EF6
S1131FEC20526F742E00446973743A200020636D80
S1131FFC0053706565643A33302520004469723AA5
S113200C460053706565643A35302520005370657D
S113201C65643A3025004469723A5300537065651F
S113202C643A31303025004469723A520053706579
S113203C65643A302520004469723A62004D6F742D
S113204C6F722053746F7070656400547279696E8A
S113205C6720616761696E20696E00312073656366
S113206C004D4F544F5220696E2049444C45003169
S10F207C32333435363738392A3023002B
S9030000FC
