:100000000C942A000C94A1040C94C8040C9447008E
:100010000C9447000C94BA050C9447000C944700CC
:100020000C9447000C941F050C9447000C94EF04AB
:100030000C9447000C9447000C9447000C94470024
:100040000C9447000C9447000C9447000C94470014
:100050000C94470011241FBECFE5D8E0DEBFCDBF12
:1000600010E0A0E6B0E0E4E9FFE002C005900D92E8
:10007000A837B107D9F720E0A8E7B0E001C01D928A
:10008000AF3AB207E1F70E9459030C94C8070C94E9
:1000900000000E942A0382EA92E00E94530386EB4A
:1000A00092E00E94560380E690E00E941F010895AE
:1000B0000E94480360938F0070939000809391009A
:1000C000909392008FE295E70197F1F700C000004E
:1000D00061E081E00E94C10160918F007091900009
:1000E00080919100909192000E94CD060E947A0228
:1000F0000895CF93DF93C3E9D0E06E8941E08D8905
:100100000E94980382E08A95F1F700C06E8940E072
:100110008D890E949803DF91CF9108951F93CF930B
:10012000DF93EC01162F6E8940E08D890E949803C1
:100130006A8940E089890E9498036C8940E08B8934
:100140000E94980380917800811170C0412F441F54
:100150004427441F68898F850E949803412F40746B
:1001600050E0042E452F000C441F550B000C441F7B
:10017000551F6E858D850E949803412F407250E077
:100180005595479555954795559547955595479557
:10019000559547956C858B850E949803412F40713A
:1001A00050E05595479555954795559547955595E3
:1001B00047956A8589850E9498030E9479008FE699
:1001C00097E10197F1F700C00000412F487050E01F
:1001D00055954795559547955595479568898F85C8
:1001E0000E949803412F447050E0559547955595CE
:1001F00047956E858D850E949803412F427050E08F
:10020000559547956C858B850E9498036A85412F8B
:10021000417089850E9498030E9479008FE697E1DA
:100220000197F1F700C0000080E005C0813011F4B3
:1002300080E001C085E0DF91CF911F9108951F9369
:10024000CF93DF93EC016A8941E089890E945E03C4
:10025000182F6C8941E08B890E945E03182B6E89F0
:1002600041E08D890E945E03182B8881882319F054
:10027000813071F16EC062E0CE010E948E0068E2B2
:10028000CE010E948E006CE0CE010E948E0066E0DE
:10029000CE010E948E0061E0CE010E948E006A8530
:1002A00041E089850E945E03182B6C8541E08B85B7
:1002B0000E945E03182B6E8541E08D850E945E03CF
:1002C000182B688941E08F850E945E03182B42C07D
:1002D00068E3CE010E948E006CE0CE010E948E0089
:1002E00066E0CE010E948E0061E0CE010E948E0089
:1002F0006A8141E089810E945E03182B6C8141E094
:100300008B810E945E03182B6E8141E08D810E94DB
:100310005E03182B688541E08F810E945E03182BD5
:100320006A8541E089850E945E03182B6C8541E057
:100330008B850E945E03182B6E8541E08D850E949F
:100340005E03182B688941E08F850E945E03182B9D
:1003500001C015E0888180937800FE0101900020A3
:10036000E9F73197AF014C1B5D0B4F5F5F4FBE014B
:1003700083E990E00E948A07812FDF91CF911F913E
:100380000895813019F0823041F00EC0615883E940
:1003900090E00E948E0080E00895615483E990E02F
:1003A0000E948E0080E0089585E008951F93CF930A
:1003B000DF93EC01162F6E8940E08D890E9498032F
:1003C0006A8941E089890E9498036C8940E08B89A1
:1003D0000E9498038091780081116EC0412F441FC4
:1003E0004427441F68898F850E949803412F4074D9
:1003F00050E0042E452F000C441F550B000C441FE9
:10040000551F6E858D850E949803412F407250E0E4
:1004100055954795559547955595479555954795C4
:10042000559547956C858B850E949803412F4071A7
:1004300050E0559547955595479555954795559550
:1004400047956A8589850E9498030E9479008FE606
:1004500097E10197F1F700C00000412F487050E08C
:1004600055954795559547955595479568898F8535
:100470000E949803412F447050E05595479555953B
:1004800047956E858D850E949803412F427050E0FC
:10049000559547956C858B850E9498036A85412FF9
:1004A000417089850E9498030E9479008FE697E148
:1004B0000197F1F700C00000DF91CF911F910895DF
:1004C0000F931F93CF93009781F08C01C0E005C07C
:1004D00083E990E00E94D601CF5FF801EC0FF11D97
:1004E00060816111F5CF80E001C085E0CF911F915F
:1004F0000F910895CF93DF9300D000D0CDB7DEB732
:10050000DC01CB014AE0BE016F5F7F4F0E94930781
:10051000CE0101960E9460020F900F900F900F90F5
:10052000DF91CF91089541E060E081E00E9498035F
:100530008AE18A95F1F700C040E060E081E00E9426
:100540009803089580917E0090917F00A091800093
:10055000B09181000196A11DB11D80937E00909302
:100560007F00A0938000B0938100089580917D006A
:10057000811114C00E94B20562E080E00E94130461
:1005800081E080937D0010927E0010927F00109297
:100590008000109281000E949A05089580917D004C
:1005A000813009F056C00E94A4050E94B4058093D2
:1005B000AA0080917E0090917F00A0918000B09170
:1005C00081008093AB009093AC00A093AD00B093FA
:1005D000AE002091AA008091AB009091AC00A09158
:1005E000AD00B091AE00BA2FA92F982F8827BC017B
:1005F000CD01620F711D811D911D0E94FC062DEC25
:100600003CE349E654E40E945B0620E030E040E031
:1006100050E40E94EE056093790070937A00809315
:100620007B0090937C001092AB001092AC00109273
:10063000AD001092AE0010927E0010927F001092DA
:1006400080001092810010927D0063E080E00E94A3
:100650001304089541E060E081E00E945E0340E001
:1006600062E083E00E945E0340E062E083E00E947B
:10067000980363E080E00E94130480E00E944F052D
:1006800081E00E947E050E9492050E94B6050895B1
:100690000E9493026091790070917A0080917B00B2
:1006A00090917C0008950E94AB0508950E949C04DF
:1006B00008950E9449000E945800FDCF6830A0F5BF
:1006C00081110BC08AB350E002C0440F551F6A95D8
:1006D000E2F7482B4ABB80E00895813059F487B394
:1006E00050E002C0440F551F6A95E2F7482B47BB04
:1006F00080E00895823059F484B350E002C0440F82
:10070000551F6A95E2F7482B44BB80E0089583307B
:1007100069F481B350E002C0440F551F6A95E2F7B7
:10072000482B41BB80E0089581E0089582E0089560
:10073000683008F074C081111BC0413061F42BB3E4
:1007400081E090E002C0880F991F6A95E2F7822B42
:100750008BBB80E008952BB381E090E002C0880F4E
:10076000991F6A95E2F7809582238BBB80E00895FC
:100770008130D9F4413061F428B381E090E002C0C7
:10078000880F991F6A95E2F7822B88BB80E0089555
:1007900028B381E090E002C0880F991F6A95E2F7C4
:1007A0008095822388BB80E008958230D9F441305F
:1007B00061F425B381E090E002C0880F991F6A952B
:1007C000E2F7822B85BB80E0089525B381E090E0BD
:1007D00002C0880F991F6A95E2F78095822385BB36
:1007E00080E008958330E9F4413061F422B381E080
:1007F00090E002C0880F991F6A95E2F7822B82BBB6
:1008000080E0089522B381E090E002C0880F991F34
:100810006A95E2F78095822382BB80E0089581E0AB
:10082000089582E00895833008F080C0643008F0B5
:100830007FC0811130C0613071F028F0623099F0D2
:100840006330C9F020C085B78E7F85BF85B78D7FA7
:1008500085BF81E019C085B7816085BF85B78D7F71
:1008600085BF81E011C085B78E7F85BF85B7826067
:1008700085BF81E009C085B7816085BF85B782608B
:1008800085BF81E001C080E09AB790649ABF9BB7B2
:1008900090649BBF0895813081F5613071F028F03C
:1008A000623099F06330C9F020C085B78B7F85BF77
:1008B00085B7877F85BF81E019C085B7846085BF14
:1008C00085B7877F85BF81E011C085B78B7F85BFE6
:1008D00085B7886085BF81E009C085B7846085BF22
:1008E00085B7886085BF81E001C080E09BB79068D4
:1008F0009BBF9AB790689ABF08958230D9F462304E
:1009000019F0633031F00AC084B78F7B84BF81E077
:1009100006C084B7806484BF81E001C080E09BB7DB
:1009200090629BBF9AB790629ABF089580E0089545
:1009300080E0089581E0089590938500809384007D
:1009400008951F920F920FB60F9211242F933F9389
:100950004F935F936F937F938F939F93AF93BF93C7
:10096000EF93FF93E0918400F09185000995FF914A
:10097000EF91BF91AF919F918F917F916F915F9117
:100980004F913F912F910F900FBE0F901F90189590
:100990001F920F920FB60F9211242F933F934F93F4
:1009A0005F936F937F938F939F93AF93BF93EF93D7
:1009B000FF93E0918200F09183000995FF91EF9100
:1009C000BF91AF919F918F917F916F915F914F9167
:1009D0003F912F910F900FBE0F901F9018951F926F
:1009E0000F920FB60F9211242F933F934F935F9363
:1009F0006F937F938F939F93AF93BF93EF93FF93E7
:100A000080918D0090918E00892B41F088B78E7F68
:100A100088BFE0918D00F0918E000995FF91EF91D4
:100A2000BF91AF919F918F917F916F915F914F9106
:100A30003F912F910F900FBE0F901F9018951F920E
:100A40000F920FB60F9211242F933F934F935F9302
:100A50006F937F938F939F93AF93BF93EF93FF9386
:100A600080918B0090918C00892B41F088B78B7F0F
:100A700088BFE0918B00F0918C000995FF91EF9178
:100A8000BF91AF919F918F917F916F915F914F91A6
:100A90003F912F910F900FBE0F901F9018958430AB
:100AA00048F514BC813071F028F0823099F0833021
:100AB000C9F022C085B5877F85BD85B58F7B85BD93
:100AC00080E0089585B5877F85BD85B5806485BD47
:100AD00080E0089585B5886085BD85B58F7B85BD2F
:100AE00080E0089585B5886085BD85B5806485BD45
:100AF00080E0089581E0089581E00895883070F4E1
:100B000080938A0090918900913051F495B5987F37
:100B1000892B95B5892B85BD80E0089581E00895E6
:100B200080E0089588B7806488BF89B7806489BFF2
:100B300080E0089595B580918A00892B85BD81E07C
:100B40008093890080E0089585B5887F85BD1092E7
:100B5000890080E00895009721F0909388008093A9
:100B60008700089514BC089584B508958FB78068F0
:100B70008FBF08951F920F920FB60F9211242F93DB
:100B80003F934F935F936F937F938F939F93AF9315
:100B9000BF93EF93FF93809186008F5F80938600D1
:100BA00090917700891309C0E0918700F091880047
:100BB000309719F0109286000995FF91EF91BF913F
:100BC000AF919F918F917F916F915F914F913F91E5
:100BD0002F910F900FBE0F901F9018955058BB2764
:100BE000AA270E9406060C9450070E94420738F07C
:100BF0000E94490720F039F49F3F19F426F40C9421
:100C00003F070EF4E095E7FB0C943907E92F0E94AB
:100C1000610758F3BA17620773078407950720F036
:100C200079F4A6F50C9483070EF4E0950B2EBA2FF9
:100C3000A02D0B01B90190010C01CA01A0011124E2
:100C4000FF27591B99F0593F50F4503E68F11A168E
:100C5000F040A22F232F342F4427585FF3CF46951F
:100C600037952795A795F0405395C9F77EF41F1641
:100C7000BA0B620B730B840BBAF09150A1F0FF0F0B
:100C8000BB1F661F771F881FC2F70EC0BA0F621FF7
:100C9000731F841F48F4879577956795B795F795E7
:100CA0009E3F08F0B0CF9395880F08F09927EE0F7C
:100CB0009795879508950E946F060C9450070E949F
:100CC000490758F00E94420740F029F45F3F29F09D
:100CD0000C94390751110C9484070C943F070E941F
:100CE000610768F39923B1F3552391F3951B550BD5
:100CF000BB27AA2762177307840738F09F5F5F4FEF
:100D0000220F331F441FAA1FA9F335D00E2E3AF02D
:100D1000E0E832D091505040E695001CCAF72BD045
:100D2000FE2F29D0660F771F881FBB1F2617370796
:100D30004807AB07B0E809F0BB0B802DBF01FF27C8
:100D400093585F4F3AF09E3F510578F00C94390765
:100D50000C9484075F3FE4F3983ED4F3869577952F
:100D60006795B795F7959F5FC9F7880F911D969581
:100D7000879597F90895E1E0660F771F881FBB1FDD
:100D8000621773078407BA0720F0621B730B840B8A
:100D9000BA0BEE1F88F7E09508950E94690788F066
:100DA0009F5798F0B92F9927B751B0F0E1F0660F2F
:100DB000771F881F991F1AF0BA95C9F714C0B13070
:100DC00091F00E948307B1E008950C948307672F88
:100DD000782F8827B85F39F0B93FCCF3869577959F
:100DE0006795B395D9F73EF4909580957095619588
:100DF0007F4F8F4F9F4F0895E89409C097FB3EF4B3
:100E000090958095709561957F4F8F4F9F4F992357
:100E1000A9F0F92F96E9BB279395F69587957795D5
:100E20006795B795F111F8CFFAF4BB0F11F460FF95
:100E30001BC06F5F7F4F8F4F9F4F16C0882311F0ED
:100E400096E911C0772321F09EE8872F762F05C001
:100E5000662371F096E8862F70E060E02AF09A959C
:100E6000660F771F881FDAF7880F9695879597F991
:100E7000089597F99F6780E870E060E008959FEF1C
:100E800080EC089500240A94161617061806090621
:100E9000089500240A9412161306140605060895F0
:100EA000092E0394000C11F4882352F0BB0F40F478
:100EB000BF2B11F460FF04C06F5F7F4F8F4F9F4FB8
:100EC000089557FD9058440F551F59F05F3F71F03A
:100ED0004795880F97FB991F61F09F3F79F08795A1
:100EE0000895121613061406551FF2CF4695F1DF2A
:100EF00008C0161617061806991FF1CF86957105BA
:100F0000610508940895E894BB2766277727CB01ED
:100F100097F90895FB01DC0102C001900D92415048
:100F20005040D8F70895BB274A3031F4992322F472
:100F3000BDE2909581959F4F0C949F07BB27FB01C5
:100F40005527AA27880F991FAA1FA41710F0A41BC2
:100F500083955051B9F7A05DAA3308F0A95DA1931C
:100F6000009779F7B111B1931192CB010C94B807A6
:100F7000DC01FC01672F71917723E1F7329704C000
:100F80007C916D9370836291AE17BF07C8F308958B
:040F9000F894FFCF03
:100F94000000000000000000000200020102020242
:080FA400030204050006000130
:00000001FF
