S01D00004F6273746163616C2061766F6964696E67206361722E7372656317
S11300000C942A000C9478060C949F060C94C60653
S11300100C9447000C9486080C9447000C944700F9
S11300200C9447000C941D070C9447000C94ED06A7
S11300300C9447000C9447000C9447000C94470020
S11300400C9447000C9447000C9447000C94470010
S11300500C94470011241FBECFE5D8E0DEBFCDBF0E
S113006010E0A0E6B0E0EAE1F5E102C005900D92EF
S1130070A23CB107D9F720E0A2ECB0E001C01D9288
S1130080AC3EB207E1F70E94BE040C948B0A0C94B8
S113009000008091C4009091C50002969093C50021
S11300A08093C40080FF0E949E028091C2009091C0
S11300B0C300009769F481E890E0909377008093FF
S11300C0760081E090E09093C3008093C20008958D
S11300D0019751F486E890E090937700809376003E
S11300E01092C3001092C20008958091C6008F5FE1
S11300F08093C60080E690E00E94E30308950E9486
S11301008C040E94A6040E94C30187E690E00E942A
S1130110090363E080E00E94280180E690E00E94E9
S1130120C30384E094E00E94B80488E194E00E9450
S1130130BB0489E490E00E943E010E9446018FEFD7
S11301408ABB089582EE90E00E9446038091E2000B
S11301508E34F1F0813319F0823361F016C01092BD
S1130160750060E081E00E94B5028091E2000E9487
S113017024020EC081E08093750060E00E94B50205
S11301808091E2000E94240203C082E08093750003
S11301908091750081112EC08091C700811109C022
S11301A00E949E021092C9001092C80081E08093C0
S11301B0C7000E94AD046093E3007093E400809351
S11301C0E5009093E6008FE295E70197F1F700C010
S11301D0000060E080E00E94B5026091E30070914D
S11301E0E4008091E5009091E6000E9499090E9444
S11301F0EA0208958130B1F48091C800811109C0E8
S11302000E949E021092C90081E08093C80010925F
S1130210C70060E080E00E94B5028CE890E00E9494
S1130220CD0208958091C900811109C00E949E02E7
S113023081E08093C9001092C8001092C70060E06A
S113024080E00E94B5028AE990E00E94CD02089500
S1130250CF93DF93C82FD62F40E062E083E00E9463
S1130260C30440E062E083E00E94FD046D2F8C2F04
S11302700E94E30581E0DF91CF910895009721F07A
S11302800E94600681E0089580E008950E946A0655
S113029008950F931F93CF93DF93182F40E060E0EE
S11302A083E00E94FD04C82F40E067E082E00E94E2
S11302B0FD04C82B012F02950F70D0E015C0ED2F5F
S11302C0F0E0402F50E00D2E02C0559547950A945A
S11302D0E2F74170EE0FFF1FE858FF4F6181808104
S11302E00E94FD04C82BDF5FD43048F341E061E095
S11302F083E00E94FD04C82B89EF90E00197F1F799
S113030000C0000040E061E083E00E94FD04C82BCF
S113031092E49A95F1F700C01F70D0E015C0ED2F5C
S1130320F0E0412F50E00D2E02C0559547950A94F8
S1130330E2F74170EE0FFF1FE858FF4F61818081A3
S11303400E94FD04C82BDF5FD43048F341E061E034
S113035083E00E94FD04C82BE9EFF0E03197F1F748
S113036000C0000040E061E083E00E94FD048C2BAB
S1130370E3EFF1E03197F1F700C00000DF91CF9196
S11303801F910F910895CF93DF93D0E0C0E00DC08B
S1130390ED2FF0E0EE0FFF1FE858FF4F41E06181C1
S11303A080810E94C304C82BDF5FD43088F341E00E
S11303B067E082E00E94C304C82B41E060E083E070
S11303C00E94C304C82B41E061E083E00E94C3049F
S11303D0C82B8FE097E20197F1F700C0000082E09C
S11303E00E944901C82BE9EFF0E03197F1F700C012
S11303F0000088E20E944901C82B89EF90E0019730
S1130400F1F700C0000081E00E944901C82BE7EE2B
S1130410F3E03197F1F700C0000086E00E94490143
S1130420C82B89EF90E00197F1F700C000008CE041
S11304300E9449018C2BE9EFF0E03197F1F700C0FD
S11304400000DF91CF9108950F931F93CF93DF9313
S1130450182F40E060E083E00E94FD04C82F41E0D3
S113046067E082E00E94FD04C82B012F02950F7003
S1130470D0E015C0ED2FF0E0402F50E00D2E02C06B
S1130480559547950A94E2F74170EE0FFF1FE8581F
S1130490FF4F618180810E94FD04C82BDF5FD4304F
S11304A048F341E061E083E00E94FD04C82B89EF3A
S11304B090E00197F1F700C0000040E061E083E0C4
S11304C00E94FD04C82B92E49A95F1F700C01F70B6
S11304D0D0E015C0ED2FF0E0412F50E00D2E02C00A
S11304E0559547950A94E2F74170EE0FFF1FE858BF
S11304F0FF4F618180810E94FD04C82BDF5FD430EF
S113050048F341E061E083E00E94FD04C82BE9EF79
S1130510F0E03197F1F700C0000040E061E083E0D3
S11305200E94FD048C2BE3EFF1E03197F1F700C05A
S11305300000DF91CF911F910F910895CF9381E037
S11305400E944901C82F87EE93E00197F1F700C09C
S1130550000082E00E9449018C2BE7EEF3E0319722
S1130560F1F700C00000CF910895811108C06031F7
S113057030F4862F8F7080680E944901089581307D
S113058041F4603140F4862F8F70806C0E944901E1
S1130590089585E0089585E00895EF92FF921F93F2
S11305A0CF93DF937C01FC018081C0E0D0E010E0B8
S11305B008C00E942402182B2196F701EC0FFD1F9E
S11305C080818111F6CF812FDF91CF911F91FF9010
S11305D0EF900895CF93DF93CDB7DEB72A970FB688
S11305E0F894DEBF0FBECDBFDC01CB014AE0BE01F3
S11305F06F5F7F4F0E94560ACE0101960E94CD0282
S11306002A960FB6F894DEBF0FBECDBFDF91CF910F
S11306100895CF93DF930097A9F1EC01698140E03D
S113062088810E94C3046B8140E08A810E94C304D4
S11306306D8140E08C810E94C304698141E088811E
S11306400E94FD046B8141E08A810E94FD046D815A
S113065041E08C810E94FD046F8141E08E810E9403
S1130660C304698541E088850E94C3046B8541E029
S11306708A850E94C3046D8541E08C850E94C30471
S113068080E001C087E0DF91CF910895DF92EF927F
S1130690FF920F931F93CF93DF931F92CDB7DEB7D3
S11306A07C0107E610E0F801678141E086810E9441
S11306B0FD04F801618541E080850E94FD04F80194
S11306C0638541E082850E94FD04F801658541E06F
S11306D084850E94FD0400E0D12C42C0E7E6F0E0EE
S11306E06781600F40E086810E94FD0410E02DC008
S11306F0E7E6F0E06181610FAE014F5F5F4F8081FB
S11307000E947805898181111FC00AC0E7E6F0E0E4
S11307106181610FAE014F5F5F4F80810E94780558
S11307208981882399F3802F90E0FC01EE0FFF1F4D
S1130730E80FF91FEA54FF4FE10FF11D8081F70123
S11307408083DD24D39403C01F5F133088F2E7E66F
S1130750F0E06781600F41E086810E94FD040F5F35
S1130760043008F4BBCFF1E0DF1619F08EE4F70192
S1130770808380E00F90DF91CF911F910F91FF90C4
S1130780EF90DF9008951F93CF93DF93009791F03C
S1130790FC012081233080F421812A3078F4EC019B
S11307A00E944D07182F68818D819E810E94FE074B
S11307B0812B05C083E003C083E001C083E0DF91A7
S11307C0CF911F910895009751F0FC0120812330AF
S11307D040F421812A3038F40E94D607089583E03A
S11307E0089583E0089583E0089541E063E081E0A3
S11307F00E94FD048AE18A95F1F700C040E063E0BD
S113080081E00E94FD0408958091CF009091D00072
S1130810A091D100B091D2000196A11DB11D809389
S1130820CF009093D000A093D100B093D20008954C
S11308308091CE00811114C00E947E0862E082E0A3
S11308400E94E30581E08093CE001092CF001092C5
S1130850D0001092D1001092D2000E946608089530
S11308608091CE00813009F056C00E9470080E9429
S113087080088093E7008091CF009091D000A091F0
S1130880D100B091D2008093E8009093E900A09346
S1130890EA00B093EB002091E7008091E80090918A
S11308A0E900A091EA00B091EB00BA2FA92F982F8C
S11308B08827BC01CD01620F711D811D911D0E940D
S11308C0C8092DEC3CE349E654E40E94270920E0E2
S11308D030E040E050E40E94BA086093CA0070938C
S11308E0CB008093CC009093CD001092E80010923E
S11308F0E9001092EA001092EB001092CF001092DF
S1130900D0001092D1001092D2001092CE0063E079
S113091082E00E94E305089541E063E081E00E94E3
S1130920C30440E062E081E00E94C30440E062E06E
S113093081E00E94FD0463E082E00E94E30580E020
S11309400E941B0881E00E944A0808950E945E08E4
S11309500E9471060E94820808950E94F503609126
S1130960CA007091CB008091CC009091CD00089585
S11309700E94770808950E94650608950E947F00EA
S11309800E94A200FDCF6830A0F581110BC08AB38C
S113099050E002C0440F551F6A95E2F7482B4ABB4A
S11309A080E00895813059F487B350E002C0440FC9
S11309B0551F6A95E2F7482B47BB80E008958230C3
S11309C059F484B350E002C0440F551F6A95E2F70E
S11309D0482B44BB80E00895833069F481B350E030
S11309E002C0440F551F6A95E2F7482B41BB80E0D3
S11309F0089581E0089582E00895683008F074C095
S1130A0081111BC0413061F42BB381E090E002C03E
S1130A10880F991F6A95E2F7822B8BBB80E00895BB
S1130A202BB381E090E002C0880F991F6A95E2F72A
S1130A30809582238BBB80E008958130D9F44130C6
S1130A4061F428B381E090E002C0880F991F6A9591
S1130A50E2F7822B88BB80E0089528B381E090E020
S1130A6002C0880F991F6A95E2F78095822388BB9C
S1130A7080E008958230D9F4413061F425B381E0F7
S1130A8090E002C0880F991F6A95E2F7822B85BB1C
S1130A9080E0089525B381E090E002C0880F991F9B
S1130AA06A95E2F78095822385BB80E008958330C0
S1130AB0E9F4413061F422B381E090E002C0880F90
S1130AC0991F6A95E2F7822B82BB80E0089522B3D6
S1130AD081E090E002C0880F991F6A95E2F7809543
S1130AE0822382BB80E0089581E0089582E0089526
S1130AF0683008F064C0811117C079B381E090E0D8
S1130B009C01062E02C0220F331F0A94E2F7872F9E
S1130B1090E08223932302C0969587956A95E2F725
S1130B20FA01808380E008958130B9F476B381E0DE
S1130B3090E09C01062E02C0220F331F0A94E2F7B4
S1130B40872F90E08223932302C0969587956A9518
S1130B50E2F7FA01808380E008958230B9F473B338
S1130B6081E090E09C01062E02C0220F331F0A94FC
S1130B70E2F7872F90E08223932302C0969587950E
S1130B806A95E2F7FA01808380E008958330C9F41E
S1130B9070B381E090E09C01062E02C0220F331F47
S1130BA00A94E2F7872F90E08223932302C096955C
S1130BB087956A95E2F7FA01808380E0089581E0E1
S1130BC0089582E00895833008F070C0643008F01E
S1130BD06FC0811128C0613071F028F0623099F043
S1130BE06330C9F067C085B78E7F85BF85B78D7FB9
S1130BF085BF81E0089585B7816085BF85B78D7F06
S1130C0085BF81E0089585B78E7F85BF85B78260F3
S1130C1085BF81E0089585B7816085BF85B782600F
S1130C2085BF81E00895813081F5613071F028F04D
S1130C30623099F06330C9F020C085B78B7F85BFDF
S1130C4085B7877F85BF81E019C085B7846085BF7C
S1130C5085B7877F85BF81E011C085B78B7F85BF4E
S1130C6085B7886085BF81E009C085B7846085BF8A
S1130C7085B7886085BF81E001C080E09BB790683C
S1130C809BBF9AB790689ABF08958230A9F46230E6
S1130C9019F0633031F012C084B78F7B84BF81E0D8
S1130CA0089584B7806484BF81E0089580E0089546
S1130CB080E0089580E0089581E0089580E008953B
S1130CC09093D8008093D70008959093D600809392
S1130CD0D50008958AB780648ABF8BB780648BBFC0
S1130CE008958BB780628BBF8AB780628ABF0895EC
S1130CF01F920F920FB60F9211242F933F934F938D
S1130D005F936F937F938F939F93AF93BF93EF936F
S1130D10FF93E091D700F091D8000995FF91EF91EE
S1130D20BF91AF919F918F917F916F915F914F91FF
S1130D303F912F910F900FBE0F901F9018951F9207
S1130D400F920FB60F9211242F933F934F935F93FB
S1130D506F937F938F939F93AF93BF93EF93FF937F
S1130D60E091D300F091D4000995FF91EF91BF91E8
S1130D70AF919F918F917F916F915F914F913F912F
S1130D802F910F900FBE0F901F9018951F920F92E6
S1130D900FB60F9211242F933F934F935F936F934A
S1130DA07F938F939F93AF93BF93EF93FF93E091C0
S1130DB0D500F091D6000995FF91EF91BF91AF91C5
S1130DC09F918F917F916F915F914F913F912F915F
S1130DD00F900FBE0F901F9018951F920F920FB691
S1130DE00F9211242F933F934F935F936F937F93AD
S1130DF08F939F93AF93BF93EF93FF938091E00002
S1130E009091E100892B41F088B78E7F88BFE091F3
S1130E10E000F091E1000995FF91EF91BF91AF914E
S1130E209F918F917F916F915F914F913F912F91FE
S1130E300F900FBE0F901F9018951F920F920FB630
S1130E400F9211242F933F934F935F936F937F934C
S1130E508F939F93AF93BF93EF93FF938091DE00A3
S1130E609091DF00892B41F088B78B7F88BFE09198
S1130E70DE00F091DF000995FF91EF91BF91AF91F2
S1130E809F918F917F916F915F914F913F912F919E
S1130E900F900FBE0F901F901895009709F478C01B
S1130EA0FC012081233008F075C031813A3008F00C
S1130EB073C0213019F120F0223009F450C06EC003
S1130EC012BE13BE1CBEFC01228122BF23B72068C0
S1130ED023BF23B72F7B23BF23B7277F23BF23B78A
S1130EE02F7E23BF23B72F7D23BF8481813009F058
S1130EF057C089B7816089BF80E008951CBC1DBCC0
S1130F001FBC1EBC1BBC1ABCFC01228133813DBD2D
S1130F102CBD2FB528602FBD2FB524602FBD2FB554
S1130F202E7F2FBD2FB52D7F2FBD2EB52F7E2EBD2D
S1130F302EB5277F2EBD2FB52F7B2FBD2FB52F7735
S1130F402FBD2FB52F7E2FBD2FB52F7D2FBD8481B3
S1130F50813041F589B7846089BF80E0089514BC6D
S1130F6015BC13BC14BC25B52F7B25BD25B5277F27
S1130F7025BD25B52F7E25BD25B52F7D25BDFC01BD
S1130F808481813089F489B7806489BF80E00895C1
S1130F9083E0089583E0089583E0089583E008954D
S1130FA080E0089580E0089580E008950097F1F0CE
S1130FB0FC0120812330E0F431813A30D8F421302F
S1130FC049F018F0223069F017C0FC01828182BF19
S1130FD080E00895FC01828193819DBD8CBD80E0F9
S1130FE00895FC01828184BD80E0089583E0089522
S1130FF083E0089583E0089583E008950097A9F0BD
S11310006330A8F4613059F020F0623091F083E04D
S113101008959093E1008093E00080E00895909318
S1131020DF008093DE0080E0089583E0089583E08C
S1131030089580E00895843048F514BC813071F03F
S113104028F0823099F08330C9F022C085B5877FBB
S113105085BD85B58F7B85BD80E0089585B5877F87
S113106085BD85B5806485BD80E0089585B58860BB
S113107085BD85B58F7B85BD80E0089585B5886085
S113108085BD85B5806485BD80E0089581E00895BF
S113109081E00895883070F48093DD009091DC0045
S11310A0913051F495B5987F892B95B5892B85BDE1
S11310B080E0089581E0089580E0089588B7806411
S11310C088BF89B7806489BF80E0089595B5809111
S11310D0DD00892B85BD81E08093DC0080E00895EC
S11310E085B5887F85BD1092DC0080E00895009767
S11310F021F09093DB008093DA00089514BC0895E6
S113110084B508958FB780688FBF08951F920F929A
S11311100FB60F9211242F933F934F935F936F93C6
S11311207F938F939F93AF93BF93EF93FF9380919C
S1131130D9008F5F8093D90090918000891309C0F2
S1131140E091DA00F091DB00309719F01092D900A9
S11311500995FF91EF91BF91AF919F918F917F91ED
S11311606F915F914F913F912F910F900FBE0F9010
S11311701F9018955058BB27AA270E94D2080C9498
S11311801C0A0E940E0A38F00E94150A20F039F455
S11311909F3F19F426F40C940B0A0EF4E095E7FB38
S11311A00C94050AE92F0E942D0A58F3BA17620716
S11311B073078407950720F079F4A6F50C944F0A79
S11311C00EF4E0950B2EBA2FA02D0B01B90190015E
S11311D00C01CA01A0011124FF27591B99F0593FA2
S11311E050F4503E68F11A16F040A22F232F342FEA
S11311F04427585FF3CF469537952795A795F04038
S11312005395C9F77EF41F16BA0B620B730B840B4C
S1131210BAF09150A1F0FF0FBB1F661F771F881F04
S1131220C2F70EC0BA0F621F731F841F48F487955C
S113123077956795B795F7959E3F08F0B0CF93954E
S1131240880F08F09927EE0F9795879508950E94C7
S11312503B090C941C0A0E94150A58F00E940E0ABD
S113126040F029F45F3F29F00C94050A51110C94C5
S1131270500A0C940B0A0E942D0A68F39923B1F3C7
S1131280552391F3951B550BBB27AA2762177307A8
S1131290840738F09F5F5F4F220F331F441FAA1F3C
S11312A0A9F335D00E2E3AF0E0E832D091505040F8
S11312B0E695001CCAF72BD0FE2F29D0660F771FA6
S11312C0881FBB1F261737074807AB07B0E809F08C
S11312D0BB0B802DBF01FF2793585F4F3AF09E3F11
S11312E0510578F00C94050A0C94500A5F3FE4F31E
S11312F0983ED4F3869577956795B795F7959F5F54
S1131300C9F7880F911D9695879597F90895E1E09F
S1131310660F771F881FBB1F621773078407BA07FE
S113132020F0621B730B840BBA0BEE1F88F7E09559
S113133008950E94350A88F09F5798F0B92F99278D
S1131340B751B0F0E1F0660F771F881F991F1AF0AC
S1131350BA95C9F714C0B13091F00E944F0AB1E0B8
S113136008950C944F0A672F782F8827B85F39F0B7
S1131370B93FCCF3869577956795B395D9F73EF445
S113138090958095709561957F4F8F4F9F4F0895ED
S1131390E89409C097FB3EF490958095709561950B
S11313A07F4F8F4F9F4F9923A9F0F92F96E9BB27C1
S11313B09395F695879577956795B795F111F8CF3D
S11313C0FAF4BB0F11F460FF1BC06F5F7F4F8F4FA8
S11313D09F4F16C0882311F096E911C0772321F09E
S11313E09EE8872F762F05C0662371F096E8862F36
S11313F070E060E02AF09A95660F771F881FDAF78D
S1131400880F9695879597F9089597F99F6780E8CF
S113141070E060E008959FEF80EC089500240A9442
S11314201616170618060906089500240A941216BB
S11314301306140605060895092E0394000C11F4EE
S1131440882352F0BB0F40F4BF2B11F460FF04C09B
S11314506F5F7F4F8F4F9F4F089557FD9058440FF4
S1131460551F59F05F3F71F04795880F97FB991FFF
S113147061F09F3F79F087950895121613061406BC
S1131480551FF2CF4695F1DF08C016161706180649
S1131490991FF1CF86957105610508940895E89424
S11314A0BB2766277727CB0197F90895BB274A30D6
S11314B031F4992322F4BDE2909581959F4F0C94C9
S11314C0620ABB27FB015527AA27880F991FAA1F69
S11314D0A41710F0A41B83955051B9F7A05DAA334B
S11314E008F0A95DA193009779F7B111B193119216
S11314F0CB010C947B0ADC01FC01672F71917723EB
S1131500E1F7329704C07C916D9370836291AE17BA
S10D1510BF07C8F30895F894FFCF55
S113151A01077CE1017500020002010202020302D2
S113152A04020502060286000304030503060307F0
S113153A014C656674005269676874004D6F746F74
S113154A722053746F70706564004D4F544F52206B
S113155A696E2049444C4500536574204465662EDF
S113156A20526F742E003132333435363738392AE3
S105157A302318
S9030000FC
